{
  "contractName": "ERC721TokenRealEstate",
  "abi": [
    {
      "inputs": [],
      "stateMutability": "nonpayable",
      "type": "constructor"
    },
    {
      "anonymous": false,
      "inputs": [
        {
          "indexed": true,
          "internalType": "address",
          "name": "owner",
          "type": "address"
        },
        {
          "indexed": true,
          "internalType": "address",
          "name": "approved",
          "type": "address"
        },
        {
          "indexed": true,
          "internalType": "uint256",
          "name": "tokenId",
          "type": "uint256"
        }
      ],
      "name": "Approval",
      "type": "event"
    },
    {
      "anonymous": false,
      "inputs": [
        {
          "indexed": true,
          "internalType": "address",
          "name": "owner",
          "type": "address"
        },
        {
          "indexed": true,
          "internalType": "address",
          "name": "operator",
          "type": "address"
        },
        {
          "indexed": false,
          "internalType": "bool",
          "name": "approved",
          "type": "bool"
        }
      ],
      "name": "ApprovalForAll",
      "type": "event"
    },
    {
      "anonymous": false,
      "inputs": [
        {
          "indexed": false,
          "internalType": "address",
          "name": "from",
          "type": "address"
        },
        {
          "indexed": false,
          "internalType": "address",
          "name": "to",
          "type": "address"
        }
      ],
      "name": "OwnerChanged",
      "type": "event"
    },
    {
      "anonymous": false,
      "inputs": [
        {
          "indexed": false,
          "internalType": "address",
          "name": "addr",
          "type": "address"
        }
      ],
      "name": "Paused",
      "type": "event"
    },
    {
      "anonymous": false,
      "inputs": [
        {
          "indexed": true,
          "internalType": "address",
          "name": "from",
          "type": "address"
        },
        {
          "indexed": true,
          "internalType": "address",
          "name": "to",
          "type": "address"
        },
        {
          "indexed": true,
          "internalType": "uint256",
          "name": "tokenId",
          "type": "uint256"
        }
      ],
      "name": "Transfer",
      "type": "event"
    },
    {
      "anonymous": false,
      "inputs": [
        {
          "indexed": false,
          "internalType": "address",
          "name": "addr",
          "type": "address"
        }
      ],
      "name": "Unpaused",
      "type": "event"
    },
    {
      "inputs": [
        {
          "internalType": "bytes32",
          "name": "_myid",
          "type": "bytes32"
        },
        {
          "internalType": "string",
          "name": "_result",
          "type": "string"
        }
      ],
      "name": "__callback",
      "outputs": [],
      "stateMutability": "nonpayable",
      "type": "function"
    },
    {
      "inputs": [
        {
          "internalType": "bytes32",
          "name": "_myid",
          "type": "bytes32"
        },
        {
          "internalType": "string",
          "name": "_result",
          "type": "string"
        },
        {
          "internalType": "bytes",
          "name": "_proof",
          "type": "bytes"
        }
      ],
      "name": "__callback",
      "outputs": [],
      "stateMutability": "nonpayable",
      "type": "function"
    },
    {
      "inputs": [
        {
          "internalType": "address",
          "name": "to",
          "type": "address"
        },
        {
          "internalType": "uint256",
          "name": "tokenId",
          "type": "uint256"
        }
      ],
      "name": "approve",
      "outputs": [],
      "stateMutability": "nonpayable",
      "type": "function"
    },
    {
      "inputs": [
        {
          "internalType": "address",
          "name": "owner",
          "type": "address"
        }
      ],
      "name": "balanceOf",
      "outputs": [
        {
          "internalType": "uint256",
          "name": "",
          "type": "uint256"
        }
      ],
      "stateMutability": "view",
      "type": "function",
      "constant": true
    },
    {
      "inputs": [],
      "name": "baseTokenURI",
      "outputs": [
        {
          "internalType": "string",
          "name": "",
          "type": "string"
        }
      ],
      "stateMutability": "view",
      "type": "function",
      "constant": true
    },
    {
      "inputs": [
        {
          "internalType": "uint256",
          "name": "tokenId",
          "type": "uint256"
        }
      ],
      "name": "getApproved",
      "outputs": [
        {
          "internalType": "address",
          "name": "",
          "type": "address"
        }
      ],
      "stateMutability": "view",
      "type": "function",
      "constant": true
    },
    {
      "inputs": [],
      "name": "getContractOwner",
      "outputs": [
        {
          "internalType": "address",
          "name": "",
          "type": "address"
        }
      ],
      "stateMutability": "view",
      "type": "function",
      "constant": true
    },
    {
      "inputs": [
        {
          "internalType": "address",
          "name": "owner",
          "type": "address"
        },
        {
          "internalType": "address",
          "name": "operator",
          "type": "address"
        }
      ],
      "name": "isApprovedForAll",
      "outputs": [
        {
          "internalType": "bool",
          "name": "",
          "type": "bool"
        }
      ],
      "stateMutability": "view",
      "type": "function",
      "constant": true
    },
    {
      "inputs": [],
      "name": "name",
      "outputs": [
        {
          "internalType": "string",
          "name": "",
          "type": "string"
        }
      ],
      "stateMutability": "view",
      "type": "function",
      "constant": true
    },
    {
      "inputs": [
        {
          "internalType": "uint256",
          "name": "tokenId",
          "type": "uint256"
        }
      ],
      "name": "ownerOf",
      "outputs": [
        {
          "internalType": "address",
          "name": "",
          "type": "address"
        }
      ],
      "stateMutability": "view",
      "type": "function",
      "constant": true
    },
    {
      "inputs": [
        {
          "internalType": "address",
          "name": "from",
          "type": "address"
        },
        {
          "internalType": "address",
          "name": "to",
          "type": "address"
        },
        {
          "internalType": "uint256",
          "name": "tokenId",
          "type": "uint256"
        }
      ],
      "name": "safeTransferFrom",
      "outputs": [],
      "stateMutability": "nonpayable",
      "type": "function"
    },
    {
      "inputs": [
        {
          "internalType": "address",
          "name": "from",
          "type": "address"
        },
        {
          "internalType": "address",
          "name": "to",
          "type": "address"
        },
        {
          "internalType": "uint256",
          "name": "tokenId",
          "type": "uint256"
        },
        {
          "internalType": "bytes",
          "name": "_data",
          "type": "bytes"
        }
      ],
      "name": "safeTransferFrom",
      "outputs": [],
      "stateMutability": "nonpayable",
      "type": "function"
    },
    {
      "inputs": [
        {
          "internalType": "address",
          "name": "to",
          "type": "address"
        },
        {
          "internalType": "bool",
          "name": "approved",
          "type": "bool"
        }
      ],
      "name": "setApprovalForAll",
      "outputs": [],
      "stateMutability": "nonpayable",
      "type": "function"
    },
    {
      "inputs": [
        {
          "internalType": "bool",
          "name": "status",
          "type": "bool"
        }
      ],
      "name": "setPauseStatus",
      "outputs": [],
      "stateMutability": "nonpayable",
      "type": "function"
    },
    {
      "inputs": [
        {
          "internalType": "bytes4",
          "name": "interfaceId",
          "type": "bytes4"
        }
      ],
      "name": "supportsInterface",
      "outputs": [
        {
          "internalType": "bool",
          "name": "",
          "type": "bool"
        }
      ],
      "stateMutability": "view",
      "type": "function",
      "constant": true
    },
    {
      "inputs": [],
      "name": "symbol",
      "outputs": [
        {
          "internalType": "string",
          "name": "",
          "type": "string"
        }
      ],
      "stateMutability": "view",
      "type": "function",
      "constant": true
    },
    {
      "inputs": [
        {
          "internalType": "uint256",
          "name": "index",
          "type": "uint256"
        }
      ],
      "name": "tokenByIndex",
      "outputs": [
        {
          "internalType": "uint256",
          "name": "",
          "type": "uint256"
        }
      ],
      "stateMutability": "view",
      "type": "function",
      "constant": true
    },
    {
      "inputs": [
        {
          "internalType": "address",
          "name": "owner",
          "type": "address"
        },
        {
          "internalType": "uint256",
          "name": "index",
          "type": "uint256"
        }
      ],
      "name": "tokenOfOwnerByIndex",
      "outputs": [
        {
          "internalType": "uint256",
          "name": "",
          "type": "uint256"
        }
      ],
      "stateMutability": "view",
      "type": "function",
      "constant": true
    },
    {
      "inputs": [
        {
          "internalType": "uint256",
          "name": "tokenId",
          "type": "uint256"
        }
      ],
      "name": "tokenURI",
      "outputs": [
        {
          "internalType": "string",
          "name": "",
          "type": "string"
        }
      ],
      "stateMutability": "view",
      "type": "function",
      "constant": true
    },
    {
      "inputs": [],
      "name": "totalSupply",
      "outputs": [
        {
          "internalType": "uint256",
          "name": "",
          "type": "uint256"
        }
      ],
      "stateMutability": "view",
      "type": "function",
      "constant": true
    },
    {
      "inputs": [
        {
          "internalType": "address",
          "name": "from",
          "type": "address"
        },
        {
          "internalType": "address",
          "name": "to",
          "type": "address"
        },
        {
          "internalType": "uint256",
          "name": "tokenId",
          "type": "uint256"
        }
      ],
      "name": "transferFrom",
      "outputs": [],
      "stateMutability": "nonpayable",
      "type": "function"
    },
    {
      "inputs": [
        {
          "internalType": "address",
          "name": "newOwner",
          "type": "address"
        }
      ],
      "name": "transferOwnership",
      "outputs": [],
      "stateMutability": "nonpayable",
      "type": "function"
    },
    {
      "inputs": [
        {
          "internalType": "address",
          "name": "to",
          "type": "address"
        },
        {
          "internalType": "uint256",
          "name": "tokenId",
          "type": "uint256"
        }
      ],
      "name": "mint",
      "outputs": [
        {
          "internalType": "bool",
          "name": "",
          "type": "bool"
        }
      ],
      "stateMutability": "nonpayable",
      "type": "function"
    }
  ],
  "bytecode": "0x60806040523480156200001157600080fd5b506040518060400160405280601981526020017f5468756e6465724d697261636c652d5265616c457374617465000000000000008152506040518060400160405280600581526020017f544d2d52450000000000000000000000000000000000000000000000000000008152506040518060600160405280603f815260200162003b72603f9139336000806101000a81548173ffffffffffffffffffffffffffffffffffffffff021916908373ffffffffffffffffffffffffffffffffffffffff1602179055507fb532073b38c83145e3e5135377a08bf9aab55bc0fd7c1179cd4fb995d2a5159c60008060009054906101000a900473ffffffffffffffffffffffffffffffffffffffff166040516200012d92919062000414565b60405180910390a160008060146101000a81548160ff0219169083151502179055506200018c6301ffc9a77c01000000000000000000000000000000000000000000000000000000000262000297640100000000026401000000009004565b620001c96380ac58cd7c01000000000000000000000000000000000000000000000000000000000262000297640100000000026401000000009004565b6200020663780e9d637c01000000000000000000000000000000000000000000000000000000000262000297640100000000026401000000009004565b82600f90805190602001906200021e92919062000353565b5081601090805190602001906200023792919062000353565b5080601190805190602001906200025092919062000353565b506200028e635b5e139f7c01000000000000000000000000000000000000000000000000000000000262000297640100000000026401000000009004565b505050620004da565b63ffffffff7c010000000000000000000000000000000000000000000000000000000002817bffffffffffffffffffffffffffffffffffffffffffffffffffffffff19161415620002e757600080fd5b6001806000837bffffffffffffffffffffffffffffffffffffffffffffffffffffffff19167bffffffffffffffffffffffffffffffffffffffffffffffffffffffff1916815260200190815260200160002060006101000a81548160ff02191690831515021790555050565b828054620003619062000475565b90600052602060002090601f016020900481019282620003855760008555620003d1565b82601f10620003a057805160ff1916838001178555620003d1565b82800160010185558215620003d1579182015b82811115620003d0578251825591602001919060010190620003b3565b5b509050620003e09190620003e4565b5090565b5b80821115620003ff576000816000905550600101620003e5565b5090565b6200040e8162000441565b82525050565b60006040820190506200042b600083018562000403565b6200043a602083018462000403565b9392505050565b60006200044e8262000455565b9050919050565b600073ffffffffffffffffffffffffffffffffffffffff82169050919050565b600060028204905060018216806200048e57607f821691505b60208210811415620004a557620004a4620004ab565b5b50919050565b7f4e487b7100000000000000000000000000000000000000000000000000000000600052602260045260246000fd5b61368880620004ea6000396000f3fe608060405234801561001057600080fd5b506004361061016a576000357c010000000000000000000000000000000000000000000000000000000090048063442890d5116100e0578063b88d4fde11610099578063b88d4fde146103df578063c38bb537146103fb578063c87b56dd14610417578063d547cfb714610447578063e985e9c514610465578063f2fde38b146104955761016a565b8063442890d5146102f75780634f6ccce7146103155780636352211e1461034557806370a082311461037557806395d89b41146103a5578063a22cb465146103c35761016a565b806323b872dd1161013257806323b872dd1461022757806327dc297e146102435780632f745c591461025f57806338bbfa501461028f57806340c10f19146102ab57806342842e0e146102db5761016a565b806301ffc9a71461016f57806306fdde031461019f578063081812fc146101bd578063095ea7b3146101ed57806318160ddd14610209575b600080fd5b61018960048036038101906101849190612b78565b6104b1565b6040516101969190613060565b60405180910390f35b6101a7610519565b6040516101b4919061307b565b60405180910390f35b6101d760048036038101906101d29190612bca565b6105ab565b6040516101e49190612fd0565b60405180910390f35b61020760048036038101906102029190612a40565b6105e8565b005b610211610795565b60405161021e91906131dd565b60405180910390f35b610241600480360381019061023c919061293a565b6107a2565b005b61025d60048036038101906102589190612aa5565b6107fb565b005b61027960048036038101906102749190612a40565b61087d565b60405161028691906131dd565b60405180910390f35b6102a960048036038101906102a49190612af9565b61091d565b005b6102c560048036038101906102c09190612a40565b610941565b6040516102d29190613060565b60405180910390f35b6102f560048036038101906102f0919061293a565b6109ee565b005b6102ff610a0e565b60405161030c9190612fd0565b60405180910390f35b61032f600480360381019061032a9190612bca565b610a37565b60405161033c91906131dd565b60405180910390f35b61035f600480360381019061035a9190612bca565b610a98565b60405161036c9190612fd0565b60405180910390f35b61038f600480360381019061038a91906128d5565b610ad5565b60405161039c91906131dd565b60405180910390f35b6103ad610b25565b6040516103ba919061307b565b60405180910390f35b6103dd60048036038101906103d89190612a04565b610bb7565b005b6103f960048036038101906103f49190612989565b610ced565b005b61041560048036038101906104109190612a7c565b610d13565b005b610431600480360381019061042c9190612bca565b610e38565b60405161043e919061307b565b60405180910390f35b61044f610f25565b60405161045c919061307b565b60405180910390f35b61047f600480360381019061047a91906128fe565b610fb7565b60405161048c9190613060565b60405180910390f35b6104af60048036038101906104aa91906128d5565b61104b565b005b600060016000837bffffffffffffffffffffffffffffffffffffffffffffffffffffffff19167bffffffffffffffffffffffffffffffffffffffffffffffffffffffff1916815260200190815260200160002060009054906101000a900460ff169050919050565b6060600f805461052890613466565b80601f016020809104026020016040519081016040528092919081815260200182805461055490613466565b80156105a15780601f10610576576101008083540402835291602001916105a1565b820191906000526020600020905b81548152906001019060200180831161058457829003601f168201915b5050505050905090565b60006003600083815260200190815260200160002060009054906101000a900473ffffffffffffffffffffffffffffffffffffffff169050919050565b60006105f382610a98565b90508273ffffffffffffffffffffffffffffffffffffffff168173ffffffffffffffffffffffffffffffffffffffff161415610664576040517f08c379a000000000000000000000000000000000000000000000000000000000815260040161065b9061315d565b60405180910390fd5b8073ffffffffffffffffffffffffffffffffffffffff163373ffffffffffffffffffffffffffffffffffffffff1614806106a457506106a38133610fb7565b5b6106e3576040517f08c379a00000000000000000000000000000000000000000000000000000000081526004016106da906130fd565b60405180910390fd5b826003600084815260200190815260200160002060006101000a81548173ffffffffffffffffffffffffffffffffffffffff021916908373ffffffffffffffffffffffffffffffffffffffff160217905550818373ffffffffffffffffffffffffffffffffffffffff168273ffffffffffffffffffffffffffffffffffffffff167f8c5be1e5ebec7d5bd14f71427d1e84f3dd0314c0f7b2291e5b200ac8c7c3b92560405160405180910390a4505050565b6000600880549050905090565b6107ac33826111ee565b6107eb576040517f08c379a00000000000000000000000000000000000000000000000000000000081526004016107e29061309d565b60405180910390fd5b6107f6838383611283565b505050565b6108798282600067ffffffffffffffff811115610841577f4e487b7100000000000000000000000000000000000000000000000000000000600052604160045260246000fd5b6040519080825280601f01601f1916602001820160405280156108735781602001600182028036833780820191505090505b5061091d565b5050565b600061088883610ad5565b821061089357600080fd5b600660008473ffffffffffffffffffffffffffffffffffffffff1673ffffffffffffffffffffffffffffffffffffffff168152602001908152602001600020828154811061090a577f4e487b7100000000000000000000000000000000000000000000000000000000600052603260045260246000fd5b9060005260206000200154905092915050565b6000600102600d600080600102815260200190815260200160002081905550505050565b60003373ffffffffffffffffffffffffffffffffffffffff1660008054906101000a900473ffffffffffffffffffffffffffffffffffffffff1673ffffffffffffffffffffffffffffffffffffffff16146109d1576040517f08c379a00000000000000000000000000000000000000000000000000000000081526004016109c89061317d565b60405180910390fd5b6109db83836112a7565b6109e4826112c8565b6001905092915050565b610a0983838360405180602001604052806000815250610ced565b505050565b60008060009054906101000a900473ffffffffffffffffffffffffffffffffffffffff16905090565b6000610a41610795565b8210610a4c57600080fd5b60088281548110610a86577f4e487b7100000000000000000000000000000000000000000000000000000000600052603260045260246000fd5b90600052602060002001549050919050565b60006002600083815260200190815260200160002060009054906101000a900473ffffffffffffffffffffffffffffffffffffffff169050919050565b6000610b1e600460008473ffffffffffffffffffffffffffffffffffffffff1673ffffffffffffffffffffffffffffffffffffffff1681526020019081526020016000206113d6565b9050919050565b606060108054610b3490613466565b80601f0160208091040260200160405190810160405280929190818152602001828054610b6090613466565b8015610bad5780601f10610b8257610100808354040283529160200191610bad565b820191906000526020600020905b815481529060010190602001808311610b9057829003601f168201915b5050505050905090565b3373ffffffffffffffffffffffffffffffffffffffff168273ffffffffffffffffffffffffffffffffffffffff161415610bf057600080fd5b80600560003373ffffffffffffffffffffffffffffffffffffffff1673ffffffffffffffffffffffffffffffffffffffff16815260200190815260200160002060008473ffffffffffffffffffffffffffffffffffffffff1673ffffffffffffffffffffffffffffffffffffffff16815260200190815260200160002060006101000a81548160ff0219169083151502179055508173ffffffffffffffffffffffffffffffffffffffff163373ffffffffffffffffffffffffffffffffffffffff167f17307eab39ab6107e8899845ad3d59bd9653f200f220920489ca2b5937696c3183604051610ce19190613060565b60405180910390a35050565b610cf88484846107a2565b610d04848484846113e4565b610d0d57600080fd5b50505050565b3373ffffffffffffffffffffffffffffffffffffffff1660008054906101000a900473ffffffffffffffffffffffffffffffffffffffff1673ffffffffffffffffffffffffffffffffffffffff1614610da1576040517f08c379a0000000000000000000000000000000000000000000000000000000008152600401610d989061317d565b60405180910390fd5b80600060146101000a81548160ff0219169083151502179055508015610dfd577f62e78cea01bee320cd4e420270b5ea74000d11b0c9f74754ebdbfc544b05a25833604051610df09190612fd0565b60405180910390a1610e35565b7f5db9ee0a495bf2e6ff9c91a7834c1ba4fdd244a5e8aa4e537bd38aeae4b073aa33604051610e2c9190612fd0565b60405180910390a15b50565b6060610e4382611533565b610e82576040517f08c379a0000000000000000000000000000000000000000000000000000000008152600401610e799061313d565b60405180910390fd5b601260008381526020019081526020016000208054610ea090613466565b80601f0160208091040260200160405190810160405280929190818152602001828054610ecc90613466565b8015610f195780601f10610eee57610100808354040283529160200191610f19565b820191906000526020600020905b815481529060010190602001808311610efc57829003601f168201915b50505050509050919050565b606060118054610f3490613466565b80601f0160208091040260200160405190810160405280929190818152602001828054610f6090613466565b8015610fad5780601f10610f8257610100808354040283529160200191610fad565b820191906000526020600020905b815481529060010190602001808311610f9057829003601f168201915b5050505050905090565b6000600560008473ffffffffffffffffffffffffffffffffffffffff1673ffffffffffffffffffffffffffffffffffffffff16815260200190815260200160002060008373ffffffffffffffffffffffffffffffffffffffff1673ffffffffffffffffffffffffffffffffffffffff16815260200190815260200160002060009054906101000a900460ff16905092915050565b3373ffffffffffffffffffffffffffffffffffffffff1660008054906101000a900473ffffffffffffffffffffffffffffffffffffffff1673ffffffffffffffffffffffffffffffffffffffff16146110d9576040517f08c379a00000000000000000000000000000000000000000000000000000000081526004016110d09061317d565b60405180910390fd5b80600073ffffffffffffffffffffffffffffffffffffffff168173ffffffffffffffffffffffffffffffffffffffff16141561114a576040517f08c379a00000000000000000000000000000000000000000000000000000000081526004016111419061311d565b60405180910390fd5b60008060009054906101000a900473ffffffffffffffffffffffffffffffffffffffff169050826000806101000a81548173ffffffffffffffffffffffffffffffffffffffff021916908373ffffffffffffffffffffffffffffffffffffffff1602179055507fb532073b38c83145e3e5135377a08bf9aab55bc0fd7c1179cd4fb995d2a5159c81846040516111e1929190612feb565b60405180910390a1505050565b6000806111fa83610a98565b90508073ffffffffffffffffffffffffffffffffffffffff168473ffffffffffffffffffffffffffffffffffffffff16148061126957508373ffffffffffffffffffffffffffffffffffffffff16611251846105ab565b73ffffffffffffffffffffffffffffffffffffffff16145b8061127a57506112798185610fb7565b5b91505092915050565b61128e8383836115a5565b61129883826117d6565b6112a28282611a06565b505050565b6112b18282611aca565b6112bb8282611a06565b6112c481611cd7565b5050565b6112d181611533565b611310576040517f08c379a0000000000000000000000000000000000000000000000000000000008152600401611307906131bd565b60405180910390fd5b6113ac6011805461132090613466565b80601f016020809104026020016040519081016040528092919081815260200182805461134c90613466565b80156113995780601f1061136e57610100808354040283529160200191611399565b820191906000526020600020905b81548152906001019060200180831161137c57829003601f168201915b50505050506113a783611d20565b611eef565b6012600083815260200190815260200160002090805190602001906113d29291906126e4565b5050565b600081600001549050919050565b60006114058473ffffffffffffffffffffffffffffffffffffffff16611f33565b611412576001905061152b565b60008473ffffffffffffffffffffffffffffffffffffffff1663150b7a02338887876040518563ffffffff167c010000000000000000000000000000000000000000000000000000000002815260040161146f9493929190613014565b602060405180830381600087803b15801561148957600080fd5b505af115801561149d573d6000803e3d6000fd5b505050506040513d601f19601f820116820180604052508101906114c19190612ba1565b905063150b7a027c0100000000000000000000000000000000000000000000000000000000027bffffffffffffffffffffffffffffffffffffffffffffffffffffffff1916817bffffffffffffffffffffffffffffffffffffffffffffffffffffffff1916149150505b949350505050565b6000806002600084815260200190815260200160002060009054906101000a900473ffffffffffffffffffffffffffffffffffffffff169050600073ffffffffffffffffffffffffffffffffffffffff168173ffffffffffffffffffffffffffffffffffffffff161415915050919050565b81600073ffffffffffffffffffffffffffffffffffffffff168173ffffffffffffffffffffffffffffffffffffffff161415611616576040517f08c379a000000000000000000000000000000000000000000000000000000000815260040161160d9061311d565b60405180910390fd5b61161f82610a98565b73ffffffffffffffffffffffffffffffffffffffff168473ffffffffffffffffffffffffffffffffffffffff161461168c576040517f08c379a0000000000000000000000000000000000000000000000000000000008152600401611683906130bd565b60405180910390fd5b61169582611f46565b6116dc600460008673ffffffffffffffffffffffffffffffffffffffff1673ffffffffffffffffffffffffffffffffffffffff168152602001908152602001600020612004565b611723600460008573ffffffffffffffffffffffffffffffffffffffff1673ffffffffffffffffffffffffffffffffffffffff168152602001908152602001600020612060565b826002600084815260200190815260200160002060006101000a81548173ffffffffffffffffffffffffffffffffffffffff021916908373ffffffffffffffffffffffffffffffffffffffff160217905550818373ffffffffffffffffffffffffffffffffffffffff168573ffffffffffffffffffffffffffffffffffffffff167fddf252ad1be2c89b69c2b068fc378daa952ba7f163c4a11628f55a4df523b3ef60405160405180910390a450505050565b600061182e6001600660008673ffffffffffffffffffffffffffffffffffffffff1673ffffffffffffffffffffffffffffffffffffffff1681526020019081526020016000208054905061207690919063ffffffff16565b9050600060076000848152602001908152602001600020549050818114611975576000600660008673ffffffffffffffffffffffffffffffffffffffff1673ffffffffffffffffffffffffffffffffffffffff16815260200190815260200160002083815481106118c8577f4e487b7100000000000000000000000000000000000000000000000000000000600052603260045260246000fd5b9060005260206000200154905080600660008773ffffffffffffffffffffffffffffffffffffffff1673ffffffffffffffffffffffffffffffffffffffff168152602001908152602001600020838154811061194d577f4e487b7100000000000000000000000000000000000000000000000000000000600052603260045260246000fd5b9060005260206000200181905550816007600083815260200190815260200160002081905550505b600660008573ffffffffffffffffffffffffffffffffffffffff1673ffffffffffffffffffffffffffffffffffffffff1681526020019081526020016000208054806119ea577f4e487b7100000000000000000000000000000000000000000000000000000000600052603160045260246000fd5b6001900381819060005260206000200160009055905550505050565b600660008373ffffffffffffffffffffffffffffffffffffffff1673ffffffffffffffffffffffffffffffffffffffff168152602001908152602001600020805490506007600083815260200190815260200160002081905550600660008373ffffffffffffffffffffffffffffffffffffffff1673ffffffffffffffffffffffffffffffffffffffff1681526020019081526020016000208190806001815401808255809150506001900390600052602060002001600090919091909150555050565b81600073ffffffffffffffffffffffffffffffffffffffff168173ffffffffffffffffffffffffffffffffffffffff161415611b3b576040517f08c379a0000000000000000000000000000000000000000000000000000000008152600401611b329061311d565b60405180910390fd5b600073ffffffffffffffffffffffffffffffffffffffff166002600084815260200190815260200160002060009054906101000a900473ffffffffffffffffffffffffffffffffffffffff1673ffffffffffffffffffffffffffffffffffffffff1614611bdd576040517f08c379a0000000000000000000000000000000000000000000000000000000008152600401611bd49061319d565b60405180910390fd5b826002600084815260200190815260200160002060006101000a81548173ffffffffffffffffffffffffffffffffffffffff021916908373ffffffffffffffffffffffffffffffffffffffff160217905550611c76600460008573ffffffffffffffffffffffffffffffffffffffff1673ffffffffffffffffffffffffffffffffffffffff168152602001908152602001600020612060565b818373ffffffffffffffffffffffffffffffffffffffff16600073ffffffffffffffffffffffffffffffffffffffff167fddf252ad1be2c89b69c2b068fc378daa952ba7f163c4a11628f55a4df523b3ef60405160405180910390a4505050565b6008805490506009600083815260200190815260200160002081905550600881908060018154018082558091505060019003906000526020600020016000909190919091505550565b60606000821415611d68576040518060400160405280600181526020017f30000000000000000000000000000000000000000000000000000000000000008152509050611eea565b600082905060005b60008214611d9a578080611d8390613498565b915050600a82611d939190613317565b9150611d70565b60008167ffffffffffffffff811115611ddc577f4e487b7100000000000000000000000000000000000000000000000000000000600052604160045260246000fd5b6040519080825280601f01601f191660200182016040528015611e0e5781602001600182028036833780820191505090505b50905060008290505b60008614611ee257600a86611e2c91906134e1565b6030611e3891906132c1565b7f0100000000000000000000000000000000000000000000000000000000000000028282611e659061343c565b92508281518110611e9f577f4e487b7100000000000000000000000000000000000000000000000000000000600052603260045260246000fd5b60200101907effffffffffffffffffffffffffffffffffffffffffffffffffffffffffffff1916908160001a905350600a86611edb9190613317565b9550611e17565b819450505050505b919050565b6060611f2b838360405180602001604052806000815250604051806020016040528060008152506040518060200160405280600081525061208c565b905092915050565b600080823b905060008111915050919050565b600073ffffffffffffffffffffffffffffffffffffffff166003600083815260200190815260200160002060009054906101000a900473ffffffffffffffffffffffffffffffffffffffff1673ffffffffffffffffffffffffffffffffffffffff16146120015760006003600083815260200190815260200160002060006101000a81548173ffffffffffffffffffffffffffffffffffffffff021916908373ffffffffffffffffffffffffffffffffffffffff1602179055505b50565b60008160000154905060008111612050576040517f08c379a0000000000000000000000000000000000000000000000000000000008152600401612047906130dd565b60405180910390fd5b6001810382600001819055505050565b6001816000016000828254019250508190555050565b600081836120849190613348565b905092915050565b6060600086905060008690506000869050600086905060008690506000815183518551875189516120bd91906132c1565b6120c791906132c1565b6120d191906132c1565b6120db91906132c1565b67ffffffffffffffff81111561211a577f4e487b7100000000000000000000000000000000000000000000000000000000600052604160045260246000fd5b6040519080825280601f01601f19166020018201604052801561214c5781602001600182028036833780820191505090505b5090506000819050600080600090505b885181101561226f5788818151811061219e577f4e487b7100000000000000000000000000000000000000000000000000000000600052603260045260246000fd5b60200101517f010000000000000000000000000000000000000000000000000000000000000090047f0100000000000000000000000000000000000000000000000000000000000000028383806121f490613498565b94508151811061222d577f4e487b7100000000000000000000000000000000000000000000000000000000600052603260045260246000fd5b60200101907effffffffffffffffffffffffffffffffffffffffffffffffffffffffffffff1916908160001a905350808061226790613498565b91505061215c565b600090505b8751811015612387578781815181106122b6577f4e487b7100000000000000000000000000000000000000000000000000000000600052603260045260246000fd5b60200101517f010000000000000000000000000000000000000000000000000000000000000090047f01000000000000000000000000000000000000000000000000000000000000000283838061230c90613498565b945081518110612345577f4e487b7100000000000000000000000000000000000000000000000000000000600052603260045260246000fd5b60200101907effffffffffffffffffffffffffffffffffffffffffffffffffffffffffffff1916908160001a905350808061237f90613498565b915050612274565b600090505b865181101561249f578681815181106123ce577f4e487b7100000000000000000000000000000000000000000000000000000000600052603260045260246000fd5b60200101517f010000000000000000000000000000000000000000000000000000000000000090047f01000000000000000000000000000000000000000000000000000000000000000283838061242490613498565b94508151811061245d577f4e487b7100000000000000000000000000000000000000000000000000000000600052603260045260246000fd5b60200101907effffffffffffffffffffffffffffffffffffffffffffffffffffffffffffff1916908160001a905350808061249790613498565b91505061238c565b600090505b85518110156125b7578581815181106124e6577f4e487b7100000000000000000000000000000000000000000000000000000000600052603260045260246000fd5b60200101517f010000000000000000000000000000000000000000000000000000000000000090047f01000000000000000000000000000000000000000000000000000000000000000283838061253c90613498565b945081518110612575577f4e487b7100000000000000000000000000000000000000000000000000000000600052603260045260246000fd5b60200101907effffffffffffffffffffffffffffffffffffffffffffffffffffffffffffff1916908160001a90535080806125af90613498565b9150506124a4565b600090505b84518110156126cf578481815181106125fe577f4e487b7100000000000000000000000000000000000000000000000000000000600052603260045260246000fd5b60200101517f010000000000000000000000000000000000000000000000000000000000000090047f01000000000000000000000000000000000000000000000000000000000000000283838061265490613498565b94508151811061268d577f4e487b7100000000000000000000000000000000000000000000000000000000600052603260045260246000fd5b60200101907effffffffffffffffffffffffffffffffffffffffffffffffffffffffffffff1916908160001a90535080806126c790613498565b9150506125bc565b82995050505050505050505095945050505050565b8280546126f090613466565b90600052602060002090601f0160209004810192826127125760008555612759565b82601f1061272b57805160ff1916838001178555612759565b82800160010185558215612759579182015b8281111561275857825182559160200191906001019061273d565b5b509050612766919061276a565b5090565b5b8082111561278357600081600090555060010161276b565b5090565b600061279a61279584613229565b6131f8565b9050828152602081018484840111156127b257600080fd5b6127bd8482856133fa565b509392505050565b60006127d86127d384613259565b6131f8565b9050828152602081018484840111156127f057600080fd5b6127fb8482856133fa565b509392505050565b600081359050612812816135df565b92915050565b600081359050612827816135f6565b92915050565b60008135905061283c8161360d565b92915050565b60008135905061285181613624565b92915050565b60008151905061286681613624565b92915050565b600082601f83011261287d57600080fd5b813561288d848260208601612787565b91505092915050565b600082601f8301126128a757600080fd5b81356128b78482602086016127c5565b91505092915050565b6000813590506128cf8161363b565b92915050565b6000602082840312156128e757600080fd5b60006128f584828501612803565b91505092915050565b6000806040838503121561291157600080fd5b600061291f85828601612803565b925050602061293085828601612803565b9150509250929050565b60008060006060848603121561294f57600080fd5b600061295d86828701612803565b935050602061296e86828701612803565b925050604061297f868287016128c0565b9150509250925092565b6000806000806080858703121561299f57600080fd5b60006129ad87828801612803565b94505060206129be87828801612803565b93505060406129cf878288016128c0565b925050606085013567ffffffffffffffff8111156129ec57600080fd5b6129f88782880161286c565b91505092959194509250565b60008060408385031215612a1757600080fd5b6000612a2585828601612803565b9250506020612a3685828601612818565b9150509250929050565b60008060408385031215612a5357600080fd5b6000612a6185828601612803565b9250506020612a72858286016128c0565b9150509250929050565b600060208284031215612a8e57600080fd5b6000612a9c84828501612818565b91505092915050565b60008060408385031215612ab857600080fd5b6000612ac68582860161282d565b925050602083013567ffffffffffffffff811115612ae357600080fd5b612aef85828601612896565b9150509250929050565b600080600060608486031215612b0e57600080fd5b6000612b1c8682870161282d565b935050602084013567ffffffffffffffff811115612b3957600080fd5b612b4586828701612896565b925050604084013567ffffffffffffffff811115612b6257600080fd5b612b6e8682870161286c565b9150509250925092565b600060208284031215612b8a57600080fd5b6000612b9884828501612842565b91505092915050565b600060208284031215612bb357600080fd5b6000612bc184828501612857565b91505092915050565b600060208284031215612bdc57600080fd5b6000612bea848285016128c0565b91505092915050565b612bfc8161337c565b82525050565b612c0b8161338e565b82525050565b6000612c1c82613289565b612c26818561329f565b9350612c36818560208601613409565b612c3f816135ce565b840191505092915050565b6000612c5582613294565b612c5f81856132b0565b9350612c6f818560208601613409565b612c78816135ce565b840191505092915050565b6000612c90602a836132b0565b91507f7065726d697373696f6e20697320726571756972656420746f207472616e736660008301527f657220746f6b656e4964000000000000000000000000000000000000000000006020830152604082019050919050565b6000612cf66030836132b0565b91507f46726f6d2061646472657373206973206e6f7420746865206f776e6572206f6660008301527f2074686520676976656e20746f6b656e000000000000000000000000000000006020830152604082019050919050565b6000612d5c601b836132b0565b91507f436f756e7465723a2064656372656d656e74206f766572666c6f7700000000006000830152602082019050919050565b6000612d9c6044836132b0565b91507f4d6573736167652073656e646572206d75737420626520746865206f776e657260008301527f206f7220686173206265656e20617070726f76656420627920746f6b656e206f60208301527f776e6572000000000000000000000000000000000000000000000000000000006040830152606082019050919050565b6000612e286017836132b0565b91507f4d75737420626520612076616c696420616464726573730000000000000000006000830152602082019050919050565b6000612e686012836132b0565b91507f746f6b656e206973206e6f7420657869737400000000000000000000000000006000830152602082019050919050565b6000612ea86032836132b0565b91507f476976656e20616464726573732073686f756c64206e6f74206265207468652060008301527f6f776e6572206f662074686520746f6b656e00000000000000000000000000006020830152604082019050919050565b6000612f0e6015836132b0565b91507f4f6e6c79206f776e657220697320616c6c6f77656400000000000000000000006000830152602082019050919050565b6000612f4e6016836132b0565b91507f746f6b656e20697320616c7265616479206578697374000000000000000000006000830152602082019050919050565b6000612f8e6014836132b0565b91507f746f6b656e4964206973206e6f742065786973740000000000000000000000006000830152602082019050919050565b612fca816133f0565b82525050565b6000602082019050612fe56000830184612bf3565b92915050565b60006040820190506130006000830185612bf3565b61300d6020830184612bf3565b9392505050565b60006080820190506130296000830187612bf3565b6130366020830186612bf3565b6130436040830185612fc1565b81810360608301526130558184612c11565b905095945050505050565b60006020820190506130756000830184612c02565b92915050565b600060208201905081810360008301526130958184612c4a565b905092915050565b600060208201905081810360008301526130b681612c83565b9050919050565b600060208201905081810360008301526130d681612ce9565b9050919050565b600060208201905081810360008301526130f681612d4f565b9050919050565b6000602082019050818103600083015261311681612d8f565b9050919050565b6000602082019050818103600083015261313681612e1b565b9050919050565b6000602082019050818103600083015261315681612e5b565b9050919050565b6000602082019050818103600083015261317681612e9b565b9050919050565b6000602082019050818103600083015261319681612f01565b9050919050565b600060208201905081810360008301526131b681612f41565b9050919050565b600060208201905081810360008301526131d681612f81565b9050919050565b60006020820190506131f26000830184612fc1565b92915050565b6000604051905081810181811067ffffffffffffffff8211171561321f5761321e61359f565b5b8060405250919050565b600067ffffffffffffffff8211156132445761324361359f565b5b601f19601f8301169050602081019050919050565b600067ffffffffffffffff8211156132745761327361359f565b5b601f19601f8301169050602081019050919050565b600081519050919050565b600081519050919050565b600082825260208201905092915050565b600082825260208201905092915050565b60006132cc826133f0565b91506132d7836133f0565b9250827fffffffffffffffffffffffffffffffffffffffffffffffffffffffffffffffff0382111561330c5761330b613512565b5b828201905092915050565b6000613322826133f0565b915061332d836133f0565b92508261333d5761333c613541565b5b828204905092915050565b6000613353826133f0565b915061335e836133f0565b92508282101561337157613370613512565b5b828203905092915050565b6000613387826133d0565b9050919050565b60008115159050919050565b6000819050919050565b60007fffffffff0000000000000000000000000000000000000000000000000000000082169050919050565b600073ffffffffffffffffffffffffffffffffffffffff82169050919050565b6000819050919050565b82818337600083830152505050565b60005b8381101561342757808201518184015260208101905061340c565b83811115613436576000848401525b50505050565b6000613447826133f0565b9150600082141561345b5761345a613512565b5b600182039050919050565b6000600282049050600182168061347e57607f821691505b6020821081141561349257613491613570565b5b50919050565b60006134a3826133f0565b91507fffffffffffffffffffffffffffffffffffffffffffffffffffffffffffffffff8214156134d6576134d5613512565b5b600182019050919050565b60006134ec826133f0565b91506134f7836133f0565b92508261350757613506613541565b5b828206905092915050565b7f4e487b7100000000000000000000000000000000000000000000000000000000600052601160045260246000fd5b7f4e487b7100000000000000000000000000000000000000000000000000000000600052601260045260246000fd5b7f4e487b7100000000000000000000000000000000000000000000000000000000600052602260045260246000fd5b7f4e487b7100000000000000000000000000000000000000000000000000000000600052604160045260246000fd5b6000601f19601f8301169050919050565b6135e88161337c565b81146135f357600080fd5b50565b6135ff8161338e565b811461360a57600080fd5b50565b6136168161339a565b811461362157600080fd5b50565b61362d816133a4565b811461363857600080fd5b50565b613644816133f0565b811461364f57600080fd5b5056fea2646970667358221220717bfe5710ae1fb9d923dfc1640b5e6287345806b8bf9b88fdb20a8d73b208ee64736f6c6343000800003368747470733a2f2f73332d75732d776573742d322e616d617a6f6e6177732e636f6d2f756461636974792d626c6f636b636861696e2f63617073746f6e652f",
  "immutableReferences": {},
  "source": "// SPDX-License-Identifier: MIT\npragma solidity ^0.8.0;\n\nimport \"@openzeppelin/contracts/utils/Address.sol\";\nimport \"@openzeppelin/contracts/utils/Counters.sol\";\nimport \"@openzeppelin/contracts/utils/math/SafeMath.sol\";\nimport \"@openzeppelin/contracts/token/ERC721/IERC721Receiver.sol\";\nimport \"./Provable.sol\";\n\nabstract contract Ownable {\n  //  TODO's\n  //  1) create a private '_owner' variable of type address with a public getter function\n  //  2) create an internal constructor that sets the _owner var to the creater of the contract\n  //  3) create an 'onlyOwner' modifier that throws if called by any account other than the owner.\n  //  4) fill out the transferOwnership function\n  //  5) create an event that emits anytime ownerShip is transfered (including in the constructor)\n\n  address private _owner;\n\n  event OwnerChanged(address from, address to);\n\n  modifier onlyOwner() {\n    require(_owner == msg.sender, \"Only owner is allowed\");\n    _;\n  }\n  modifier requireValidAddress(address addr) {\n    require(addr != address(0), \"Must be a valid address\");\n    _;\n  }\n\n  constructor() {\n    _owner = msg.sender;\n\n    emit OwnerChanged(address(0), _owner);\n  }\n\n  function getContractOwner() external view returns (address) {\n    return _owner;\n  }\n\n  function transferOwnership(address newOwner) public onlyOwner requireValidAddress(newOwner) {\n    // TODO add functionality to transfer control of the contract to a newOwner.\n    // make sure the new owner is a real address\n    address oldOwner = _owner;\n    _owner = newOwner;\n\n    emit OwnerChanged(oldOwner, newOwner);\n  }\n}\n\n//  TODO's: Create a Pausable contract that inherits from the Ownable contract\n//  1) create a private '_paused' variable of type bool\n//  2) create a public setter using the inherited onlyOwner modifier\n//  3) create an internal constructor that sets the _paused variable to false\n//  4) create 'whenNotPaused' & 'paused' modifier that throws in the appropriate situation\n//  5) create a Paused & Unpaused event that emits the address that triggered the event\nabstract contract Pausable is Ownable {\n  bool _paused;\n\n  event Paused(address addr);\n  event Unpaused(address addr);\n\n  modifier withNotPaused() {\n    require(!_paused, \"Contract is not available now\");\n    _;\n  }\n\n  constructor() {\n    _paused = false;\n  }\n\n  function setPauseStatus(bool status) public onlyOwner {\n    _paused = status;\n\n    if (status) {\n      emit Paused(msg.sender);\n    } else {\n      emit Unpaused(msg.sender);\n    }\n  }\n}\n\nabstract contract ERC165 {\n  bytes4 private constant _INTERFACE_ID_ERC165 = 0x01ffc9a7;\n  /*\n   * 0x01ffc9a7 ===\n   *     bytes4(keccak256('supportsInterface(bytes4)'))\n   */\n\n  /**\n   * @dev a mapping of interface id to whether or not it's supported\n   */\n  mapping(bytes4 => bool) private _supportedInterfaces;\n\n  /**\n   * @dev A contract implementing SupportsInterfaceWithLookup\n   * implement ERC165 itself\n   */\n  constructor() {\n    _registerInterface(_INTERFACE_ID_ERC165);\n  }\n\n  /**\n   * @dev implement supportsInterface(bytes4) using a lookup table\n   */\n  function supportsInterface(bytes4 interfaceId) external view returns (bool) {\n    return _supportedInterfaces[interfaceId];\n  }\n\n  /**\n   * @dev internal method for registering an interface\n   */\n  function _registerInterface(bytes4 interfaceId) internal {\n    require(interfaceId != 0xffffffff);\n    _supportedInterfaces[interfaceId] = true;\n  }\n}\n\ncontract ERC721 is Pausable, ERC165 {\n  event Transfer(address indexed from, address indexed to, uint256 indexed tokenId);\n  event Approval(address indexed owner, address indexed approved, uint256 indexed tokenId);\n  event ApprovalForAll(address indexed owner, address indexed operator, bool approved);\n\n  using SafeMath for uint256;\n  using Address for address;\n  using Counters for Counters.Counter;\n\n  // Equals to `bytes4(keccak256(\"onERC721Received(address,address,uint256,bytes)\"))`\n  // which can be also obtained as `IERC721Receiver(0).onERC721Received.selector`\n  bytes4 private constant _ERC721_RECEIVED = 0x150b7a02;\n\n  // Mapping from token ID to owner\n  mapping(uint256 => address) private _tokenOwner;\n\n  // Mapping from token ID to approved address\n  mapping(uint256 => address) private _tokenApprovals;\n\n  // Mapping from owner to number of owned token\n  // IMPORTANT: this mapping uses Counters lib which is used to protect overflow when incrementing/decrementing a uint\n  // use the following functions when interacting with Counters: increment(), decrement(), and current() to get the value\n  // see: https://github.com/OpenZeppelin/@openzeppelin/blob/master/contracts/drafts/Counters.sol\n  mapping(address => Counters.Counter) private _ownedTokensCount;\n\n  // Mapping from owner to operator approvals\n  mapping(address => mapping(address => bool)) private _operatorApprovals;\n\n  bytes4 private constant _INTERFACE_ID_ERC721 = 0x80ac58cd;\n\n  constructor() {\n    // register the supported interfaces to conform to ERC721 via ERC165\n    _registerInterface(_INTERFACE_ID_ERC721);\n  }\n\n  function balanceOf(address owner) public view returns (uint256) {\n    // TODO return the token balance of given address\n    // TIP: remember the functions to use for Counters. you can refresh yourself with the link above\n    return _ownedTokensCount[owner].current();\n  }\n\n  function ownerOf(uint256 tokenId) public view returns (address) {\n    // TODO return the owner of the given tokenId\n    return _tokenOwner[tokenId];\n  }\n\n  //    @dev Approves another address to transfer the given token ID\n  function approve(address to, uint256 tokenId) public {\n    // TODO require the given address to not be the owner of the tokenId\n    address ownerOfToken = ownerOf(tokenId);\n    require(ownerOfToken != to, \"Given address should not be the owner of the token\");\n\n    // TODO require the msg sender to be the owner of the contract or isApprovedForAll() to be true\n    require(\n      msg.sender == ownerOfToken || isApprovedForAll(ownerOfToken, msg.sender),\n      \"Message sender must be the owner or has been approved by token owner\"\n    );\n\n    // TODO add 'to' address to token approvals\n    _tokenApprovals[tokenId] = to;\n\n    // TODO emit Approval Event\n    emit Approval(ownerOfToken, to, tokenId);\n  }\n\n  function getApproved(uint256 tokenId) public view returns (address) {\n    // TODO return token approval if it exists\n    return _tokenApprovals[tokenId];\n  }\n\n  /**\n   * @dev Sets or unsets the approval of a given operator\n   * An operator is allowed to transfer all tokens of the sender on their behalf\n   * @param to operator address to set the approval\n   * @param approved representing the status of the approval to be set\n   */\n  function setApprovalForAll(address to, bool approved) public {\n    require(to != msg.sender);\n    _operatorApprovals[msg.sender][to] = approved;\n    emit ApprovalForAll(msg.sender, to, approved);\n  }\n\n  /**\n   * @dev Tells whether an operator is approved by a given owner\n   * @param owner owner address which you want to query the approval of\n   * @param operator operator address which you want to query the approval of\n   * @return bool whether the given operator is approved by the given owner\n   */\n  function isApprovedForAll(address owner, address operator) public view returns (bool) {\n    return _operatorApprovals[owner][operator];\n  }\n\n  function transferFrom(\n    address from,\n    address to,\n    uint256 tokenId\n  ) public {\n    require(_isApprovedOrOwner(msg.sender, tokenId), \"permission is required to transfer tokenId\");\n\n    _transferFrom(from, to, tokenId);\n  }\n\n  function safeTransferFrom(\n    address from,\n    address to,\n    uint256 tokenId\n  ) public {\n    safeTransferFrom(from, to, tokenId, \"\");\n  }\n\n  function safeTransferFrom(\n    address from,\n    address to,\n    uint256 tokenId,\n    bytes memory _data\n  ) public {\n    transferFrom(from, to, tokenId);\n    require(_checkOnERC721Received(from, to, tokenId, _data));\n  }\n\n  /**\n   * @dev Returns whether the specified token exists\n   * @param tokenId uint256 ID of the token to query the existence of\n   * @return bool whether the token exists\n   */\n  function _exists(uint256 tokenId) internal view returns (bool) {\n    address owner = _tokenOwner[tokenId];\n    return owner != address(0);\n  }\n\n  /**\n   * @dev Returns whether the given spender can transfer a given token ID\n   * @param spender address of the spender to query\n   * @param tokenId uint256 ID of the token to be transferred\n   * @return bool whether the msg.sender is approved for the given token ID,\n   * is an operator of the owner, or is the owner of the token\n   */\n  function _isApprovedOrOwner(address spender, uint256 tokenId) internal view returns (bool) {\n    address owner = ownerOf(tokenId);\n    return (spender == owner ||\n      getApproved(tokenId) == spender ||\n      isApprovedForAll(owner, spender));\n  }\n\n  // @dev Internal function to mint a new token\n  // TIP: remember the functions to use for Counters. you can refresh yourself with the link above\n  function _mint(address to, uint256 tokenId) internal virtual requireValidAddress(to) {\n    // TODO revert if given tokenId already exists or given address is invalid\n    require(_tokenOwner[tokenId] == address(0), \"token is already exist\");\n\n    // TODO mint tokenId to given address & increase token count of owner\n    _tokenOwner[tokenId] = to;\n    _ownedTokensCount[to].increment();\n\n    // TODO emit Transfer event\n    emit Transfer(address(0), to, tokenId);\n  }\n\n  // @dev Internal function to transfer ownership of a given token ID to another address.\n  // TIP: remember the functions to use for Counters. you can refresh yourself with the link above\n  function _transferFrom(\n    address from,\n    address to,\n    uint256 tokenId\n  ) internal virtual requireValidAddress(to) {\n    // TODO: require from address is the owner of the given token\n    require(from == ownerOf(tokenId), \"From address is not the owner of the given token\");\n\n    // TODO: require token is being transfered to valid address\n    // by modifier\n\n    // TODO: clear approval\n    _clearApproval(tokenId);\n\n    // TODO: update token counts & transfer ownership of the token ID\n    _ownedTokensCount[from].decrement();\n    _ownedTokensCount[to].increment();\n    _tokenOwner[tokenId] = to;\n\n    // TODO: emit correct event\n    emit Transfer(from, to, tokenId);\n  }\n\n  /**\n   * @dev Internal function to invoke `onERC721Received` on a target address\n   * The call is not executed if the target address is not a contract\n   * @param from address representing the previous owner of the given token ID\n   * @param to target address that will receive the tokens\n   * @param tokenId uint256 ID of the token to be transferred\n   * @param _data bytes optional data to send along with the call\n   * @return bool whether the call correctly returned the expected magic value\n   */\n  function _checkOnERC721Received(\n    address from,\n    address to,\n    uint256 tokenId,\n    bytes memory _data\n  ) internal returns (bool) {\n    if (!to.isContract()) {\n      return true;\n    }\n\n    bytes4 retval = IERC721Receiver(to).onERC721Received(msg.sender, from, tokenId, _data);\n    return (retval == _ERC721_RECEIVED);\n  }\n\n  // @dev Private function to clear current approval of a given token ID\n  function _clearApproval(uint256 tokenId) private {\n    if (_tokenApprovals[tokenId] != address(0)) {\n      _tokenApprovals[tokenId] = address(0);\n    }\n  }\n}\n\ncontract ERC721Enumerable is ERC165, ERC721 {\n  using SafeMath for uint256;\n\n  // Mapping from owner to list of owned token IDs\n  mapping(address => uint256[]) private _ownedTokens;\n\n  // Mapping from token ID to index of the owner tokens list\n  mapping(uint256 => uint256) private _ownedTokensIndex;\n\n  // Array with all token ids, used for enumeration\n  uint256[] private _allTokens;\n\n  // Mapping from token id to position in the allTokens array\n  mapping(uint256 => uint256) private _allTokensIndex;\n\n  bytes4 private constant _INTERFACE_ID_ERC721_ENUMERABLE = 0x780e9d63;\n\n  /*\n   * 0x780e9d63 ===\n   *     bytes4(keccak256('totalSupply()')) ^\n   *     bytes4(keccak256('tokenOfOwnerByIndex(address,uint256)')) ^\n   *     bytes4(keccak256('tokenByIndex(uint256)'))\n   */\n\n  /**\n   * @dev Constructor function\n   */\n  constructor() {\n    // register the supported interface to conform to ERC721Enumerable via ERC165\n    _registerInterface(_INTERFACE_ID_ERC721_ENUMERABLE);\n  }\n\n  /**\n   * @dev Gets the token ID at a given index of the tokens list of the requested owner\n   * @param owner address owning the tokens list to be accessed\n   * @param index uint256 representing the index to be accessed of the requested tokens list\n   * @return uint256 token ID at the given index of the tokens list owned by the requested address\n   */\n  function tokenOfOwnerByIndex(address owner, uint256 index) public view returns (uint256) {\n    require(index < balanceOf(owner));\n    return _ownedTokens[owner][index];\n  }\n\n  /**\n   * @dev Gets the total amount of tokens stored by the contract\n   * @return uint256 representing the total amount of tokens\n   */\n  function totalSupply() public view returns (uint256) {\n    return _allTokens.length;\n  }\n\n  /**\n   * @dev Gets the token ID at a given index of all the tokens in this contract\n   * Reverts if the index is greater or equal to the total number of tokens\n   * @param index uint256 representing the index to be accessed of the tokens list\n   * @return uint256 token ID at the given index of the tokens list\n   */\n  function tokenByIndex(uint256 index) public view returns (uint256) {\n    require(index < totalSupply());\n    return _allTokens[index];\n  }\n\n  /**\n   * @dev Internal function to transfer ownership of a given token ID to another address.\n   * As opposed to transferFrom, this imposes no restrictions on msg.sender.\n   * @param from current owner of the token\n   * @param to address to receive the ownership of the given token ID\n   * @param tokenId uint256 ID of the token to be transferred\n   */\n  function _transferFrom(\n    address from,\n    address to,\n    uint256 tokenId\n  ) internal override {\n    super._transferFrom(from, to, tokenId);\n\n    _removeTokenFromOwnerEnumeration(from, tokenId);\n\n    _addTokenToOwnerEnumeration(to, tokenId);\n  }\n\n  /**\n   * @dev Internal function to mint a new token\n   * Reverts if the given token ID already exists\n   * @param to address the beneficiary that will own the minted token\n   * @param tokenId uint256 ID of the token to be minted\n   */\n  function _mint(address to, uint256 tokenId) internal override {\n    super._mint(to, tokenId);\n\n    _addTokenToOwnerEnumeration(to, tokenId);\n\n    _addTokenToAllTokensEnumeration(tokenId);\n  }\n\n  /**\n   * @dev Gets the list of token IDs of the requested owner\n   * @param owner address owning the tokens\n   * @return uint256[] List of token IDs owned by the requested address\n   */\n  function _tokensOfOwner(address owner) internal view returns (uint256[] storage) {\n    return _ownedTokens[owner];\n  }\n\n  /**\n   * @dev Private function to add a token to this extension's ownership-tracking data structures.\n   * @param to address representing the new owner of the given token ID\n   * @param tokenId uint256 ID of the token to be added to the tokens list of the given address\n   */\n  function _addTokenToOwnerEnumeration(address to, uint256 tokenId) private {\n    _ownedTokensIndex[tokenId] = _ownedTokens[to].length;\n    _ownedTokens[to].push(tokenId);\n  }\n\n  /**\n   * @dev Private function to add a token to this extension's token tracking data structures.\n   * @param tokenId uint256 ID of the token to be added to the tokens list\n   */\n  function _addTokenToAllTokensEnumeration(uint256 tokenId) private {\n    _allTokensIndex[tokenId] = _allTokens.length;\n    _allTokens.push(tokenId);\n  }\n\n  /**\n   * @dev Private function to remove a token from this extension's ownership-tracking data structures. Note that\n   * while the token is not assigned a new owner, the _ownedTokensIndex mapping is _not_ updated: this allows for\n   * gas optimizations e.g. when performing a transfer operation (avoiding double writes).\n   * This has O(1) time complexity, but alters the order of the _ownedTokens array.\n   * @param from address representing the previous owner of the given token ID\n   * @param tokenId uint256 ID of the token to be removed from the tokens list of the given address\n   */\n  function _removeTokenFromOwnerEnumeration(address from, uint256 tokenId) private {\n    // To prevent a gap in from's tokens array, we store the last token in the index of the token to delete, and\n    // then delete the last slot (swap and pop).\n\n    uint256 lastTokenIndex = _ownedTokens[from].length.sub(1);\n    uint256 tokenIndex = _ownedTokensIndex[tokenId];\n\n    // When the token to delete is the last token, the swap operation is unnecessary\n    if (tokenIndex != lastTokenIndex) {\n      uint256 lastTokenId = _ownedTokens[from][lastTokenIndex];\n\n      _ownedTokens[from][tokenIndex] = lastTokenId; // Move the last token to the slot of the to-delete token\n      _ownedTokensIndex[lastTokenId] = tokenIndex; // Update the moved token's index\n    }\n\n    // This also deletes the contents at the last position of the array\n    _ownedTokens[from].pop();\n\n    // Note that _ownedTokensIndex[tokenId] hasn't been cleared: it still points to the old slot (now occupied by\n    // lastTokenId, or just over the end of the array if the token was the last one).\n  }\n\n  /**\n   * @dev Private function to remove a token from this extension's token tracking data structures.\n   * This has O(1) time complexity, but alters the order of the _allTokens array.\n   * @param tokenId uint256 ID of the token to be removed from the tokens list\n   */\n  function _removeTokenFromAllTokensEnumeration(uint256 tokenId) private {\n    // To prevent a gap in the tokens array, we store the last token in the index of the token to delete, and\n    // then delete the last slot (swap and pop).\n\n    uint256 lastTokenIndex = _allTokens.length.sub(1);\n    uint256 tokenIndex = _allTokensIndex[tokenId];\n\n    // When the token to delete is the last token, the swap operation is unnecessary. However, since this occurs so\n    // rarely (when the last minted token is burnt) that we still do the swap here to avoid the gas cost of adding\n    // an 'if' statement (like in _removeTokenFromOwnerEnumeration)\n    uint256 lastTokenId = _allTokens[lastTokenIndex];\n\n    _allTokens[tokenIndex] = lastTokenId; // Move the last token to the slot of the to-delete token\n    _allTokensIndex[lastTokenId] = tokenIndex; // Update the moved token's index\n\n    // This also deletes the contents at the last position of the array\n    _allTokens.pop();\n    _allTokensIndex[tokenId] = 0;\n  }\n}\n\ncontract ERC721Metadata is ERC721Enumerable, usingProvable {\n  // TODO: Create private vars for token _name, _symbol, and _baseTokenURI (string)\n  string private _name;\n  string private _symbol;\n  string private _baseTokenURI;\n\n  // TODO: create private mapping of tokenId's to token uri's called '_tokenURIs'\n  mapping(uint256 => string) private _tokenURIs;\n\n  bytes4 private constant _INTERFACE_ID_ERC721_METADATA = 0x5b5e139f;\n\n  /*\n   * 0x5b5e139f ===\n   *     bytes4(keccak256('name()')) ^\n   *     bytes4(keccak256('symbol()')) ^\n   *     bytes4(keccak256('tokenURI(uint256)'))\n   */\n\n  constructor(\n    string memory c_name,\n    string memory c_symbol,\n    string memory c_baseTokenURI\n  ) {\n    // TODO: set instance var values\n    _name = c_name;\n    _symbol = c_symbol;\n    _baseTokenURI = c_baseTokenURI;\n\n    _registerInterface(_INTERFACE_ID_ERC721_METADATA);\n  }\n\n  // TODO: create external getter functions for name, symbol, and baseTokenURI\n  function name() external view returns (string memory) {\n    return _name;\n  }\n\n  function symbol() external view returns (string memory) {\n    return _symbol;\n  }\n\n  function baseTokenURI() external view returns (string memory) {\n    return _baseTokenURI;\n  }\n\n  function tokenURI(uint256 tokenId) external view returns (string memory) {\n    require(_exists(tokenId), \"token is not exist\");\n    return _tokenURIs[tokenId];\n  }\n\n  // TODO: Create an internal function to set the tokenURI of a specified tokenId\n  // It should be the _baseTokenURI + the tokenId in string form\n  // TIP #1: use strConcat() from the imported oraclizeAPI lib to set the complete token URI\n  // TIP #2: you can also use uint2str() to convert a uint to a string\n  // see https://github.com/oraclize/ethereum-api/blob/master/oraclizeAPI_0.5.sol for strConcat()\n  // require the token exists before setting\n  function _setTokenURI(uint256 tokenId) internal {\n    require(_exists(tokenId), \"tokenId is not exist\");\n\n    _tokenURIs[tokenId] = strConcat(_baseTokenURI, uint2str(tokenId));\n  }\n}\n\n//  TODO's: Create CustomERC721Token contract that inherits from the ERC721Metadata contract. You can name this contract as you please\n//  1) Pass in appropriate values for the inherited ERC721Metadata contract\n//      - make the base token uri: https://s3-us-west-2.amazonaws.com/udacity-blockchain/capstone/\n//  2) create a public mint() that does the following:\n//      -can only be executed by the contract owner\n//      -takes in a 'to' address, tokenId, and tokenURI as parameters\n//      -returns a true boolean upon completion of the function\n//      -calls the superclass mint and setTokenURI functions\ncontract ERC721TokenRealEstate is ERC721Metadata {\n  constructor()\n    ERC721Metadata(\n      \"ThunderMiracle-RealEstate\",\n      \"TM-RE\",\n      \"https://s3-us-west-2.amazonaws.com/udacity-blockchain/capstone/\"\n    )\n  {}\n\n  function mint(address to, uint256 tokenId) public onlyOwner returns (bool) {\n    super._mint(to, tokenId);\n    super._setTokenURI(tokenId);\n\n    return true;\n  }\n}\n",
  "sourcePath": "/Users/liufeng/Study/nd1309/5_capstone/eth-contracts/contracts/ERC721Mintable.sol",
  "compiler": {
    "name": "solc",
    "version": "0.8.0+commit.c7dfd78e.Emscripten.clang"
  },
  "schemaVersion": "3.4.3",
  "updatedAt": "2021-10-09T09:30:23.322Z",
  "networkType": "ethereum",
  "devdoc": {
    "kind": "dev",
    "methods": {
      "__callback(bytes32,string)": {
        "details": "The following `__callback` functions are just placeholders ideally      meant to be defined in child contract when proofs are used.      The function bodies simply silence compiler warnings."
      },
      "isApprovedForAll(address,address)": {
        "details": "Tells whether an operator is approved by a given owner",
        "params": {
          "operator": "operator address which you want to query the approval of",
          "owner": "owner address which you want to query the approval of"
        },
        "returns": {
          "_0": "bool whether the given operator is approved by the given owner"
        }
      },
      "setApprovalForAll(address,bool)": {
        "details": "Sets or unsets the approval of a given operator An operator is allowed to transfer all tokens of the sender on their behalf",
        "params": {
          "approved": "representing the status of the approval to be set",
          "to": "operator address to set the approval"
        }
      },
      "supportsInterface(bytes4)": {
        "details": "implement supportsInterface(bytes4) using a lookup table"
      },
      "tokenByIndex(uint256)": {
        "details": "Gets the token ID at a given index of all the tokens in this contract Reverts if the index is greater or equal to the total number of tokens",
        "params": {
          "index": "uint256 representing the index to be accessed of the tokens list"
        },
        "returns": {
          "_0": "uint256 token ID at the given index of the tokens list"
        }
      },
      "tokenOfOwnerByIndex(address,uint256)": {
        "details": "Gets the token ID at a given index of the tokens list of the requested owner",
        "params": {
          "index": "uint256 representing the index to be accessed of the requested tokens list",
          "owner": "address owning the tokens list to be accessed"
        },
        "returns": {
          "_0": "uint256 token ID at the given index of the tokens list owned by the requested address"
        }
      },
      "totalSupply()": {
        "details": "Gets the total amount of tokens stored by the contract",
        "returns": {
          "_0": "uint256 representing the total amount of tokens"
        }
      }
    },
    "version": 1
  },
  "userdoc": {
    "kind": "user",
    "methods": {},
    "version": 1
  }
}