{
  "contractName": "ERC721",
  "abi": [
    {
      "inputs": [],
      "stateMutability": "nonpayable",
      "type": "constructor"
    },
    {
      "anonymous": false,
      "inputs": [
        {
          "indexed": true,
          "internalType": "address",
          "name": "owner",
          "type": "address"
        },
        {
          "indexed": true,
          "internalType": "address",
          "name": "approved",
          "type": "address"
        },
        {
          "indexed": true,
          "internalType": "uint256",
          "name": "tokenId",
          "type": "uint256"
        }
      ],
      "name": "Approval",
      "type": "event"
    },
    {
      "anonymous": false,
      "inputs": [
        {
          "indexed": true,
          "internalType": "address",
          "name": "owner",
          "type": "address"
        },
        {
          "indexed": true,
          "internalType": "address",
          "name": "operator",
          "type": "address"
        },
        {
          "indexed": false,
          "internalType": "bool",
          "name": "approved",
          "type": "bool"
        }
      ],
      "name": "ApprovalForAll",
      "type": "event"
    },
    {
      "anonymous": false,
      "inputs": [
        {
          "indexed": false,
          "internalType": "address",
          "name": "from",
          "type": "address"
        },
        {
          "indexed": false,
          "internalType": "address",
          "name": "to",
          "type": "address"
        }
      ],
      "name": "OwnerChanged",
      "type": "event"
    },
    {
      "anonymous": false,
      "inputs": [
        {
          "indexed": false,
          "internalType": "address",
          "name": "addr",
          "type": "address"
        }
      ],
      "name": "Paused",
      "type": "event"
    },
    {
      "anonymous": false,
      "inputs": [
        {
          "indexed": true,
          "internalType": "address",
          "name": "from",
          "type": "address"
        },
        {
          "indexed": true,
          "internalType": "address",
          "name": "to",
          "type": "address"
        },
        {
          "indexed": true,
          "internalType": "uint256",
          "name": "tokenId",
          "type": "uint256"
        }
      ],
      "name": "Transfer",
      "type": "event"
    },
    {
      "anonymous": false,
      "inputs": [
        {
          "indexed": false,
          "internalType": "address",
          "name": "addr",
          "type": "address"
        }
      ],
      "name": "Unpaused",
      "type": "event"
    },
    {
      "inputs": [],
      "name": "getContractOwner",
      "outputs": [
        {
          "internalType": "address",
          "name": "",
          "type": "address"
        }
      ],
      "stateMutability": "view",
      "type": "function"
    },
    {
      "inputs": [
        {
          "internalType": "bool",
          "name": "status",
          "type": "bool"
        }
      ],
      "name": "setPauseStatus",
      "outputs": [],
      "stateMutability": "nonpayable",
      "type": "function"
    },
    {
      "inputs": [
        {
          "internalType": "bytes4",
          "name": "interfaceId",
          "type": "bytes4"
        }
      ],
      "name": "supportsInterface",
      "outputs": [
        {
          "internalType": "bool",
          "name": "",
          "type": "bool"
        }
      ],
      "stateMutability": "view",
      "type": "function"
    },
    {
      "inputs": [
        {
          "internalType": "address",
          "name": "newOwner",
          "type": "address"
        }
      ],
      "name": "transferOwnership",
      "outputs": [],
      "stateMutability": "nonpayable",
      "type": "function"
    },
    {
      "inputs": [
        {
          "internalType": "address",
          "name": "owner",
          "type": "address"
        }
      ],
      "name": "balanceOf",
      "outputs": [
        {
          "internalType": "uint256",
          "name": "",
          "type": "uint256"
        }
      ],
      "stateMutability": "view",
      "type": "function"
    },
    {
      "inputs": [
        {
          "internalType": "uint256",
          "name": "tokenId",
          "type": "uint256"
        }
      ],
      "name": "ownerOf",
      "outputs": [
        {
          "internalType": "address",
          "name": "",
          "type": "address"
        }
      ],
      "stateMutability": "view",
      "type": "function"
    },
    {
      "inputs": [
        {
          "internalType": "address",
          "name": "to",
          "type": "address"
        },
        {
          "internalType": "uint256",
          "name": "tokenId",
          "type": "uint256"
        }
      ],
      "name": "approve",
      "outputs": [],
      "stateMutability": "nonpayable",
      "type": "function"
    },
    {
      "inputs": [
        {
          "internalType": "uint256",
          "name": "tokenId",
          "type": "uint256"
        }
      ],
      "name": "getApproved",
      "outputs": [
        {
          "internalType": "address",
          "name": "",
          "type": "address"
        }
      ],
      "stateMutability": "view",
      "type": "function"
    },
    {
      "inputs": [
        {
          "internalType": "address",
          "name": "to",
          "type": "address"
        },
        {
          "internalType": "bool",
          "name": "approved",
          "type": "bool"
        }
      ],
      "name": "setApprovalForAll",
      "outputs": [],
      "stateMutability": "nonpayable",
      "type": "function"
    },
    {
      "inputs": [
        {
          "internalType": "address",
          "name": "owner",
          "type": "address"
        },
        {
          "internalType": "address",
          "name": "operator",
          "type": "address"
        }
      ],
      "name": "isApprovedForAll",
      "outputs": [
        {
          "internalType": "bool",
          "name": "",
          "type": "bool"
        }
      ],
      "stateMutability": "view",
      "type": "function"
    },
    {
      "inputs": [
        {
          "internalType": "address",
          "name": "from",
          "type": "address"
        },
        {
          "internalType": "address",
          "name": "to",
          "type": "address"
        },
        {
          "internalType": "uint256",
          "name": "tokenId",
          "type": "uint256"
        }
      ],
      "name": "transferFrom",
      "outputs": [],
      "stateMutability": "nonpayable",
      "type": "function"
    },
    {
      "inputs": [
        {
          "internalType": "address",
          "name": "from",
          "type": "address"
        },
        {
          "internalType": "address",
          "name": "to",
          "type": "address"
        },
        {
          "internalType": "uint256",
          "name": "tokenId",
          "type": "uint256"
        }
      ],
      "name": "safeTransferFrom",
      "outputs": [],
      "stateMutability": "nonpayable",
      "type": "function"
    },
    {
      "inputs": [
        {
          "internalType": "address",
          "name": "from",
          "type": "address"
        },
        {
          "internalType": "address",
          "name": "to",
          "type": "address"
        },
        {
          "internalType": "uint256",
          "name": "tokenId",
          "type": "uint256"
        },
        {
          "internalType": "bytes",
          "name": "_data",
          "type": "bytes"
        }
      ],
      "name": "safeTransferFrom",
      "outputs": [],
      "stateMutability": "nonpayable",
      "type": "function"
    }
  ],
  "bytecode": "0x60806040523480156200001157600080fd5b50336000806101000a81548173ffffffffffffffffffffffffffffffffffffffff021916908373ffffffffffffffffffffffffffffffffffffffff1602179055507fb532073b38c83145e3e5135377a08bf9aab55bc0fd7c1179cd4fb995d2a5159c60008060009054906101000a900473ffffffffffffffffffffffffffffffffffffffff16604051620000a792919062000216565b60405180910390a160008060146101000a81548160ff021916908315150217905550620001066301ffc9a77c01000000000000000000000000000000000000000000000000000000000262000149640100000000026401000000009004565b620001436380ac58cd7c01000000000000000000000000000000000000000000000000000000000262000149640100000000026401000000009004565b62000277565b63ffffffff7c010000000000000000000000000000000000000000000000000000000002817bffffffffffffffffffffffffffffffffffffffffffffffffffffffff191614156200019957600080fd5b6001806000837bffffffffffffffffffffffffffffffffffffffffffffffffffffffff19167bffffffffffffffffffffffffffffffffffffffffffffffffffffffff1916815260200190815260200160002060006101000a81548160ff02191690831515021790555050565b620002108162000243565b82525050565b60006040820190506200022d600083018562000205565b6200023c602083018462000205565b9392505050565b6000620002508262000257565b9050919050565b600073ffffffffffffffffffffffffffffffffffffffff82169050919050565b611a1e80620002876000396000f3fe608060405234801561001057600080fd5b50600436106100ec576000357c0100000000000000000000000000000000000000000000000000000000900480636352211e116100a9578063b88d4fde11610083578063b88d4fde1461023f578063c38bb5371461025b578063e985e9c514610277578063f2fde38b146102a7576100ec565b80636352211e146101c357806370a08231146101f3578063a22cb46514610223576100ec565b806301ffc9a7146100f1578063081812fc14610121578063095ea7b31461015157806323b872dd1461016d57806342842e0e14610189578063442890d5146101a5575b600080fd5b61010b60048036038101906101069190611303565b6102c3565b60405161011891906116f2565b60405180910390f35b61013b60048036038101906101369190611355565b61032b565b6040516101489190611662565b60405180910390f35b61016b6004803603810190610166919061129e565b610368565b005b61018760048036038101906101829190611198565b610515565b005b6101a3600480360381019061019e9190611198565b61056e565b005b6101ad61058e565b6040516101ba9190611662565b60405180910390f35b6101dd60048036038101906101d89190611355565b6105b7565b6040516101ea9190611662565b60405180910390f35b61020d60048036038101906102089190611133565b6105f4565b60405161021a91906117ed565b60405180910390f35b61023d60048036038101906102389190611262565b610644565b005b610259600480360381019061025491906111e7565b61077a565b005b610275600480360381019061027091906112da565b6107a0565b005b610291600480360381019061028c919061115c565b6108c5565b60405161029e91906116f2565b60405180910390f35b6102c160048036038101906102bc9190611133565b610959565b005b600060016000837bffffffffffffffffffffffffffffffffffffffffffffffffffffffff19167bffffffffffffffffffffffffffffffffffffffffffffffffffffffff1916815260200190815260200160002060009054906101000a900460ff169050919050565b60006003600083815260200190815260200160002060009054906101000a900473ffffffffffffffffffffffffffffffffffffffff169050919050565b6000610373826105b7565b90508273ffffffffffffffffffffffffffffffffffffffff168173ffffffffffffffffffffffffffffffffffffffff1614156103e4576040517f08c379a00000000000000000000000000000000000000000000000000000000081526004016103db906117ad565b60405180910390fd5b8073ffffffffffffffffffffffffffffffffffffffff163373ffffffffffffffffffffffffffffffffffffffff161480610424575061042381336108c5565b5b610463576040517f08c379a000000000000000000000000000000000000000000000000000000000815260040161045a9061176d565b60405180910390fd5b826003600084815260200190815260200160002060006101000a81548173ffffffffffffffffffffffffffffffffffffffff021916908373ffffffffffffffffffffffffffffffffffffffff160217905550818373ffffffffffffffffffffffffffffffffffffffff168273ffffffffffffffffffffffffffffffffffffffff167f8c5be1e5ebec7d5bd14f71427d1e84f3dd0314c0f7b2291e5b200ac8c7c3b92560405160405180910390a4505050565b61051f3382610afc565b61055e576040517f08c379a00000000000000000000000000000000000000000000000000000000081526004016105559061170d565b60405180910390fd5b610569838383610b91565b505050565b6105898383836040518060200160405280600081525061077a565b505050565b60008060009054906101000a900473ffffffffffffffffffffffffffffffffffffffff16905090565b60006002600083815260200190815260200160002060009054906101000a900473ffffffffffffffffffffffffffffffffffffffff169050919050565b600061063d600460008473ffffffffffffffffffffffffffffffffffffffff1673ffffffffffffffffffffffffffffffffffffffff168152602001908152602001600020610dc2565b9050919050565b3373ffffffffffffffffffffffffffffffffffffffff168273ffffffffffffffffffffffffffffffffffffffff16141561067d57600080fd5b80600560003373ffffffffffffffffffffffffffffffffffffffff1673ffffffffffffffffffffffffffffffffffffffff16815260200190815260200160002060008473ffffffffffffffffffffffffffffffffffffffff1673ffffffffffffffffffffffffffffffffffffffff16815260200190815260200160002060006101000a81548160ff0219169083151502179055508173ffffffffffffffffffffffffffffffffffffffff163373ffffffffffffffffffffffffffffffffffffffff167f17307eab39ab6107e8899845ad3d59bd9653f200f220920489ca2b5937696c318360405161076e91906116f2565b60405180910390a35050565b610785848484610515565b61079184848484610dd0565b61079a57600080fd5b50505050565b3373ffffffffffffffffffffffffffffffffffffffff1660008054906101000a900473ffffffffffffffffffffffffffffffffffffffff1673ffffffffffffffffffffffffffffffffffffffff161461082e576040517f08c379a0000000000000000000000000000000000000000000000000000000008152600401610825906117cd565b60405180910390fd5b80600060146101000a81548160ff021916908315150217905550801561088a577f62e78cea01bee320cd4e420270b5ea74000d11b0c9f74754ebdbfc544b05a2583360405161087d9190611662565b60405180910390a16108c2565b7f5db9ee0a495bf2e6ff9c91a7834c1ba4fdd244a5e8aa4e537bd38aeae4b073aa336040516108b99190611662565b60405180910390a15b50565b6000600560008473ffffffffffffffffffffffffffffffffffffffff1673ffffffffffffffffffffffffffffffffffffffff16815260200190815260200160002060008373ffffffffffffffffffffffffffffffffffffffff1673ffffffffffffffffffffffffffffffffffffffff16815260200190815260200160002060009054906101000a900460ff16905092915050565b3373ffffffffffffffffffffffffffffffffffffffff1660008054906101000a900473ffffffffffffffffffffffffffffffffffffffff1673ffffffffffffffffffffffffffffffffffffffff16146109e7576040517f08c379a00000000000000000000000000000000000000000000000000000000081526004016109de906117cd565b60405180910390fd5b80600073ffffffffffffffffffffffffffffffffffffffff168173ffffffffffffffffffffffffffffffffffffffff161415610a58576040517f08c379a0000000000000000000000000000000000000000000000000000000008152600401610a4f9061178d565b60405180910390fd5b60008060009054906101000a900473ffffffffffffffffffffffffffffffffffffffff169050826000806101000a81548173ffffffffffffffffffffffffffffffffffffffff021916908373ffffffffffffffffffffffffffffffffffffffff1602179055507fb532073b38c83145e3e5135377a08bf9aab55bc0fd7c1179cd4fb995d2a5159c8184604051610aef92919061167d565b60405180910390a1505050565b600080610b08836105b7565b90508073ffffffffffffffffffffffffffffffffffffffff168473ffffffffffffffffffffffffffffffffffffffff161480610b7757508373ffffffffffffffffffffffffffffffffffffffff16610b5f8461032b565b73ffffffffffffffffffffffffffffffffffffffff16145b80610b885750610b8781856108c5565b5b91505092915050565b81600073ffffffffffffffffffffffffffffffffffffffff168173ffffffffffffffffffffffffffffffffffffffff161415610c02576040517f08c379a0000000000000000000000000000000000000000000000000000000008152600401610bf99061178d565b60405180910390fd5b610c0b826105b7565b73ffffffffffffffffffffffffffffffffffffffff168473ffffffffffffffffffffffffffffffffffffffff1614610c78576040517f08c379a0000000000000000000000000000000000000000000000000000000008152600401610c6f9061172d565b60405180910390fd5b610c8182610f1f565b610cc8600460008673ffffffffffffffffffffffffffffffffffffffff1673ffffffffffffffffffffffffffffffffffffffff168152602001908152602001600020610fdd565b610d0f600460008573ffffffffffffffffffffffffffffffffffffffff1673ffffffffffffffffffffffffffffffffffffffff168152602001908152602001600020611039565b826002600084815260200190815260200160002060006101000a81548173ffffffffffffffffffffffffffffffffffffffff021916908373ffffffffffffffffffffffffffffffffffffffff160217905550818373ffffffffffffffffffffffffffffffffffffffff168573ffffffffffffffffffffffffffffffffffffffff167fddf252ad1be2c89b69c2b068fc378daa952ba7f163c4a11628f55a4df523b3ef60405160405180910390a450505050565b600081600001549050919050565b6000610df18473ffffffffffffffffffffffffffffffffffffffff1661104f565b610dfe5760019050610f17565b60008473ffffffffffffffffffffffffffffffffffffffff1663150b7a02338887876040518563ffffffff167c0100000000000000000000000000000000000000000000000000000000028152600401610e5b94939291906116a6565b602060405180830381600087803b158015610e7557600080fd5b505af1158015610e89573d6000803e3d6000fd5b505050506040513d601f19601f82011682018060405250810190610ead919061132c565b905063150b7a027c0100000000000000000000000000000000000000000000000000000000027bffffffffffffffffffffffffffffffffffffffffffffffffffffffff1916817bffffffffffffffffffffffffffffffffffffffffffffffffffffffff1916149150505b949350505050565b600073ffffffffffffffffffffffffffffffffffffffff166003600083815260200190815260200160002060009054906101000a900473ffffffffffffffffffffffffffffffffffffffff1673ffffffffffffffffffffffffffffffffffffffff1614610fda5760006003600083815260200190815260200160002060006101000a81548173ffffffffffffffffffffffffffffffffffffffff021916908373ffffffffffffffffffffffffffffffffffffffff1602179055505b50565b60008160000154905060008111611029576040517f08c379a00000000000000000000000000000000000000000000000000000000081526004016110209061174d565b60405180910390fd5b6001810382600001819055505050565b6001816000016000828254019250508190555050565b600080823b905060008111915050919050565b600061107561107084611839565b611808565b90508281526020810184848401111561108d57600080fd5b61109884828561190a565b509392505050565b6000813590506110af8161198c565b92915050565b6000813590506110c4816119a3565b92915050565b6000813590506110d9816119ba565b92915050565b6000815190506110ee816119ba565b92915050565b600082601f83011261110557600080fd5b8135611115848260208601611062565b91505092915050565b60008135905061112d816119d1565b92915050565b60006020828403121561114557600080fd5b6000611153848285016110a0565b91505092915050565b6000806040838503121561116f57600080fd5b600061117d858286016110a0565b925050602061118e858286016110a0565b9150509250929050565b6000806000606084860312156111ad57600080fd5b60006111bb868287016110a0565b93505060206111cc868287016110a0565b92505060406111dd8682870161111e565b9150509250925092565b600080600080608085870312156111fd57600080fd5b600061120b878288016110a0565b945050602061121c878288016110a0565b935050604061122d8782880161111e565b925050606085013567ffffffffffffffff81111561124a57600080fd5b611256878288016110f4565b91505092959194509250565b6000806040838503121561127557600080fd5b6000611283858286016110a0565b9250506020611294858286016110b5565b9150509250929050565b600080604083850312156112b157600080fd5b60006112bf858286016110a0565b92505060206112d08582860161111e565b9150509250929050565b6000602082840312156112ec57600080fd5b60006112fa848285016110b5565b91505092915050565b60006020828403121561131557600080fd5b6000611323848285016110ca565b91505092915050565b60006020828403121561133e57600080fd5b600061134c848285016110df565b91505092915050565b60006020828403121561136757600080fd5b60006113758482850161111e565b91505092915050565b61138781611896565b82525050565b611396816118a8565b82525050565b60006113a782611869565b6113b18185611874565b93506113c1818560208601611919565b6113ca8161197b565b840191505092915050565b60006113e2602a83611885565b91507f7065726d697373696f6e20697320726571756972656420746f207472616e736660008301527f657220746f6b656e4964000000000000000000000000000000000000000000006020830152604082019050919050565b6000611448603083611885565b91507f46726f6d2061646472657373206973206e6f7420746865206f776e6572206f6660008301527f2074686520676976656e20746f6b656e000000000000000000000000000000006020830152604082019050919050565b60006114ae601b83611885565b91507f436f756e7465723a2064656372656d656e74206f766572666c6f7700000000006000830152602082019050919050565b60006114ee604483611885565b91507f4d6573736167652073656e646572206d75737420626520746865206f776e657260008301527f206f7220686173206265656e20617070726f76656420627920746f6b656e206f60208301527f776e6572000000000000000000000000000000000000000000000000000000006040830152606082019050919050565b600061157a601783611885565b91507f4d75737420626520612076616c696420616464726573730000000000000000006000830152602082019050919050565b60006115ba603283611885565b91507f476976656e20616464726573732073686f756c64206e6f74206265207468652060008301527f6f776e6572206f662074686520746f6b656e00000000000000000000000000006020830152604082019050919050565b6000611620601583611885565b91507f4f6e6c79206f776e657220697320616c6c6f77656400000000000000000000006000830152602082019050919050565b61165c81611900565b82525050565b6000602082019050611677600083018461137e565b92915050565b6000604082019050611692600083018561137e565b61169f602083018461137e565b9392505050565b60006080820190506116bb600083018761137e565b6116c8602083018661137e565b6116d56040830185611653565b81810360608301526116e7818461139c565b905095945050505050565b6000602082019050611707600083018461138d565b92915050565b60006020820190508181036000830152611726816113d5565b9050919050565b600060208201905081810360008301526117468161143b565b9050919050565b60006020820190508181036000830152611766816114a1565b9050919050565b60006020820190508181036000830152611786816114e1565b9050919050565b600060208201905081810360008301526117a68161156d565b9050919050565b600060208201905081810360008301526117c6816115ad565b9050919050565b600060208201905081810360008301526117e681611613565b9050919050565b60006020820190506118026000830184611653565b92915050565b6000604051905081810181811067ffffffffffffffff8211171561182f5761182e61194c565b5b8060405250919050565b600067ffffffffffffffff8211156118545761185361194c565b5b601f19601f8301169050602081019050919050565b600081519050919050565b600082825260208201905092915050565b600082825260208201905092915050565b60006118a1826118e0565b9050919050565b60008115159050919050565b60007fffffffff0000000000000000000000000000000000000000000000000000000082169050919050565b600073ffffffffffffffffffffffffffffffffffffffff82169050919050565b6000819050919050565b82818337600083830152505050565b60005b8381101561193757808201518184015260208101905061191c565b83811115611946576000848401525b50505050565b7f4e487b7100000000000000000000000000000000000000000000000000000000600052604160045260246000fd5b6000601f19601f8301169050919050565b61199581611896565b81146119a057600080fd5b50565b6119ac816118a8565b81146119b757600080fd5b50565b6119c3816118b4565b81146119ce57600080fd5b50565b6119da81611900565b81146119e557600080fd5b5056fea26469706673582212204c2905f96b513e039b1971f5991c8885a8b2d1d857a339079f15a8f30dee163b64736f6c63430008000033",
  "immutableReferences": {},
  "source": "// SPDX-License-Identifier: MIT\npragma solidity ^0.8.0;\n\nimport \"@openzeppelin/contracts/utils/Address.sol\";\nimport \"@openzeppelin/contracts/utils/Counters.sol\";\nimport \"@openzeppelin/contracts/utils/math/SafeMath.sol\";\nimport \"@openzeppelin/contracts/token/ERC721/IERC721Receiver.sol\";\nimport \"./Provable.sol\";\n\nabstract contract Ownable {\n  //  TODO's\n  //  1) create a private '_owner' variable of type address with a public getter function\n  //  2) create an internal constructor that sets the _owner var to the creater of the contract\n  //  3) create an 'onlyOwner' modifier that throws if called by any account other than the owner.\n  //  4) fill out the transferOwnership function\n  //  5) create an event that emits anytime ownerShip is transfered (including in the constructor)\n\n  address private _owner;\n\n  event OwnerChanged(address from, address to);\n\n  modifier onlyOwner() {\n    require(_owner == msg.sender, \"Only owner is allowed\");\n    _;\n  }\n  modifier requireValidAddress(address addr) {\n    require(addr != address(0), \"Must be a valid address\");\n    _;\n  }\n\n  constructor() {\n    _owner = msg.sender;\n\n    emit OwnerChanged(address(0), _owner);\n  }\n\n  function getContractOwner() external view returns (address) {\n    return _owner;\n  }\n\n  function transferOwnership(address newOwner) public onlyOwner requireValidAddress(newOwner) {\n    // TODO add functionality to transfer control of the contract to a newOwner.\n    // make sure the new owner is a real address\n    address oldOwner = _owner;\n    _owner = newOwner;\n\n    emit OwnerChanged(oldOwner, newOwner);\n  }\n}\n\n//  TODO's: Create a Pausable contract that inherits from the Ownable contract\n//  1) create a private '_paused' variable of type bool\n//  2) create a public setter using the inherited onlyOwner modifier\n//  3) create an internal constructor that sets the _paused variable to false\n//  4) create 'whenNotPaused' & 'paused' modifier that throws in the appropriate situation\n//  5) create a Paused & Unpaused event that emits the address that triggered the event\nabstract contract Pausable is Ownable {\n  bool _paused;\n\n  event Paused(address addr);\n  event Unpaused(address addr);\n\n  modifier withNotPaused() {\n    require(!_paused, \"Contract is not available now\");\n    _;\n  }\n\n  constructor() {\n    _paused = false;\n  }\n\n  function setPauseStatus(bool status) public onlyOwner {\n    _paused = status;\n\n    if (status) {\n      emit Paused(msg.sender);\n    } else {\n      emit Unpaused(msg.sender);\n    }\n  }\n}\n\nabstract contract ERC165 {\n  bytes4 private constant _INTERFACE_ID_ERC165 = 0x01ffc9a7;\n  /*\n   * 0x01ffc9a7 ===\n   *     bytes4(keccak256('supportsInterface(bytes4)'))\n   */\n\n  /**\n   * @dev a mapping of interface id to whether or not it's supported\n   */\n  mapping(bytes4 => bool) private _supportedInterfaces;\n\n  /**\n   * @dev A contract implementing SupportsInterfaceWithLookup\n   * implement ERC165 itself\n   */\n  constructor() {\n    _registerInterface(_INTERFACE_ID_ERC165);\n  }\n\n  /**\n   * @dev implement supportsInterface(bytes4) using a lookup table\n   */\n  function supportsInterface(bytes4 interfaceId) external view returns (bool) {\n    return _supportedInterfaces[interfaceId];\n  }\n\n  /**\n   * @dev internal method for registering an interface\n   */\n  function _registerInterface(bytes4 interfaceId) internal {\n    require(interfaceId != 0xffffffff);\n    _supportedInterfaces[interfaceId] = true;\n  }\n}\n\ncontract ERC721 is Pausable, ERC165 {\n  event Transfer(address indexed from, address indexed to, uint256 indexed tokenId);\n  event Approval(address indexed owner, address indexed approved, uint256 indexed tokenId);\n  event ApprovalForAll(address indexed owner, address indexed operator, bool approved);\n\n  using SafeMath for uint256;\n  using Address for address;\n  using Counters for Counters.Counter;\n\n  // Equals to `bytes4(keccak256(\"onERC721Received(address,address,uint256,bytes)\"))`\n  // which can be also obtained as `IERC721Receiver(0).onERC721Received.selector`\n  bytes4 private constant _ERC721_RECEIVED = 0x150b7a02;\n\n  // Mapping from token ID to owner\n  mapping(uint256 => address) private _tokenOwner;\n\n  // Mapping from token ID to approved address\n  mapping(uint256 => address) private _tokenApprovals;\n\n  // Mapping from owner to number of owned token\n  // IMPORTANT: this mapping uses Counters lib which is used to protect overflow when incrementing/decrementing a uint\n  // use the following functions when interacting with Counters: increment(), decrement(), and current() to get the value\n  // see: https://github.com/OpenZeppelin/@openzeppelin/blob/master/contracts/drafts/Counters.sol\n  mapping(address => Counters.Counter) private _ownedTokensCount;\n\n  // Mapping from owner to operator approvals\n  mapping(address => mapping(address => bool)) private _operatorApprovals;\n\n  bytes4 private constant _INTERFACE_ID_ERC721 = 0x80ac58cd;\n\n  constructor() {\n    // register the supported interfaces to conform to ERC721 via ERC165\n    _registerInterface(_INTERFACE_ID_ERC721);\n  }\n\n  function balanceOf(address owner) public view returns (uint256) {\n    // TODO return the token balance of given address\n    // TIP: remember the functions to use for Counters. you can refresh yourself with the link above\n    return _ownedTokensCount[owner].current();\n  }\n\n  function ownerOf(uint256 tokenId) public view returns (address) {\n    // TODO return the owner of the given tokenId\n    return _tokenOwner[tokenId];\n  }\n\n  //    @dev Approves another address to transfer the given token ID\n  function approve(address to, uint256 tokenId) public {\n    // TODO require the given address to not be the owner of the tokenId\n    address ownerOfToken = ownerOf(tokenId);\n    require(ownerOfToken != to, \"Given address should not be the owner of the token\");\n\n    // TODO require the msg sender to be the owner of the contract or isApprovedForAll() to be true\n    require(\n      msg.sender == ownerOfToken || isApprovedForAll(ownerOfToken, msg.sender),\n      \"Message sender must be the owner or has been approved by token owner\"\n    );\n\n    // TODO add 'to' address to token approvals\n    _tokenApprovals[tokenId] = to;\n\n    // TODO emit Approval Event\n    emit Approval(ownerOfToken, to, tokenId);\n  }\n\n  function getApproved(uint256 tokenId) public view returns (address) {\n    // TODO return token approval if it exists\n    return _tokenApprovals[tokenId];\n  }\n\n  /**\n   * @dev Sets or unsets the approval of a given operator\n   * An operator is allowed to transfer all tokens of the sender on their behalf\n   * @param to operator address to set the approval\n   * @param approved representing the status of the approval to be set\n   */\n  function setApprovalForAll(address to, bool approved) public {\n    require(to != msg.sender);\n    _operatorApprovals[msg.sender][to] = approved;\n    emit ApprovalForAll(msg.sender, to, approved);\n  }\n\n  /**\n   * @dev Tells whether an operator is approved by a given owner\n   * @param owner owner address which you want to query the approval of\n   * @param operator operator address which you want to query the approval of\n   * @return bool whether the given operator is approved by the given owner\n   */\n  function isApprovedForAll(address owner, address operator) public view returns (bool) {\n    return _operatorApprovals[owner][operator];\n  }\n\n  function transferFrom(\n    address from,\n    address to,\n    uint256 tokenId\n  ) public {\n    require(_isApprovedOrOwner(msg.sender, tokenId), \"permission is required to transfer tokenId\");\n\n    _transferFrom(from, to, tokenId);\n  }\n\n  function safeTransferFrom(\n    address from,\n    address to,\n    uint256 tokenId\n  ) public {\n    safeTransferFrom(from, to, tokenId, \"\");\n  }\n\n  function safeTransferFrom(\n    address from,\n    address to,\n    uint256 tokenId,\n    bytes memory _data\n  ) public {\n    transferFrom(from, to, tokenId);\n    require(_checkOnERC721Received(from, to, tokenId, _data));\n  }\n\n  /**\n   * @dev Returns whether the specified token exists\n   * @param tokenId uint256 ID of the token to query the existence of\n   * @return bool whether the token exists\n   */\n  function _exists(uint256 tokenId) internal view returns (bool) {\n    address owner = _tokenOwner[tokenId];\n    return owner != address(0);\n  }\n\n  /**\n   * @dev Returns whether the given spender can transfer a given token ID\n   * @param spender address of the spender to query\n   * @param tokenId uint256 ID of the token to be transferred\n   * @return bool whether the msg.sender is approved for the given token ID,\n   * is an operator of the owner, or is the owner of the token\n   */\n  function _isApprovedOrOwner(address spender, uint256 tokenId) internal view returns (bool) {\n    address owner = ownerOf(tokenId);\n    return (spender == owner ||\n      getApproved(tokenId) == spender ||\n      isApprovedForAll(owner, spender));\n  }\n\n  // @dev Internal function to mint a new token\n  // TIP: remember the functions to use for Counters. you can refresh yourself with the link above\n  function _mint(address to, uint256 tokenId) internal virtual requireValidAddress(to) {\n    // TODO revert if given tokenId already exists or given address is invalid\n    require(_tokenOwner[tokenId] == address(0), \"token is already exist\");\n\n    // TODO mint tokenId to given address & increase token count of owner\n    _tokenOwner[tokenId] = to;\n    _ownedTokensCount[to].increment();\n\n    // TODO emit Transfer event\n    emit Transfer(address(0), to, tokenId);\n  }\n\n  // @dev Internal function to transfer ownership of a given token ID to another address.\n  // TIP: remember the functions to use for Counters. you can refresh yourself with the link above\n  function _transferFrom(\n    address from,\n    address to,\n    uint256 tokenId\n  ) internal virtual requireValidAddress(to) {\n    // TODO: require from address is the owner of the given token\n    require(from == ownerOf(tokenId), \"From address is not the owner of the given token\");\n\n    // TODO: require token is being transfered to valid address\n    // by modifier\n\n    // TODO: clear approval\n    _clearApproval(tokenId);\n\n    // TODO: update token counts & transfer ownership of the token ID\n    _ownedTokensCount[from].decrement();\n    _ownedTokensCount[to].increment();\n    _tokenOwner[tokenId] = to;\n\n    // TODO: emit correct event\n    emit Transfer(from, to, tokenId);\n  }\n\n  /**\n   * @dev Internal function to invoke `onERC721Received` on a target address\n   * The call is not executed if the target address is not a contract\n   * @param from address representing the previous owner of the given token ID\n   * @param to target address that will receive the tokens\n   * @param tokenId uint256 ID of the token to be transferred\n   * @param _data bytes optional data to send along with the call\n   * @return bool whether the call correctly returned the expected magic value\n   */\n  function _checkOnERC721Received(\n    address from,\n    address to,\n    uint256 tokenId,\n    bytes memory _data\n  ) internal returns (bool) {\n    if (!to.isContract()) {\n      return true;\n    }\n\n    bytes4 retval = IERC721Receiver(to).onERC721Received(msg.sender, from, tokenId, _data);\n    return (retval == _ERC721_RECEIVED);\n  }\n\n  // @dev Private function to clear current approval of a given token ID\n  function _clearApproval(uint256 tokenId) private {\n    if (_tokenApprovals[tokenId] != address(0)) {\n      _tokenApprovals[tokenId] = address(0);\n    }\n  }\n}\n\ncontract ERC721Enumerable is ERC165, ERC721 {\n  using SafeMath for uint256;\n\n  // Mapping from owner to list of owned token IDs\n  mapping(address => uint256[]) private _ownedTokens;\n\n  // Mapping from token ID to index of the owner tokens list\n  mapping(uint256 => uint256) private _ownedTokensIndex;\n\n  // Array with all token ids, used for enumeration\n  uint256[] private _allTokens;\n\n  // Mapping from token id to position in the allTokens array\n  mapping(uint256 => uint256) private _allTokensIndex;\n\n  bytes4 private constant _INTERFACE_ID_ERC721_ENUMERABLE = 0x780e9d63;\n\n  /*\n   * 0x780e9d63 ===\n   *     bytes4(keccak256('totalSupply()')) ^\n   *     bytes4(keccak256('tokenOfOwnerByIndex(address,uint256)')) ^\n   *     bytes4(keccak256('tokenByIndex(uint256)'))\n   */\n\n  /**\n   * @dev Constructor function\n   */\n  constructor() {\n    // register the supported interface to conform to ERC721Enumerable via ERC165\n    _registerInterface(_INTERFACE_ID_ERC721_ENUMERABLE);\n  }\n\n  /**\n   * @dev Gets the token ID at a given index of the tokens list of the requested owner\n   * @param owner address owning the tokens list to be accessed\n   * @param index uint256 representing the index to be accessed of the requested tokens list\n   * @return uint256 token ID at the given index of the tokens list owned by the requested address\n   */\n  function tokenOfOwnerByIndex(address owner, uint256 index) public view returns (uint256) {\n    require(index < balanceOf(owner));\n    return _ownedTokens[owner][index];\n  }\n\n  /**\n   * @dev Gets the total amount of tokens stored by the contract\n   * @return uint256 representing the total amount of tokens\n   */\n  function totalSupply() public view returns (uint256) {\n    return _allTokens.length;\n  }\n\n  /**\n   * @dev Gets the token ID at a given index of all the tokens in this contract\n   * Reverts if the index is greater or equal to the total number of tokens\n   * @param index uint256 representing the index to be accessed of the tokens list\n   * @return uint256 token ID at the given index of the tokens list\n   */\n  function tokenByIndex(uint256 index) public view returns (uint256) {\n    require(index < totalSupply());\n    return _allTokens[index];\n  }\n\n  /**\n   * @dev Internal function to transfer ownership of a given token ID to another address.\n   * As opposed to transferFrom, this imposes no restrictions on msg.sender.\n   * @param from current owner of the token\n   * @param to address to receive the ownership of the given token ID\n   * @param tokenId uint256 ID of the token to be transferred\n   */\n  function _transferFrom(\n    address from,\n    address to,\n    uint256 tokenId\n  ) internal override {\n    super._transferFrom(from, to, tokenId);\n\n    _removeTokenFromOwnerEnumeration(from, tokenId);\n\n    _addTokenToOwnerEnumeration(to, tokenId);\n  }\n\n  /**\n   * @dev Internal function to mint a new token\n   * Reverts if the given token ID already exists\n   * @param to address the beneficiary that will own the minted token\n   * @param tokenId uint256 ID of the token to be minted\n   */\n  function _mint(address to, uint256 tokenId) internal override {\n    super._mint(to, tokenId);\n\n    _addTokenToOwnerEnumeration(to, tokenId);\n\n    _addTokenToAllTokensEnumeration(tokenId);\n  }\n\n  /**\n   * @dev Gets the list of token IDs of the requested owner\n   * @param owner address owning the tokens\n   * @return uint256[] List of token IDs owned by the requested address\n   */\n  function _tokensOfOwner(address owner) internal view returns (uint256[] storage) {\n    return _ownedTokens[owner];\n  }\n\n  /**\n   * @dev Private function to add a token to this extension's ownership-tracking data structures.\n   * @param to address representing the new owner of the given token ID\n   * @param tokenId uint256 ID of the token to be added to the tokens list of the given address\n   */\n  function _addTokenToOwnerEnumeration(address to, uint256 tokenId) private {\n    _ownedTokensIndex[tokenId] = _ownedTokens[to].length;\n    _ownedTokens[to].push(tokenId);\n  }\n\n  /**\n   * @dev Private function to add a token to this extension's token tracking data structures.\n   * @param tokenId uint256 ID of the token to be added to the tokens list\n   */\n  function _addTokenToAllTokensEnumeration(uint256 tokenId) private {\n    _allTokensIndex[tokenId] = _allTokens.length;\n    _allTokens.push(tokenId);\n  }\n\n  /**\n   * @dev Private function to remove a token from this extension's ownership-tracking data structures. Note that\n   * while the token is not assigned a new owner, the _ownedTokensIndex mapping is _not_ updated: this allows for\n   * gas optimizations e.g. when performing a transfer operation (avoiding double writes).\n   * This has O(1) time complexity, but alters the order of the _ownedTokens array.\n   * @param from address representing the previous owner of the given token ID\n   * @param tokenId uint256 ID of the token to be removed from the tokens list of the given address\n   */\n  function _removeTokenFromOwnerEnumeration(address from, uint256 tokenId) private {\n    // To prevent a gap in from's tokens array, we store the last token in the index of the token to delete, and\n    // then delete the last slot (swap and pop).\n\n    uint256 lastTokenIndex = _ownedTokens[from].length.sub(1);\n    uint256 tokenIndex = _ownedTokensIndex[tokenId];\n\n    // When the token to delete is the last token, the swap operation is unnecessary\n    if (tokenIndex != lastTokenIndex) {\n      uint256 lastTokenId = _ownedTokens[from][lastTokenIndex];\n\n      _ownedTokens[from][tokenIndex] = lastTokenId; // Move the last token to the slot of the to-delete token\n      _ownedTokensIndex[lastTokenId] = tokenIndex; // Update the moved token's index\n    }\n\n    // This also deletes the contents at the last position of the array\n    _ownedTokens[from].pop();\n\n    // Note that _ownedTokensIndex[tokenId] hasn't been cleared: it still points to the old slot (now occupied by\n    // lastTokenId, or just over the end of the array if the token was the last one).\n  }\n\n  /**\n   * @dev Private function to remove a token from this extension's token tracking data structures.\n   * This has O(1) time complexity, but alters the order of the _allTokens array.\n   * @param tokenId uint256 ID of the token to be removed from the tokens list\n   */\n  function _removeTokenFromAllTokensEnumeration(uint256 tokenId) private {\n    // To prevent a gap in the tokens array, we store the last token in the index of the token to delete, and\n    // then delete the last slot (swap and pop).\n\n    uint256 lastTokenIndex = _allTokens.length.sub(1);\n    uint256 tokenIndex = _allTokensIndex[tokenId];\n\n    // When the token to delete is the last token, the swap operation is unnecessary. However, since this occurs so\n    // rarely (when the last minted token is burnt) that we still do the swap here to avoid the gas cost of adding\n    // an 'if' statement (like in _removeTokenFromOwnerEnumeration)\n    uint256 lastTokenId = _allTokens[lastTokenIndex];\n\n    _allTokens[tokenIndex] = lastTokenId; // Move the last token to the slot of the to-delete token\n    _allTokensIndex[lastTokenId] = tokenIndex; // Update the moved token's index\n\n    // This also deletes the contents at the last position of the array\n    _allTokens.pop();\n    _allTokensIndex[tokenId] = 0;\n  }\n}\n\ncontract ERC721Metadata is ERC721Enumerable, usingProvable {\n  // TODO: Create private vars for token _name, _symbol, and _baseTokenURI (string)\n  string private _name;\n  string private _symbol;\n  string private _baseTokenURI;\n\n  // TODO: create private mapping of tokenId's to token uri's called '_tokenURIs'\n  mapping(uint256 => string) private _tokenURIs;\n\n  bytes4 private constant _INTERFACE_ID_ERC721_METADATA = 0x5b5e139f;\n\n  /*\n   * 0x5b5e139f ===\n   *     bytes4(keccak256('name()')) ^\n   *     bytes4(keccak256('symbol()')) ^\n   *     bytes4(keccak256('tokenURI(uint256)'))\n   */\n\n  constructor(\n    string memory c_name,\n    string memory c_symbol,\n    string memory c_baseTokenURI\n  ) {\n    // TODO: set instance var values\n    _name = c_name;\n    _symbol = c_symbol;\n    _baseTokenURI = c_baseTokenURI;\n\n    _registerInterface(_INTERFACE_ID_ERC721_METADATA);\n  }\n\n  // TODO: create external getter functions for name, symbol, and baseTokenURI\n  function name() external view returns (string memory) {\n    return _name;\n  }\n\n  function symbol() external view returns (string memory) {\n    return _symbol;\n  }\n\n  function baseTokenURI() external view returns (string memory) {\n    return _baseTokenURI;\n  }\n\n  function tokenURI(uint256 tokenId) external view returns (string memory) {\n    require(_exists(tokenId), \"token is not exist\");\n    return _tokenURIs[tokenId];\n  }\n\n  // TODO: Create an internal function to set the tokenURI of a specified tokenId\n  // It should be the _baseTokenURI + the tokenId in string form\n  // TIP #1: use strConcat() from the imported oraclizeAPI lib to set the complete token URI\n  // TIP #2: you can also use uint2str() to convert a uint to a string\n  // see https://github.com/oraclize/ethereum-api/blob/master/oraclizeAPI_0.5.sol for strConcat()\n  // require the token exists before setting\n  function _setTokenURI(uint256 tokenId) internal {\n    require(_exists(tokenId), \"tokenId is not exist\");\n\n    _tokenURIs[tokenId] = strConcat(_baseTokenURI, uint2str(tokenId));\n  }\n}\n\n//  TODO's: Create CustomERC721Token contract that inherits from the ERC721Metadata contract. You can name this contract as you please\n//  1) Pass in appropriate values for the inherited ERC721Metadata contract\n//      - make the base token uri: https://s3-us-west-2.amazonaws.com/udacity-blockchain/capstone/\n//  2) create a public mint() that does the following:\n//      -can only be executed by the contract owner\n//      -takes in a 'to' address, tokenId, and tokenURI as parameters\n//      -returns a true boolean upon completion of the function\n//      -calls the superclass mint and setTokenURI functions\ncontract ERC721TokenRealEstate is ERC721Metadata {\n  constructor()\n    ERC721Metadata(\n      \"ThunderMiracle-RealEstate\",\n      \"TM-RE\",\n      \"https://s3-us-west-2.amazonaws.com/udacity-blockchain/capstone/\"\n    )\n  {}\n\n  function mint(address to, uint256 tokenId) public onlyOwner returns (bool) {\n    super._mint(to, tokenId);\n    super._setTokenURI(tokenId);\n\n    return true;\n  }\n}\n",
  "sourcePath": "/Users/liufeng/Study/nd1309/5_capstone/eth-contracts/contracts/ERC721Mintable.sol",
  "compiler": {
    "name": "solc",
    "version": "0.8.0+commit.c7dfd78e.Emscripten.clang"
  },
  "schemaVersion": "3.4.3",
  "updatedAt": "2021-10-11T12:51:50.269Z",
  "devdoc": {
    "kind": "dev",
    "methods": {
      "isApprovedForAll(address,address)": {
        "details": "Tells whether an operator is approved by a given owner",
        "params": {
          "operator": "operator address which you want to query the approval of",
          "owner": "owner address which you want to query the approval of"
        },
        "returns": {
          "_0": "bool whether the given operator is approved by the given owner"
        }
      },
      "setApprovalForAll(address,bool)": {
        "details": "Sets or unsets the approval of a given operator An operator is allowed to transfer all tokens of the sender on their behalf",
        "params": {
          "approved": "representing the status of the approval to be set",
          "to": "operator address to set the approval"
        }
      },
      "supportsInterface(bytes4)": {
        "details": "implement supportsInterface(bytes4) using a lookup table"
      }
    },
    "version": 1
  },
  "userdoc": {
    "kind": "user",
    "methods": {},
    "version": 1
  }
}