{
  "contractName": "ERC721Metadata",
  "abi": [
    {
      "inputs": [
        {
          "internalType": "string",
          "name": "c_name",
          "type": "string"
        },
        {
          "internalType": "string",
          "name": "c_symbol",
          "type": "string"
        },
        {
          "internalType": "string",
          "name": "c_baseTokenURI",
          "type": "string"
        }
      ],
      "stateMutability": "nonpayable",
      "type": "constructor"
    },
    {
      "anonymous": false,
      "inputs": [
        {
          "indexed": true,
          "internalType": "address",
          "name": "owner",
          "type": "address"
        },
        {
          "indexed": true,
          "internalType": "address",
          "name": "approved",
          "type": "address"
        },
        {
          "indexed": true,
          "internalType": "uint256",
          "name": "tokenId",
          "type": "uint256"
        }
      ],
      "name": "Approval",
      "type": "event"
    },
    {
      "anonymous": false,
      "inputs": [
        {
          "indexed": true,
          "internalType": "address",
          "name": "owner",
          "type": "address"
        },
        {
          "indexed": true,
          "internalType": "address",
          "name": "operator",
          "type": "address"
        },
        {
          "indexed": false,
          "internalType": "bool",
          "name": "approved",
          "type": "bool"
        }
      ],
      "name": "ApprovalForAll",
      "type": "event"
    },
    {
      "anonymous": false,
      "inputs": [
        {
          "indexed": false,
          "internalType": "address",
          "name": "from",
          "type": "address"
        },
        {
          "indexed": false,
          "internalType": "address",
          "name": "to",
          "type": "address"
        }
      ],
      "name": "OwnerChanged",
      "type": "event"
    },
    {
      "anonymous": false,
      "inputs": [
        {
          "indexed": false,
          "internalType": "address",
          "name": "addr",
          "type": "address"
        }
      ],
      "name": "Paused",
      "type": "event"
    },
    {
      "anonymous": false,
      "inputs": [
        {
          "indexed": true,
          "internalType": "address",
          "name": "from",
          "type": "address"
        },
        {
          "indexed": true,
          "internalType": "address",
          "name": "to",
          "type": "address"
        },
        {
          "indexed": true,
          "internalType": "uint256",
          "name": "tokenId",
          "type": "uint256"
        }
      ],
      "name": "Transfer",
      "type": "event"
    },
    {
      "anonymous": false,
      "inputs": [
        {
          "indexed": false,
          "internalType": "address",
          "name": "addr",
          "type": "address"
        }
      ],
      "name": "Unpaused",
      "type": "event"
    },
    {
      "inputs": [
        {
          "internalType": "bytes32",
          "name": "_myid",
          "type": "bytes32"
        },
        {
          "internalType": "string",
          "name": "_result",
          "type": "string"
        }
      ],
      "name": "__callback",
      "outputs": [],
      "stateMutability": "nonpayable",
      "type": "function"
    },
    {
      "inputs": [
        {
          "internalType": "bytes32",
          "name": "_myid",
          "type": "bytes32"
        },
        {
          "internalType": "string",
          "name": "_result",
          "type": "string"
        },
        {
          "internalType": "bytes",
          "name": "_proof",
          "type": "bytes"
        }
      ],
      "name": "__callback",
      "outputs": [],
      "stateMutability": "nonpayable",
      "type": "function"
    },
    {
      "inputs": [
        {
          "internalType": "address",
          "name": "to",
          "type": "address"
        },
        {
          "internalType": "uint256",
          "name": "tokenId",
          "type": "uint256"
        }
      ],
      "name": "approve",
      "outputs": [],
      "stateMutability": "nonpayable",
      "type": "function"
    },
    {
      "inputs": [
        {
          "internalType": "address",
          "name": "owner",
          "type": "address"
        }
      ],
      "name": "balanceOf",
      "outputs": [
        {
          "internalType": "uint256",
          "name": "",
          "type": "uint256"
        }
      ],
      "stateMutability": "view",
      "type": "function"
    },
    {
      "inputs": [
        {
          "internalType": "uint256",
          "name": "tokenId",
          "type": "uint256"
        }
      ],
      "name": "getApproved",
      "outputs": [
        {
          "internalType": "address",
          "name": "",
          "type": "address"
        }
      ],
      "stateMutability": "view",
      "type": "function"
    },
    {
      "inputs": [],
      "name": "getContractOwner",
      "outputs": [
        {
          "internalType": "address",
          "name": "",
          "type": "address"
        }
      ],
      "stateMutability": "view",
      "type": "function"
    },
    {
      "inputs": [
        {
          "internalType": "address",
          "name": "owner",
          "type": "address"
        },
        {
          "internalType": "address",
          "name": "operator",
          "type": "address"
        }
      ],
      "name": "isApprovedForAll",
      "outputs": [
        {
          "internalType": "bool",
          "name": "",
          "type": "bool"
        }
      ],
      "stateMutability": "view",
      "type": "function"
    },
    {
      "inputs": [
        {
          "internalType": "uint256",
          "name": "tokenId",
          "type": "uint256"
        }
      ],
      "name": "ownerOf",
      "outputs": [
        {
          "internalType": "address",
          "name": "",
          "type": "address"
        }
      ],
      "stateMutability": "view",
      "type": "function"
    },
    {
      "inputs": [
        {
          "internalType": "address",
          "name": "from",
          "type": "address"
        },
        {
          "internalType": "address",
          "name": "to",
          "type": "address"
        },
        {
          "internalType": "uint256",
          "name": "tokenId",
          "type": "uint256"
        }
      ],
      "name": "safeTransferFrom",
      "outputs": [],
      "stateMutability": "nonpayable",
      "type": "function"
    },
    {
      "inputs": [
        {
          "internalType": "address",
          "name": "from",
          "type": "address"
        },
        {
          "internalType": "address",
          "name": "to",
          "type": "address"
        },
        {
          "internalType": "uint256",
          "name": "tokenId",
          "type": "uint256"
        },
        {
          "internalType": "bytes",
          "name": "_data",
          "type": "bytes"
        }
      ],
      "name": "safeTransferFrom",
      "outputs": [],
      "stateMutability": "nonpayable",
      "type": "function"
    },
    {
      "inputs": [
        {
          "internalType": "address",
          "name": "to",
          "type": "address"
        },
        {
          "internalType": "bool",
          "name": "approved",
          "type": "bool"
        }
      ],
      "name": "setApprovalForAll",
      "outputs": [],
      "stateMutability": "nonpayable",
      "type": "function"
    },
    {
      "inputs": [
        {
          "internalType": "bool",
          "name": "status",
          "type": "bool"
        }
      ],
      "name": "setPauseStatus",
      "outputs": [],
      "stateMutability": "nonpayable",
      "type": "function"
    },
    {
      "inputs": [
        {
          "internalType": "bytes4",
          "name": "interfaceId",
          "type": "bytes4"
        }
      ],
      "name": "supportsInterface",
      "outputs": [
        {
          "internalType": "bool",
          "name": "",
          "type": "bool"
        }
      ],
      "stateMutability": "view",
      "type": "function"
    },
    {
      "inputs": [
        {
          "internalType": "uint256",
          "name": "index",
          "type": "uint256"
        }
      ],
      "name": "tokenByIndex",
      "outputs": [
        {
          "internalType": "uint256",
          "name": "",
          "type": "uint256"
        }
      ],
      "stateMutability": "view",
      "type": "function"
    },
    {
      "inputs": [
        {
          "internalType": "address",
          "name": "owner",
          "type": "address"
        },
        {
          "internalType": "uint256",
          "name": "index",
          "type": "uint256"
        }
      ],
      "name": "tokenOfOwnerByIndex",
      "outputs": [
        {
          "internalType": "uint256",
          "name": "",
          "type": "uint256"
        }
      ],
      "stateMutability": "view",
      "type": "function"
    },
    {
      "inputs": [],
      "name": "totalSupply",
      "outputs": [
        {
          "internalType": "uint256",
          "name": "",
          "type": "uint256"
        }
      ],
      "stateMutability": "view",
      "type": "function"
    },
    {
      "inputs": [
        {
          "internalType": "address",
          "name": "from",
          "type": "address"
        },
        {
          "internalType": "address",
          "name": "to",
          "type": "address"
        },
        {
          "internalType": "uint256",
          "name": "tokenId",
          "type": "uint256"
        }
      ],
      "name": "transferFrom",
      "outputs": [],
      "stateMutability": "nonpayable",
      "type": "function"
    },
    {
      "inputs": [
        {
          "internalType": "address",
          "name": "newOwner",
          "type": "address"
        }
      ],
      "name": "transferOwnership",
      "outputs": [],
      "stateMutability": "nonpayable",
      "type": "function"
    },
    {
      "inputs": [],
      "name": "name",
      "outputs": [
        {
          "internalType": "string",
          "name": "",
          "type": "string"
        }
      ],
      "stateMutability": "view",
      "type": "function"
    },
    {
      "inputs": [],
      "name": "symbol",
      "outputs": [
        {
          "internalType": "string",
          "name": "",
          "type": "string"
        }
      ],
      "stateMutability": "view",
      "type": "function"
    },
    {
      "inputs": [],
      "name": "baseTokenURI",
      "outputs": [
        {
          "internalType": "string",
          "name": "",
          "type": "string"
        }
      ],
      "stateMutability": "view",
      "type": "function"
    },
    {
      "inputs": [
        {
          "internalType": "uint256",
          "name": "tokenId",
          "type": "uint256"
        }
      ],
      "name": "tokenURI",
      "outputs": [
        {
          "internalType": "string",
          "name": "",
          "type": "string"
        }
      ],
      "stateMutability": "view",
      "type": "function"
    }
  ],
  "bytecode": "0x60806040523480156200001157600080fd5b5060405162002d5b38038062002d5b833981810160405281019062000037919062000414565b336000806101000a81548173ffffffffffffffffffffffffffffffffffffffff021916908373ffffffffffffffffffffffffffffffffffffffff1602179055507fb532073b38c83145e3e5135377a08bf9aab55bc0fd7c1179cd4fb995d2a5159c60008060009054906101000a900473ffffffffffffffffffffffffffffffffffffffff16604051620000cc929190620004c6565b60405180910390a160008060146101000a81548160ff0219169083151502179055506200012b6301ffc9a77c01000000000000000000000000000000000000000000000000000000000262000236640100000000026401000000009004565b620001686380ac58cd7c01000000000000000000000000000000000000000000000000000000000262000236640100000000026401000000009004565b620001a563780e9d637c01000000000000000000000000000000000000000000000000000000000262000236640100000000026401000000009004565b82600f9080519060200190620001bd929190620002f2565b508160109080519060200190620001d6929190620002f2565b508060119080519060200190620001ef929190620002f2565b506200022d635b5e139f7c01000000000000000000000000000000000000000000000000000000000262000236640100000000026401000000009004565b50505062000658565b63ffffffff7c010000000000000000000000000000000000000000000000000000000002817bffffffffffffffffffffffffffffffffffffffffffffffffffffffff191614156200028657600080fd5b6001806000837bffffffffffffffffffffffffffffffffffffffffffffffffffffffff19167bffffffffffffffffffffffffffffffffffffffffffffffffffffffff1916815260200190815260200160002060006101000a81548160ff02191690831515021790555050565b8280546200030090620005c4565b90600052602060002090601f01602090048101928262000324576000855562000370565b82601f106200033f57805160ff191683800117855562000370565b8280016001018555821562000370579182015b828111156200036f57825182559160200191906001019062000352565b5b5090506200037f919062000383565b5090565b5b808211156200039e57600081600090555060010162000384565b5090565b6000620003b9620003b38462000527565b620004f3565b905082815260208101848484011115620003d257600080fd5b620003df8482856200058e565b509392505050565b600082601f830112620003f957600080fd5b81516200040b848260208601620003a2565b91505092915050565b6000806000606084860312156200042a57600080fd5b600084015167ffffffffffffffff8111156200044557600080fd5b6200045386828701620003e7565b935050602084015167ffffffffffffffff8111156200047157600080fd5b6200047f86828701620003e7565b925050604084015167ffffffffffffffff8111156200049d57600080fd5b620004ab86828701620003e7565b9150509250925092565b620004c0816200055a565b82525050565b6000604082019050620004dd6000830185620004b5565b620004ec6020830184620004b5565b9392505050565b6000604051905081810181811067ffffffffffffffff821117156200051d576200051c62000629565b5b8060405250919050565b600067ffffffffffffffff82111562000545576200054462000629565b5b601f19601f8301169050602081019050919050565b600062000567826200056e565b9050919050565b600073ffffffffffffffffffffffffffffffffffffffff82169050919050565b60005b83811015620005ae57808201518184015260208101905062000591565b83811115620005be576000848401525b50505050565b60006002820490506001821680620005dd57607f821691505b60208210811415620005f457620005f3620005fa565b5b50919050565b7f4e487b7100000000000000000000000000000000000000000000000000000000600052602260045260246000fd5b7f4e487b7100000000000000000000000000000000000000000000000000000000600052604160045260246000fd5b6126f380620006686000396000f3fe608060405234801561001057600080fd5b506004361061015f576000357c0100000000000000000000000000000000000000000000000000000000900480634f6ccce7116100d5578063b88d4fde11610099578063b88d4fde146103a4578063c38bb537146103c0578063c87b56dd146103dc578063d547cfb71461040c578063e985e9c51461042a578063f2fde38b1461045a5761015f565b80634f6ccce7146102da5780636352211e1461030a57806370a082311461033a57806395d89b411461036a578063a22cb465146103885761015f565b806323b872dd1161012757806323b872dd1461021c57806327dc297e146102385780632f745c591461025457806338bbfa501461028457806342842e0e146102a0578063442890d5146102bc5761015f565b806301ffc9a71461016457806306fdde0314610194578063081812fc146101b2578063095ea7b3146101e257806318160ddd146101fe575b600080fd5b61017e60048036038101906101799190611dfd565b610476565b60405161018b9190612265565b60405180910390f35b61019c6104de565b6040516101a99190612280565b60405180910390f35b6101cc60048036038101906101c79190611e4f565b610570565b6040516101d991906121d5565b60405180910390f35b6101fc60048036038101906101f79190611cc5565b6105ad565b005b61020661075a565b60405161021391906123a2565b60405180910390f35b61023660048036038101906102319190611bbf565b610767565b005b610252600480360381019061024d9190611d2a565b6107c0565b005b61026e60048036038101906102699190611cc5565b610842565b60405161027b91906123a2565b60405180910390f35b61029e60048036038101906102999190611d7e565b6108e2565b005b6102ba60048036038101906102b59190611bbf565b610906565b005b6102c4610926565b6040516102d191906121d5565b60405180910390f35b6102f460048036038101906102ef9190611e4f565b61094f565b60405161030191906123a2565b60405180910390f35b610324600480360381019061031f9190611e4f565b6109b0565b60405161033191906121d5565b60405180910390f35b610354600480360381019061034f9190611b5a565b6109ed565b60405161036191906123a2565b60405180910390f35b610372610a3d565b60405161037f9190612280565b60405180910390f35b6103a2600480360381019061039d9190611c89565b610acf565b005b6103be60048036038101906103b99190611c0e565b610c05565b005b6103da60048036038101906103d59190611d01565b610c2b565b005b6103f660048036038101906103f19190611e4f565b610d50565b6040516104039190612280565b60405180910390f35b610414610e3d565b6040516104219190612280565b60405180910390f35b610444600480360381019061043f9190611b83565b610ecf565b6040516104519190612265565b60405180910390f35b610474600480360381019061046f9190611b5a565b610f63565b005b600060016000837bffffffffffffffffffffffffffffffffffffffffffffffffffffffff19167bffffffffffffffffffffffffffffffffffffffffffffffffffffffff1916815260200190815260200160002060009054906101000a900460ff169050919050565b6060600f80546104ed9061257a565b80601f01602080910402602001604051908101604052809291908181526020018280546105199061257a565b80156105665780601f1061053b57610100808354040283529160200191610566565b820191906000526020600020905b81548152906001019060200180831161054957829003601f168201915b5050505050905090565b60006003600083815260200190815260200160002060009054906101000a900473ffffffffffffffffffffffffffffffffffffffff169050919050565b60006105b8826109b0565b90508273ffffffffffffffffffffffffffffffffffffffff168173ffffffffffffffffffffffffffffffffffffffff161415610629576040517f08c379a000000000000000000000000000000000000000000000000000000000815260040161062090612362565b60405180910390fd5b8073ffffffffffffffffffffffffffffffffffffffff163373ffffffffffffffffffffffffffffffffffffffff16148061066957506106688133610ecf565b5b6106a8576040517f08c379a000000000000000000000000000000000000000000000000000000000815260040161069f90612302565b60405180910390fd5b826003600084815260200190815260200160002060006101000a81548173ffffffffffffffffffffffffffffffffffffffff021916908373ffffffffffffffffffffffffffffffffffffffff160217905550818373ffffffffffffffffffffffffffffffffffffffff168273ffffffffffffffffffffffffffffffffffffffff167f8c5be1e5ebec7d5bd14f71427d1e84f3dd0314c0f7b2291e5b200ac8c7c3b92560405160405180910390a4505050565b6000600880549050905090565b6107713382611106565b6107b0576040517f08c379a00000000000000000000000000000000000000000000000000000000081526004016107a7906122a2565b60405180910390fd5b6107bb83838361119b565b505050565b61083e8282600067ffffffffffffffff811115610806577f4e487b7100000000000000000000000000000000000000000000000000000000600052604160045260246000fd5b6040519080825280601f01601f1916602001820160405280156108385781602001600182028036833780820191505090505b506108e2565b5050565b600061084d836109ed565b821061085857600080fd5b600660008473ffffffffffffffffffffffffffffffffffffffff1673ffffffffffffffffffffffffffffffffffffffff16815260200190815260200160002082815481106108cf577f4e487b7100000000000000000000000000000000000000000000000000000000600052603260045260246000fd5b9060005260206000200154905092915050565b6000600102600d600080600102815260200190815260200160002081905550505050565b61092183838360405180602001604052806000815250610c05565b505050565b60008060009054906101000a900473ffffffffffffffffffffffffffffffffffffffff16905090565b600061095961075a565b821061096457600080fd5b6008828154811061099e577f4e487b7100000000000000000000000000000000000000000000000000000000600052603260045260246000fd5b90600052602060002001549050919050565b60006002600083815260200190815260200160002060009054906101000a900473ffffffffffffffffffffffffffffffffffffffff169050919050565b6000610a36600460008473ffffffffffffffffffffffffffffffffffffffff1673ffffffffffffffffffffffffffffffffffffffff1681526020019081526020016000206111bf565b9050919050565b606060108054610a4c9061257a565b80601f0160208091040260200160405190810160405280929190818152602001828054610a789061257a565b8015610ac55780601f10610a9a57610100808354040283529160200191610ac5565b820191906000526020600020905b815481529060010190602001808311610aa857829003601f168201915b5050505050905090565b3373ffffffffffffffffffffffffffffffffffffffff168273ffffffffffffffffffffffffffffffffffffffff161415610b0857600080fd5b80600560003373ffffffffffffffffffffffffffffffffffffffff1673ffffffffffffffffffffffffffffffffffffffff16815260200190815260200160002060008473ffffffffffffffffffffffffffffffffffffffff1673ffffffffffffffffffffffffffffffffffffffff16815260200190815260200160002060006101000a81548160ff0219169083151502179055508173ffffffffffffffffffffffffffffffffffffffff163373ffffffffffffffffffffffffffffffffffffffff167f17307eab39ab6107e8899845ad3d59bd9653f200f220920489ca2b5937696c3183604051610bf99190612265565b60405180910390a35050565b610c10848484610767565b610c1c848484846111cd565b610c2557600080fd5b50505050565b3373ffffffffffffffffffffffffffffffffffffffff1660008054906101000a900473ffffffffffffffffffffffffffffffffffffffff1673ffffffffffffffffffffffffffffffffffffffff1614610cb9576040517f08c379a0000000000000000000000000000000000000000000000000000000008152600401610cb090612382565b60405180910390fd5b80600060146101000a81548160ff0219169083151502179055508015610d15577f62e78cea01bee320cd4e420270b5ea74000d11b0c9f74754ebdbfc544b05a25833604051610d0891906121d5565b60405180910390a1610d4d565b7f5db9ee0a495bf2e6ff9c91a7834c1ba4fdd244a5e8aa4e537bd38aeae4b073aa33604051610d4491906121d5565b60405180910390a15b50565b6060610d5b8261131c565b610d9a576040517f08c379a0000000000000000000000000000000000000000000000000000000008152600401610d9190612342565b60405180910390fd5b601260008381526020019081526020016000208054610db89061257a565b80601f0160208091040260200160405190810160405280929190818152602001828054610de49061257a565b8015610e315780601f10610e0657610100808354040283529160200191610e31565b820191906000526020600020905b815481529060010190602001808311610e1457829003601f168201915b50505050509050919050565b606060118054610e4c9061257a565b80601f0160208091040260200160405190810160405280929190818152602001828054610e789061257a565b8015610ec55780601f10610e9a57610100808354040283529160200191610ec5565b820191906000526020600020905b815481529060010190602001808311610ea857829003601f168201915b5050505050905090565b6000600560008473ffffffffffffffffffffffffffffffffffffffff1673ffffffffffffffffffffffffffffffffffffffff16815260200190815260200160002060008373ffffffffffffffffffffffffffffffffffffffff1673ffffffffffffffffffffffffffffffffffffffff16815260200190815260200160002060009054906101000a900460ff16905092915050565b3373ffffffffffffffffffffffffffffffffffffffff1660008054906101000a900473ffffffffffffffffffffffffffffffffffffffff1673ffffffffffffffffffffffffffffffffffffffff1614610ff1576040517f08c379a0000000000000000000000000000000000000000000000000000000008152600401610fe890612382565b60405180910390fd5b80600073ffffffffffffffffffffffffffffffffffffffff168173ffffffffffffffffffffffffffffffffffffffff161415611062576040517f08c379a000000000000000000000000000000000000000000000000000000000815260040161105990612322565b60405180910390fd5b60008060009054906101000a900473ffffffffffffffffffffffffffffffffffffffff169050826000806101000a81548173ffffffffffffffffffffffffffffffffffffffff021916908373ffffffffffffffffffffffffffffffffffffffff1602179055507fb532073b38c83145e3e5135377a08bf9aab55bc0fd7c1179cd4fb995d2a5159c81846040516110f99291906121f0565b60405180910390a1505050565b600080611112836109b0565b90508073ffffffffffffffffffffffffffffffffffffffff168473ffffffffffffffffffffffffffffffffffffffff16148061118157508373ffffffffffffffffffffffffffffffffffffffff1661116984610570565b73ffffffffffffffffffffffffffffffffffffffff16145b8061119257506111918185610ecf565b5b91505092915050565b6111a683838361138e565b6111b083826115bf565b6111ba82826117ef565b505050565b600081600001549050919050565b60006111ee8473ffffffffffffffffffffffffffffffffffffffff166118b3565b6111fb5760019050611314565b60008473ffffffffffffffffffffffffffffffffffffffff1663150b7a02338887876040518563ffffffff167c01000000000000000000000000000000000000000000000000000000000281526004016112589493929190612219565b602060405180830381600087803b15801561127257600080fd5b505af1158015611286573d6000803e3d6000fd5b505050506040513d601f19601f820116820180604052508101906112aa9190611e26565b905063150b7a027c0100000000000000000000000000000000000000000000000000000000027bffffffffffffffffffffffffffffffffffffffffffffffffffffffff1916817bffffffffffffffffffffffffffffffffffffffffffffffffffffffff1916149150505b949350505050565b6000806002600084815260200190815260200160002060009054906101000a900473ffffffffffffffffffffffffffffffffffffffff169050600073ffffffffffffffffffffffffffffffffffffffff168173ffffffffffffffffffffffffffffffffffffffff161415915050919050565b81600073ffffffffffffffffffffffffffffffffffffffff168173ffffffffffffffffffffffffffffffffffffffff1614156113ff576040517f08c379a00000000000000000000000000000000000000000000000000000000081526004016113f690612322565b60405180910390fd5b611408826109b0565b73ffffffffffffffffffffffffffffffffffffffff168473ffffffffffffffffffffffffffffffffffffffff1614611475576040517f08c379a000000000000000000000000000000000000000000000000000000000815260040161146c906122c2565b60405180910390fd5b61147e826118c6565b6114c5600460008673ffffffffffffffffffffffffffffffffffffffff1673ffffffffffffffffffffffffffffffffffffffff168152602001908152602001600020611984565b61150c600460008573ffffffffffffffffffffffffffffffffffffffff1673ffffffffffffffffffffffffffffffffffffffff1681526020019081526020016000206119e0565b826002600084815260200190815260200160002060006101000a81548173ffffffffffffffffffffffffffffffffffffffff021916908373ffffffffffffffffffffffffffffffffffffffff160217905550818373ffffffffffffffffffffffffffffffffffffffff168573ffffffffffffffffffffffffffffffffffffffff167fddf252ad1be2c89b69c2b068fc378daa952ba7f163c4a11628f55a4df523b3ef60405160405180910390a450505050565b60006116176001600660008673ffffffffffffffffffffffffffffffffffffffff1673ffffffffffffffffffffffffffffffffffffffff168152602001908152602001600020805490506119f690919063ffffffff16565b905060006007600084815260200190815260200160002054905081811461175e576000600660008673ffffffffffffffffffffffffffffffffffffffff1673ffffffffffffffffffffffffffffffffffffffff16815260200190815260200160002083815481106116b1577f4e487b7100000000000000000000000000000000000000000000000000000000600052603260045260246000fd5b9060005260206000200154905080600660008773ffffffffffffffffffffffffffffffffffffffff1673ffffffffffffffffffffffffffffffffffffffff1681526020019081526020016000208381548110611736577f4e487b7100000000000000000000000000000000000000000000000000000000600052603260045260246000fd5b9060005260206000200181905550816007600083815260200190815260200160002081905550505b600660008573ffffffffffffffffffffffffffffffffffffffff1673ffffffffffffffffffffffffffffffffffffffff1681526020019081526020016000208054806117d3577f4e487b7100000000000000000000000000000000000000000000000000000000600052603160045260246000fd5b6001900381819060005260206000200160009055905550505050565b600660008373ffffffffffffffffffffffffffffffffffffffff1673ffffffffffffffffffffffffffffffffffffffff168152602001908152602001600020805490506007600083815260200190815260200160002081905550600660008373ffffffffffffffffffffffffffffffffffffffff1673ffffffffffffffffffffffffffffffffffffffff1681526020019081526020016000208190806001815401808255809150506001900390600052602060002001600090919091909150555050565b600080823b905060008111915050919050565b600073ffffffffffffffffffffffffffffffffffffffff166003600083815260200190815260200160002060009054906101000a900473ffffffffffffffffffffffffffffffffffffffff1673ffffffffffffffffffffffffffffffffffffffff16146119815760006003600083815260200190815260200160002060006101000a81548173ffffffffffffffffffffffffffffffffffffffff021916908373ffffffffffffffffffffffffffffffffffffffff1602179055505b50565b600081600001549050600081116119d0576040517f08c379a00000000000000000000000000000000000000000000000000000000081526004016119c7906122e2565b60405180910390fd5b6001810382600001819055505050565b6001816000016000828254019250508190555050565b60008183611a049190612486565b905092915050565b6000611a1f611a1a846123ee565b6123bd565b905082815260208101848484011115611a3757600080fd5b611a42848285612538565b509392505050565b6000611a5d611a588461241e565b6123bd565b905082815260208101848484011115611a7557600080fd5b611a80848285612538565b509392505050565b600081359050611a978161264a565b92915050565b600081359050611aac81612661565b92915050565b600081359050611ac181612678565b92915050565b600081359050611ad68161268f565b92915050565b600081519050611aeb8161268f565b92915050565b600082601f830112611b0257600080fd5b8135611b12848260208601611a0c565b91505092915050565b600082601f830112611b2c57600080fd5b8135611b3c848260208601611a4a565b91505092915050565b600081359050611b54816126a6565b92915050565b600060208284031215611b6c57600080fd5b6000611b7a84828501611a88565b91505092915050565b60008060408385031215611b9657600080fd5b6000611ba485828601611a88565b9250506020611bb585828601611a88565b9150509250929050565b600080600060608486031215611bd457600080fd5b6000611be286828701611a88565b9350506020611bf386828701611a88565b9250506040611c0486828701611b45565b9150509250925092565b60008060008060808587031215611c2457600080fd5b6000611c3287828801611a88565b9450506020611c4387828801611a88565b9350506040611c5487828801611b45565b925050606085013567ffffffffffffffff811115611c7157600080fd5b611c7d87828801611af1565b91505092959194509250565b60008060408385031215611c9c57600080fd5b6000611caa85828601611a88565b9250506020611cbb85828601611a9d565b9150509250929050565b60008060408385031215611cd857600080fd5b6000611ce685828601611a88565b9250506020611cf785828601611b45565b9150509250929050565b600060208284031215611d1357600080fd5b6000611d2184828501611a9d565b91505092915050565b60008060408385031215611d3d57600080fd5b6000611d4b85828601611ab2565b925050602083013567ffffffffffffffff811115611d6857600080fd5b611d7485828601611b1b565b9150509250929050565b600080600060608486031215611d9357600080fd5b6000611da186828701611ab2565b935050602084013567ffffffffffffffff811115611dbe57600080fd5b611dca86828701611b1b565b925050604084013567ffffffffffffffff811115611de757600080fd5b611df386828701611af1565b9150509250925092565b600060208284031215611e0f57600080fd5b6000611e1d84828501611ac7565b91505092915050565b600060208284031215611e3857600080fd5b6000611e4684828501611adc565b91505092915050565b600060208284031215611e6157600080fd5b6000611e6f84828501611b45565b91505092915050565b611e81816124ba565b82525050565b611e90816124cc565b82525050565b6000611ea18261244e565b611eab8185612464565b9350611ebb818560208601612547565b611ec481612639565b840191505092915050565b6000611eda82612459565b611ee48185612475565b9350611ef4818560208601612547565b611efd81612639565b840191505092915050565b6000611f15602a83612475565b91507f7065726d697373696f6e20697320726571756972656420746f207472616e736660008301527f657220746f6b656e4964000000000000000000000000000000000000000000006020830152604082019050919050565b6000611f7b603083612475565b91507f46726f6d2061646472657373206973206e6f7420746865206f776e6572206f6660008301527f2074686520676976656e20746f6b656e000000000000000000000000000000006020830152604082019050919050565b6000611fe1601b83612475565b91507f436f756e7465723a2064656372656d656e74206f766572666c6f7700000000006000830152602082019050919050565b6000612021604483612475565b91507f4d6573736167652073656e646572206d75737420626520746865206f776e657260008301527f206f7220686173206265656e20617070726f76656420627920746f6b656e206f60208301527f776e6572000000000000000000000000000000000000000000000000000000006040830152606082019050919050565b60006120ad601783612475565b91507f4d75737420626520612076616c696420616464726573730000000000000000006000830152602082019050919050565b60006120ed601283612475565b91507f746f6b656e206973206e6f7420657869737400000000000000000000000000006000830152602082019050919050565b600061212d603283612475565b91507f476976656e20616464726573732073686f756c64206e6f74206265207468652060008301527f6f776e6572206f662074686520746f6b656e00000000000000000000000000006020830152604082019050919050565b6000612193601583612475565b91507f4f6e6c79206f776e657220697320616c6c6f77656400000000000000000000006000830152602082019050919050565b6121cf8161252e565b82525050565b60006020820190506121ea6000830184611e78565b92915050565b60006040820190506122056000830185611e78565b6122126020830184611e78565b9392505050565b600060808201905061222e6000830187611e78565b61223b6020830186611e78565b61224860408301856121c6565b818103606083015261225a8184611e96565b905095945050505050565b600060208201905061227a6000830184611e87565b92915050565b6000602082019050818103600083015261229a8184611ecf565b905092915050565b600060208201905081810360008301526122bb81611f08565b9050919050565b600060208201905081810360008301526122db81611f6e565b9050919050565b600060208201905081810360008301526122fb81611fd4565b9050919050565b6000602082019050818103600083015261231b81612014565b9050919050565b6000602082019050818103600083015261233b816120a0565b9050919050565b6000602082019050818103600083015261235b816120e0565b9050919050565b6000602082019050818103600083015261237b81612120565b9050919050565b6000602082019050818103600083015261239b81612186565b9050919050565b60006020820190506123b760008301846121c6565b92915050565b6000604051905081810181811067ffffffffffffffff821117156123e4576123e361260a565b5b8060405250919050565b600067ffffffffffffffff8211156124095761240861260a565b5b601f19601f8301169050602081019050919050565b600067ffffffffffffffff8211156124395761243861260a565b5b601f19601f8301169050602081019050919050565b600081519050919050565b600081519050919050565b600082825260208201905092915050565b600082825260208201905092915050565b60006124918261252e565b915061249c8361252e565b9250828210156124af576124ae6125ac565b5b828203905092915050565b60006124c58261250e565b9050919050565b60008115159050919050565b6000819050919050565b60007fffffffff0000000000000000000000000000000000000000000000000000000082169050919050565b600073ffffffffffffffffffffffffffffffffffffffff82169050919050565b6000819050919050565b82818337600083830152505050565b60005b8381101561256557808201518184015260208101905061254a565b83811115612574576000848401525b50505050565b6000600282049050600182168061259257607f821691505b602082108114156125a6576125a56125db565b5b50919050565b7f4e487b7100000000000000000000000000000000000000000000000000000000600052601160045260246000fd5b7f4e487b7100000000000000000000000000000000000000000000000000000000600052602260045260246000fd5b7f4e487b7100000000000000000000000000000000000000000000000000000000600052604160045260246000fd5b6000601f19601f8301169050919050565b612653816124ba565b811461265e57600080fd5b50565b61266a816124cc565b811461267557600080fd5b50565b612681816124d8565b811461268c57600080fd5b50565b612698816124e2565b81146126a357600080fd5b50565b6126af8161252e565b81146126ba57600080fd5b5056fea2646970667358221220f7edbbd112413b4d8e062b532f73d6cb121975e90409855fb1c6878c00d424da64736f6c63430008000033",
  "immutableReferences": {},
  "source": "// SPDX-License-Identifier: MIT\npragma solidity ^0.8.0;\n\nimport \"@openzeppelin/contracts/utils/Address.sol\";\nimport \"@openzeppelin/contracts/utils/Counters.sol\";\nimport \"@openzeppelin/contracts/utils/math/SafeMath.sol\";\nimport \"@openzeppelin/contracts/token/ERC721/IERC721Receiver.sol\";\nimport \"./Provable.sol\";\n\nabstract contract Ownable {\n  //  TODO's\n  //  1) create a private '_owner' variable of type address with a public getter function\n  //  2) create an internal constructor that sets the _owner var to the creater of the contract\n  //  3) create an 'onlyOwner' modifier that throws if called by any account other than the owner.\n  //  4) fill out the transferOwnership function\n  //  5) create an event that emits anytime ownerShip is transfered (including in the constructor)\n\n  address private _owner;\n\n  event OwnerChanged(address from, address to);\n\n  modifier onlyOwner() {\n    require(_owner == msg.sender, \"Only owner is allowed\");\n    _;\n  }\n  modifier requireValidAddress(address addr) {\n    require(addr != address(0), \"Must be a valid address\");\n    _;\n  }\n\n  constructor() {\n    _owner = msg.sender;\n\n    emit OwnerChanged(address(0), _owner);\n  }\n\n  function getContractOwner() external view returns (address) {\n    return _owner;\n  }\n\n  function transferOwnership(address newOwner) public onlyOwner requireValidAddress(newOwner) {\n    // TODO add functionality to transfer control of the contract to a newOwner.\n    // make sure the new owner is a real address\n    address oldOwner = _owner;\n    _owner = newOwner;\n\n    emit OwnerChanged(oldOwner, newOwner);\n  }\n}\n\n//  TODO's: Create a Pausable contract that inherits from the Ownable contract\n//  1) create a private '_paused' variable of type bool\n//  2) create a public setter using the inherited onlyOwner modifier\n//  3) create an internal constructor that sets the _paused variable to false\n//  4) create 'whenNotPaused' & 'paused' modifier that throws in the appropriate situation\n//  5) create a Paused & Unpaused event that emits the address that triggered the event\nabstract contract Pausable is Ownable {\n  bool _paused;\n\n  event Paused(address addr);\n  event Unpaused(address addr);\n\n  modifier withNotPaused() {\n    require(!_paused, \"Contract is not available now\");\n    _;\n  }\n\n  constructor() {\n    _paused = false;\n  }\n\n  function setPauseStatus(bool status) public onlyOwner {\n    _paused = status;\n\n    if (status) {\n      emit Paused(msg.sender);\n    } else {\n      emit Unpaused(msg.sender);\n    }\n  }\n}\n\nabstract contract ERC165 {\n  bytes4 private constant _INTERFACE_ID_ERC165 = 0x01ffc9a7;\n  /*\n   * 0x01ffc9a7 ===\n   *     bytes4(keccak256('supportsInterface(bytes4)'))\n   */\n\n  /**\n   * @dev a mapping of interface id to whether or not it's supported\n   */\n  mapping(bytes4 => bool) private _supportedInterfaces;\n\n  /**\n   * @dev A contract implementing SupportsInterfaceWithLookup\n   * implement ERC165 itself\n   */\n  constructor() {\n    _registerInterface(_INTERFACE_ID_ERC165);\n  }\n\n  /**\n   * @dev implement supportsInterface(bytes4) using a lookup table\n   */\n  function supportsInterface(bytes4 interfaceId) external view returns (bool) {\n    return _supportedInterfaces[interfaceId];\n  }\n\n  /**\n   * @dev internal method for registering an interface\n   */\n  function _registerInterface(bytes4 interfaceId) internal {\n    require(interfaceId != 0xffffffff);\n    _supportedInterfaces[interfaceId] = true;\n  }\n}\n\ncontract ERC721 is Pausable, ERC165 {\n  event Transfer(address indexed from, address indexed to, uint256 indexed tokenId);\n  event Approval(address indexed owner, address indexed approved, uint256 indexed tokenId);\n  event ApprovalForAll(address indexed owner, address indexed operator, bool approved);\n\n  using SafeMath for uint256;\n  using Address for address;\n  using Counters for Counters.Counter;\n\n  // Equals to `bytes4(keccak256(\"onERC721Received(address,address,uint256,bytes)\"))`\n  // which can be also obtained as `IERC721Receiver(0).onERC721Received.selector`\n  bytes4 private constant _ERC721_RECEIVED = 0x150b7a02;\n\n  // Mapping from token ID to owner\n  mapping(uint256 => address) private _tokenOwner;\n\n  // Mapping from token ID to approved address\n  mapping(uint256 => address) private _tokenApprovals;\n\n  // Mapping from owner to number of owned token\n  // IMPORTANT: this mapping uses Counters lib which is used to protect overflow when incrementing/decrementing a uint\n  // use the following functions when interacting with Counters: increment(), decrement(), and current() to get the value\n  // see: https://github.com/OpenZeppelin/@openzeppelin/blob/master/contracts/drafts/Counters.sol\n  mapping(address => Counters.Counter) private _ownedTokensCount;\n\n  // Mapping from owner to operator approvals\n  mapping(address => mapping(address => bool)) private _operatorApprovals;\n\n  bytes4 private constant _INTERFACE_ID_ERC721 = 0x80ac58cd;\n\n  constructor() {\n    // register the supported interfaces to conform to ERC721 via ERC165\n    _registerInterface(_INTERFACE_ID_ERC721);\n  }\n\n  function balanceOf(address owner) public view returns (uint256) {\n    // TODO return the token balance of given address\n    // TIP: remember the functions to use for Counters. you can refresh yourself with the link above\n    return _ownedTokensCount[owner].current();\n  }\n\n  function ownerOf(uint256 tokenId) public view returns (address) {\n    // TODO return the owner of the given tokenId\n    return _tokenOwner[tokenId];\n  }\n\n  //    @dev Approves another address to transfer the given token ID\n  function approve(address to, uint256 tokenId) public {\n    // TODO require the given address to not be the owner of the tokenId\n    address ownerOfToken = ownerOf(tokenId);\n    require(ownerOfToken != to, \"Given address should not be the owner of the token\");\n\n    // TODO require the msg sender to be the owner of the contract or isApprovedForAll() to be true\n    require(\n      msg.sender == ownerOfToken || isApprovedForAll(ownerOfToken, msg.sender),\n      \"Message sender must be the owner or has been approved by token owner\"\n    );\n\n    // TODO add 'to' address to token approvals\n    _tokenApprovals[tokenId] = to;\n\n    // TODO emit Approval Event\n    emit Approval(ownerOfToken, to, tokenId);\n  }\n\n  function getApproved(uint256 tokenId) public view returns (address) {\n    // TODO return token approval if it exists\n    return _tokenApprovals[tokenId];\n  }\n\n  /**\n   * @dev Sets or unsets the approval of a given operator\n   * An operator is allowed to transfer all tokens of the sender on their behalf\n   * @param to operator address to set the approval\n   * @param approved representing the status of the approval to be set\n   */\n  function setApprovalForAll(address to, bool approved) public {\n    require(to != msg.sender);\n    _operatorApprovals[msg.sender][to] = approved;\n    emit ApprovalForAll(msg.sender, to, approved);\n  }\n\n  /**\n   * @dev Tells whether an operator is approved by a given owner\n   * @param owner owner address which you want to query the approval of\n   * @param operator operator address which you want to query the approval of\n   * @return bool whether the given operator is approved by the given owner\n   */\n  function isApprovedForAll(address owner, address operator) public view returns (bool) {\n    return _operatorApprovals[owner][operator];\n  }\n\n  function transferFrom(\n    address from,\n    address to,\n    uint256 tokenId\n  ) public {\n    require(_isApprovedOrOwner(msg.sender, tokenId), \"permission is required to transfer tokenId\");\n\n    _transferFrom(from, to, tokenId);\n  }\n\n  function safeTransferFrom(\n    address from,\n    address to,\n    uint256 tokenId\n  ) public {\n    safeTransferFrom(from, to, tokenId, \"\");\n  }\n\n  function safeTransferFrom(\n    address from,\n    address to,\n    uint256 tokenId,\n    bytes memory _data\n  ) public {\n    transferFrom(from, to, tokenId);\n    require(_checkOnERC721Received(from, to, tokenId, _data));\n  }\n\n  /**\n   * @dev Returns whether the specified token exists\n   * @param tokenId uint256 ID of the token to query the existence of\n   * @return bool whether the token exists\n   */\n  function _exists(uint256 tokenId) internal view returns (bool) {\n    address owner = _tokenOwner[tokenId];\n    return owner != address(0);\n  }\n\n  /**\n   * @dev Returns whether the given spender can transfer a given token ID\n   * @param spender address of the spender to query\n   * @param tokenId uint256 ID of the token to be transferred\n   * @return bool whether the msg.sender is approved for the given token ID,\n   * is an operator of the owner, or is the owner of the token\n   */\n  function _isApprovedOrOwner(address spender, uint256 tokenId) internal view returns (bool) {\n    address owner = ownerOf(tokenId);\n    return (spender == owner ||\n      getApproved(tokenId) == spender ||\n      isApprovedForAll(owner, spender));\n  }\n\n  // @dev Internal function to mint a new token\n  // TIP: remember the functions to use for Counters. you can refresh yourself with the link above\n  function _mint(address to, uint256 tokenId) internal virtual requireValidAddress(to) {\n    // TODO revert if given tokenId already exists or given address is invalid\n    require(_tokenOwner[tokenId] == address(0), \"token is already exist\");\n\n    // TODO mint tokenId to given address & increase token count of owner\n    _tokenOwner[tokenId] = to;\n    _ownedTokensCount[to].increment();\n\n    // TODO emit Transfer event\n    emit Transfer(address(0), to, tokenId);\n  }\n\n  // @dev Internal function to transfer ownership of a given token ID to another address.\n  // TIP: remember the functions to use for Counters. you can refresh yourself with the link above\n  function _transferFrom(\n    address from,\n    address to,\n    uint256 tokenId\n  ) internal virtual requireValidAddress(to) {\n    // TODO: require from address is the owner of the given token\n    require(from == ownerOf(tokenId), \"From address is not the owner of the given token\");\n\n    // TODO: require token is being transfered to valid address\n    // by modifier\n\n    // TODO: clear approval\n    _clearApproval(tokenId);\n\n    // TODO: update token counts & transfer ownership of the token ID\n    _ownedTokensCount[from].decrement();\n    _ownedTokensCount[to].increment();\n    _tokenOwner[tokenId] = to;\n\n    // TODO: emit correct event\n    emit Transfer(from, to, tokenId);\n  }\n\n  /**\n   * @dev Internal function to invoke `onERC721Received` on a target address\n   * The call is not executed if the target address is not a contract\n   * @param from address representing the previous owner of the given token ID\n   * @param to target address that will receive the tokens\n   * @param tokenId uint256 ID of the token to be transferred\n   * @param _data bytes optional data to send along with the call\n   * @return bool whether the call correctly returned the expected magic value\n   */\n  function _checkOnERC721Received(\n    address from,\n    address to,\n    uint256 tokenId,\n    bytes memory _data\n  ) internal returns (bool) {\n    if (!to.isContract()) {\n      return true;\n    }\n\n    bytes4 retval = IERC721Receiver(to).onERC721Received(msg.sender, from, tokenId, _data);\n    return (retval == _ERC721_RECEIVED);\n  }\n\n  // @dev Private function to clear current approval of a given token ID\n  function _clearApproval(uint256 tokenId) private {\n    if (_tokenApprovals[tokenId] != address(0)) {\n      _tokenApprovals[tokenId] = address(0);\n    }\n  }\n}\n\ncontract ERC721Enumerable is ERC165, ERC721 {\n  using SafeMath for uint256;\n\n  // Mapping from owner to list of owned token IDs\n  mapping(address => uint256[]) private _ownedTokens;\n\n  // Mapping from token ID to index of the owner tokens list\n  mapping(uint256 => uint256) private _ownedTokensIndex;\n\n  // Array with all token ids, used for enumeration\n  uint256[] private _allTokens;\n\n  // Mapping from token id to position in the allTokens array\n  mapping(uint256 => uint256) private _allTokensIndex;\n\n  bytes4 private constant _INTERFACE_ID_ERC721_ENUMERABLE = 0x780e9d63;\n\n  /*\n   * 0x780e9d63 ===\n   *     bytes4(keccak256('totalSupply()')) ^\n   *     bytes4(keccak256('tokenOfOwnerByIndex(address,uint256)')) ^\n   *     bytes4(keccak256('tokenByIndex(uint256)'))\n   */\n\n  /**\n   * @dev Constructor function\n   */\n  constructor() {\n    // register the supported interface to conform to ERC721Enumerable via ERC165\n    _registerInterface(_INTERFACE_ID_ERC721_ENUMERABLE);\n  }\n\n  /**\n   * @dev Gets the token ID at a given index of the tokens list of the requested owner\n   * @param owner address owning the tokens list to be accessed\n   * @param index uint256 representing the index to be accessed of the requested tokens list\n   * @return uint256 token ID at the given index of the tokens list owned by the requested address\n   */\n  function tokenOfOwnerByIndex(address owner, uint256 index) public view returns (uint256) {\n    require(index < balanceOf(owner));\n    return _ownedTokens[owner][index];\n  }\n\n  /**\n   * @dev Gets the total amount of tokens stored by the contract\n   * @return uint256 representing the total amount of tokens\n   */\n  function totalSupply() public view returns (uint256) {\n    return _allTokens.length;\n  }\n\n  /**\n   * @dev Gets the token ID at a given index of all the tokens in this contract\n   * Reverts if the index is greater or equal to the total number of tokens\n   * @param index uint256 representing the index to be accessed of the tokens list\n   * @return uint256 token ID at the given index of the tokens list\n   */\n  function tokenByIndex(uint256 index) public view returns (uint256) {\n    require(index < totalSupply());\n    return _allTokens[index];\n  }\n\n  /**\n   * @dev Internal function to transfer ownership of a given token ID to another address.\n   * As opposed to transferFrom, this imposes no restrictions on msg.sender.\n   * @param from current owner of the token\n   * @param to address to receive the ownership of the given token ID\n   * @param tokenId uint256 ID of the token to be transferred\n   */\n  function _transferFrom(\n    address from,\n    address to,\n    uint256 tokenId\n  ) internal override {\n    super._transferFrom(from, to, tokenId);\n\n    _removeTokenFromOwnerEnumeration(from, tokenId);\n\n    _addTokenToOwnerEnumeration(to, tokenId);\n  }\n\n  /**\n   * @dev Internal function to mint a new token\n   * Reverts if the given token ID already exists\n   * @param to address the beneficiary that will own the minted token\n   * @param tokenId uint256 ID of the token to be minted\n   */\n  function _mint(address to, uint256 tokenId) internal override {\n    super._mint(to, tokenId);\n\n    _addTokenToOwnerEnumeration(to, tokenId);\n\n    _addTokenToAllTokensEnumeration(tokenId);\n  }\n\n  /**\n   * @dev Gets the list of token IDs of the requested owner\n   * @param owner address owning the tokens\n   * @return uint256[] List of token IDs owned by the requested address\n   */\n  function _tokensOfOwner(address owner) internal view returns (uint256[] storage) {\n    return _ownedTokens[owner];\n  }\n\n  /**\n   * @dev Private function to add a token to this extension's ownership-tracking data structures.\n   * @param to address representing the new owner of the given token ID\n   * @param tokenId uint256 ID of the token to be added to the tokens list of the given address\n   */\n  function _addTokenToOwnerEnumeration(address to, uint256 tokenId) private {\n    _ownedTokensIndex[tokenId] = _ownedTokens[to].length;\n    _ownedTokens[to].push(tokenId);\n  }\n\n  /**\n   * @dev Private function to add a token to this extension's token tracking data structures.\n   * @param tokenId uint256 ID of the token to be added to the tokens list\n   */\n  function _addTokenToAllTokensEnumeration(uint256 tokenId) private {\n    _allTokensIndex[tokenId] = _allTokens.length;\n    _allTokens.push(tokenId);\n  }\n\n  /**\n   * @dev Private function to remove a token from this extension's ownership-tracking data structures. Note that\n   * while the token is not assigned a new owner, the _ownedTokensIndex mapping is _not_ updated: this allows for\n   * gas optimizations e.g. when performing a transfer operation (avoiding double writes).\n   * This has O(1) time complexity, but alters the order of the _ownedTokens array.\n   * @param from address representing the previous owner of the given token ID\n   * @param tokenId uint256 ID of the token to be removed from the tokens list of the given address\n   */\n  function _removeTokenFromOwnerEnumeration(address from, uint256 tokenId) private {\n    // To prevent a gap in from's tokens array, we store the last token in the index of the token to delete, and\n    // then delete the last slot (swap and pop).\n\n    uint256 lastTokenIndex = _ownedTokens[from].length.sub(1);\n    uint256 tokenIndex = _ownedTokensIndex[tokenId];\n\n    // When the token to delete is the last token, the swap operation is unnecessary\n    if (tokenIndex != lastTokenIndex) {\n      uint256 lastTokenId = _ownedTokens[from][lastTokenIndex];\n\n      _ownedTokens[from][tokenIndex] = lastTokenId; // Move the last token to the slot of the to-delete token\n      _ownedTokensIndex[lastTokenId] = tokenIndex; // Update the moved token's index\n    }\n\n    // This also deletes the contents at the last position of the array\n    _ownedTokens[from].pop();\n\n    // Note that _ownedTokensIndex[tokenId] hasn't been cleared: it still points to the old slot (now occupied by\n    // lastTokenId, or just over the end of the array if the token was the last one).\n  }\n\n  /**\n   * @dev Private function to remove a token from this extension's token tracking data structures.\n   * This has O(1) time complexity, but alters the order of the _allTokens array.\n   * @param tokenId uint256 ID of the token to be removed from the tokens list\n   */\n  function _removeTokenFromAllTokensEnumeration(uint256 tokenId) private {\n    // To prevent a gap in the tokens array, we store the last token in the index of the token to delete, and\n    // then delete the last slot (swap and pop).\n\n    uint256 lastTokenIndex = _allTokens.length.sub(1);\n    uint256 tokenIndex = _allTokensIndex[tokenId];\n\n    // When the token to delete is the last token, the swap operation is unnecessary. However, since this occurs so\n    // rarely (when the last minted token is burnt) that we still do the swap here to avoid the gas cost of adding\n    // an 'if' statement (like in _removeTokenFromOwnerEnumeration)\n    uint256 lastTokenId = _allTokens[lastTokenIndex];\n\n    _allTokens[tokenIndex] = lastTokenId; // Move the last token to the slot of the to-delete token\n    _allTokensIndex[lastTokenId] = tokenIndex; // Update the moved token's index\n\n    // This also deletes the contents at the last position of the array\n    _allTokens.pop();\n    _allTokensIndex[tokenId] = 0;\n  }\n}\n\ncontract ERC721Metadata is ERC721Enumerable, usingProvable {\n  // TODO: Create private vars for token _name, _symbol, and _baseTokenURI (string)\n  string private _name;\n  string private _symbol;\n  string private _baseTokenURI;\n\n  // TODO: create private mapping of tokenId's to token uri's called '_tokenURIs'\n  mapping(uint256 => string) private _tokenURIs;\n\n  bytes4 private constant _INTERFACE_ID_ERC721_METADATA = 0x5b5e139f;\n\n  /*\n   * 0x5b5e139f ===\n   *     bytes4(keccak256('name()')) ^\n   *     bytes4(keccak256('symbol()')) ^\n   *     bytes4(keccak256('tokenURI(uint256)'))\n   */\n\n  constructor(\n    string memory c_name,\n    string memory c_symbol,\n    string memory c_baseTokenURI\n  ) {\n    // TODO: set instance var values\n    _name = c_name;\n    _symbol = c_symbol;\n    _baseTokenURI = c_baseTokenURI;\n\n    _registerInterface(_INTERFACE_ID_ERC721_METADATA);\n  }\n\n  // TODO: create external getter functions for name, symbol, and baseTokenURI\n  function name() external view returns (string memory) {\n    return _name;\n  }\n\n  function symbol() external view returns (string memory) {\n    return _symbol;\n  }\n\n  function baseTokenURI() external view returns (string memory) {\n    return _baseTokenURI;\n  }\n\n  function tokenURI(uint256 tokenId) external view returns (string memory) {\n    require(_exists(tokenId), \"token is not exist\");\n    return _tokenURIs[tokenId];\n  }\n\n  // TODO: Create an internal function to set the tokenURI of a specified tokenId\n  // It should be the _baseTokenURI + the tokenId in string form\n  // TIP #1: use strConcat() from the imported oraclizeAPI lib to set the complete token URI\n  // TIP #2: you can also use uint2str() to convert a uint to a string\n  // see https://github.com/oraclize/ethereum-api/blob/master/oraclizeAPI_0.5.sol for strConcat()\n  // require the token exists before setting\n  function _setTokenURI(uint256 tokenId) internal {\n    require(_exists(tokenId), \"tokenId is not exist\");\n\n    _tokenURIs[tokenId] = strConcat(_baseTokenURI, uint2str(tokenId));\n  }\n}\n\n//  TODO's: Create CustomERC721Token contract that inherits from the ERC721Metadata contract. You can name this contract as you please\n//  1) Pass in appropriate values for the inherited ERC721Metadata contract\n//      - make the base token uri: https://s3-us-west-2.amazonaws.com/udacity-blockchain/capstone/\n//  2) create a public mint() that does the following:\n//      -can only be executed by the contract owner\n//      -takes in a 'to' address, tokenId, and tokenURI as parameters\n//      -returns a true boolean upon completion of the function\n//      -calls the superclass mint and setTokenURI functions\ncontract ERC721TokenRealEstate is ERC721Metadata {\n  constructor()\n    ERC721Metadata(\n      \"ThunderMiracle-RealEstate\",\n      \"TM-RE\",\n      \"https://s3-us-west-2.amazonaws.com/udacity-blockchain/capstone/\"\n    )\n  {}\n\n  function mint(address to, uint256 tokenId) public onlyOwner returns (bool) {\n    super._mint(to, tokenId);\n    super._setTokenURI(tokenId);\n\n    return true;\n  }\n}\n",
  "sourcePath": "/Users/liufeng/Study/nd1309/5_capstone/eth-contracts/contracts/ERC721Mintable.sol",
  "compiler": {
    "name": "solc",
    "version": "0.8.0+commit.c7dfd78e.Emscripten.clang"
  },
  "schemaVersion": "3.4.3",
  "updatedAt": "2021-10-09T09:30:17.166Z",
  "devdoc": {
    "kind": "dev",
    "methods": {
      "__callback(bytes32,string)": {
        "details": "The following `__callback` functions are just placeholders ideally      meant to be defined in child contract when proofs are used.      The function bodies simply silence compiler warnings."
      },
      "isApprovedForAll(address,address)": {
        "details": "Tells whether an operator is approved by a given owner",
        "params": {
          "operator": "operator address which you want to query the approval of",
          "owner": "owner address which you want to query the approval of"
        },
        "returns": {
          "_0": "bool whether the given operator is approved by the given owner"
        }
      },
      "setApprovalForAll(address,bool)": {
        "details": "Sets or unsets the approval of a given operator An operator is allowed to transfer all tokens of the sender on their behalf",
        "params": {
          "approved": "representing the status of the approval to be set",
          "to": "operator address to set the approval"
        }
      },
      "supportsInterface(bytes4)": {
        "details": "implement supportsInterface(bytes4) using a lookup table"
      },
      "tokenByIndex(uint256)": {
        "details": "Gets the token ID at a given index of all the tokens in this contract Reverts if the index is greater or equal to the total number of tokens",
        "params": {
          "index": "uint256 representing the index to be accessed of the tokens list"
        },
        "returns": {
          "_0": "uint256 token ID at the given index of the tokens list"
        }
      },
      "tokenOfOwnerByIndex(address,uint256)": {
        "details": "Gets the token ID at a given index of the tokens list of the requested owner",
        "params": {
          "index": "uint256 representing the index to be accessed of the requested tokens list",
          "owner": "address owning the tokens list to be accessed"
        },
        "returns": {
          "_0": "uint256 token ID at the given index of the tokens list owned by the requested address"
        }
      },
      "totalSupply()": {
        "details": "Gets the total amount of tokens stored by the contract",
        "returns": {
          "_0": "uint256 representing the total amount of tokens"
        }
      }
    },
    "version": 1
  },
  "userdoc": {
    "kind": "user",
    "methods": {},
    "version": 1
  }
}