{
  "contractName": "SolnSquareVerifier",
  "abi": [
    {
      "inputs": [
        {
          "internalType": "address",
          "name": "_verifierAddress",
          "type": "address"
        }
      ],
      "stateMutability": "nonpayable",
      "type": "constructor"
    },
    {
      "anonymous": false,
      "inputs": [
        {
          "indexed": true,
          "internalType": "address",
          "name": "owner",
          "type": "address"
        },
        {
          "indexed": true,
          "internalType": "address",
          "name": "approved",
          "type": "address"
        },
        {
          "indexed": true,
          "internalType": "uint256",
          "name": "tokenId",
          "type": "uint256"
        }
      ],
      "name": "Approval",
      "type": "event"
    },
    {
      "anonymous": false,
      "inputs": [
        {
          "indexed": true,
          "internalType": "address",
          "name": "owner",
          "type": "address"
        },
        {
          "indexed": true,
          "internalType": "address",
          "name": "operator",
          "type": "address"
        },
        {
          "indexed": false,
          "internalType": "bool",
          "name": "approved",
          "type": "bool"
        }
      ],
      "name": "ApprovalForAll",
      "type": "event"
    },
    {
      "anonymous": false,
      "inputs": [
        {
          "indexed": false,
          "internalType": "address",
          "name": "from",
          "type": "address"
        },
        {
          "indexed": false,
          "internalType": "address",
          "name": "to",
          "type": "address"
        }
      ],
      "name": "OwnerChanged",
      "type": "event"
    },
    {
      "anonymous": false,
      "inputs": [
        {
          "indexed": false,
          "internalType": "address",
          "name": "addr",
          "type": "address"
        }
      ],
      "name": "Paused",
      "type": "event"
    },
    {
      "anonymous": false,
      "inputs": [
        {
          "indexed": false,
          "internalType": "address",
          "name": "to",
          "type": "address"
        },
        {
          "indexed": false,
          "internalType": "uint256",
          "name": "tokenId",
          "type": "uint256"
        }
      ],
      "name": "SolutionAdded",
      "type": "event"
    },
    {
      "anonymous": false,
      "inputs": [
        {
          "indexed": true,
          "internalType": "address",
          "name": "from",
          "type": "address"
        },
        {
          "indexed": true,
          "internalType": "address",
          "name": "to",
          "type": "address"
        },
        {
          "indexed": true,
          "internalType": "uint256",
          "name": "tokenId",
          "type": "uint256"
        }
      ],
      "name": "Transfer",
      "type": "event"
    },
    {
      "anonymous": false,
      "inputs": [
        {
          "indexed": false,
          "internalType": "address",
          "name": "addr",
          "type": "address"
        }
      ],
      "name": "Unpaused",
      "type": "event"
    },
    {
      "inputs": [
        {
          "internalType": "bytes32",
          "name": "_myid",
          "type": "bytes32"
        },
        {
          "internalType": "string",
          "name": "_result",
          "type": "string"
        }
      ],
      "name": "__callback",
      "outputs": [],
      "stateMutability": "nonpayable",
      "type": "function"
    },
    {
      "inputs": [
        {
          "internalType": "bytes32",
          "name": "_myid",
          "type": "bytes32"
        },
        {
          "internalType": "string",
          "name": "_result",
          "type": "string"
        },
        {
          "internalType": "bytes",
          "name": "_proof",
          "type": "bytes"
        }
      ],
      "name": "__callback",
      "outputs": [],
      "stateMutability": "nonpayable",
      "type": "function"
    },
    {
      "inputs": [
        {
          "internalType": "address",
          "name": "to",
          "type": "address"
        },
        {
          "internalType": "uint256",
          "name": "tokenId",
          "type": "uint256"
        }
      ],
      "name": "approve",
      "outputs": [],
      "stateMutability": "nonpayable",
      "type": "function"
    },
    {
      "inputs": [
        {
          "internalType": "address",
          "name": "owner",
          "type": "address"
        }
      ],
      "name": "balanceOf",
      "outputs": [
        {
          "internalType": "uint256",
          "name": "",
          "type": "uint256"
        }
      ],
      "stateMutability": "view",
      "type": "function",
      "constant": true
    },
    {
      "inputs": [],
      "name": "baseTokenURI",
      "outputs": [
        {
          "internalType": "string",
          "name": "",
          "type": "string"
        }
      ],
      "stateMutability": "view",
      "type": "function",
      "constant": true
    },
    {
      "inputs": [
        {
          "internalType": "uint256",
          "name": "tokenId",
          "type": "uint256"
        }
      ],
      "name": "getApproved",
      "outputs": [
        {
          "internalType": "address",
          "name": "",
          "type": "address"
        }
      ],
      "stateMutability": "view",
      "type": "function",
      "constant": true
    },
    {
      "inputs": [],
      "name": "getContractOwner",
      "outputs": [
        {
          "internalType": "address",
          "name": "",
          "type": "address"
        }
      ],
      "stateMutability": "view",
      "type": "function",
      "constant": true
    },
    {
      "inputs": [
        {
          "internalType": "address",
          "name": "owner",
          "type": "address"
        },
        {
          "internalType": "address",
          "name": "operator",
          "type": "address"
        }
      ],
      "name": "isApprovedForAll",
      "outputs": [
        {
          "internalType": "bool",
          "name": "",
          "type": "bool"
        }
      ],
      "stateMutability": "view",
      "type": "function",
      "constant": true
    },
    {
      "inputs": [
        {
          "internalType": "address",
          "name": "to",
          "type": "address"
        },
        {
          "internalType": "uint256",
          "name": "tokenId",
          "type": "uint256"
        }
      ],
      "name": "mint",
      "outputs": [
        {
          "internalType": "bool",
          "name": "",
          "type": "bool"
        }
      ],
      "stateMutability": "nonpayable",
      "type": "function"
    },
    {
      "inputs": [],
      "name": "name",
      "outputs": [
        {
          "internalType": "string",
          "name": "",
          "type": "string"
        }
      ],
      "stateMutability": "view",
      "type": "function",
      "constant": true
    },
    {
      "inputs": [
        {
          "internalType": "uint256",
          "name": "tokenId",
          "type": "uint256"
        }
      ],
      "name": "ownerOf",
      "outputs": [
        {
          "internalType": "address",
          "name": "",
          "type": "address"
        }
      ],
      "stateMutability": "view",
      "type": "function",
      "constant": true
    },
    {
      "inputs": [
        {
          "internalType": "address",
          "name": "from",
          "type": "address"
        },
        {
          "internalType": "address",
          "name": "to",
          "type": "address"
        },
        {
          "internalType": "uint256",
          "name": "tokenId",
          "type": "uint256"
        }
      ],
      "name": "safeTransferFrom",
      "outputs": [],
      "stateMutability": "nonpayable",
      "type": "function"
    },
    {
      "inputs": [
        {
          "internalType": "address",
          "name": "from",
          "type": "address"
        },
        {
          "internalType": "address",
          "name": "to",
          "type": "address"
        },
        {
          "internalType": "uint256",
          "name": "tokenId",
          "type": "uint256"
        },
        {
          "internalType": "bytes",
          "name": "_data",
          "type": "bytes"
        }
      ],
      "name": "safeTransferFrom",
      "outputs": [],
      "stateMutability": "nonpayable",
      "type": "function"
    },
    {
      "inputs": [
        {
          "internalType": "address",
          "name": "to",
          "type": "address"
        },
        {
          "internalType": "bool",
          "name": "approved",
          "type": "bool"
        }
      ],
      "name": "setApprovalForAll",
      "outputs": [],
      "stateMutability": "nonpayable",
      "type": "function"
    },
    {
      "inputs": [
        {
          "internalType": "bool",
          "name": "status",
          "type": "bool"
        }
      ],
      "name": "setPauseStatus",
      "outputs": [],
      "stateMutability": "nonpayable",
      "type": "function"
    },
    {
      "inputs": [
        {
          "internalType": "bytes4",
          "name": "interfaceId",
          "type": "bytes4"
        }
      ],
      "name": "supportsInterface",
      "outputs": [
        {
          "internalType": "bool",
          "name": "",
          "type": "bool"
        }
      ],
      "stateMutability": "view",
      "type": "function",
      "constant": true
    },
    {
      "inputs": [],
      "name": "symbol",
      "outputs": [
        {
          "internalType": "string",
          "name": "",
          "type": "string"
        }
      ],
      "stateMutability": "view",
      "type": "function",
      "constant": true
    },
    {
      "inputs": [
        {
          "internalType": "uint256",
          "name": "index",
          "type": "uint256"
        }
      ],
      "name": "tokenByIndex",
      "outputs": [
        {
          "internalType": "uint256",
          "name": "",
          "type": "uint256"
        }
      ],
      "stateMutability": "view",
      "type": "function",
      "constant": true
    },
    {
      "inputs": [
        {
          "internalType": "address",
          "name": "owner",
          "type": "address"
        },
        {
          "internalType": "uint256",
          "name": "index",
          "type": "uint256"
        }
      ],
      "name": "tokenOfOwnerByIndex",
      "outputs": [
        {
          "internalType": "uint256",
          "name": "",
          "type": "uint256"
        }
      ],
      "stateMutability": "view",
      "type": "function",
      "constant": true
    },
    {
      "inputs": [
        {
          "internalType": "uint256",
          "name": "tokenId",
          "type": "uint256"
        }
      ],
      "name": "tokenURI",
      "outputs": [
        {
          "internalType": "string",
          "name": "",
          "type": "string"
        }
      ],
      "stateMutability": "view",
      "type": "function",
      "constant": true
    },
    {
      "inputs": [],
      "name": "totalSupply",
      "outputs": [
        {
          "internalType": "uint256",
          "name": "",
          "type": "uint256"
        }
      ],
      "stateMutability": "view",
      "type": "function",
      "constant": true
    },
    {
      "inputs": [
        {
          "internalType": "address",
          "name": "from",
          "type": "address"
        },
        {
          "internalType": "address",
          "name": "to",
          "type": "address"
        },
        {
          "internalType": "uint256",
          "name": "tokenId",
          "type": "uint256"
        }
      ],
      "name": "transferFrom",
      "outputs": [],
      "stateMutability": "nonpayable",
      "type": "function"
    },
    {
      "inputs": [
        {
          "internalType": "address",
          "name": "newOwner",
          "type": "address"
        }
      ],
      "name": "transferOwnership",
      "outputs": [],
      "stateMutability": "nonpayable",
      "type": "function"
    },
    {
      "inputs": [
        {
          "internalType": "uint256[2]",
          "name": "a",
          "type": "uint256[2]"
        },
        {
          "internalType": "uint256[2][2]",
          "name": "b",
          "type": "uint256[2][2]"
        },
        {
          "internalType": "uint256[2]",
          "name": "c",
          "type": "uint256[2]"
        },
        {
          "internalType": "uint256[2]",
          "name": "input",
          "type": "uint256[2]"
        }
      ],
      "name": "addSolution",
      "outputs": [],
      "stateMutability": "nonpayable",
      "type": "function"
    },
    {
      "inputs": [
        {
          "internalType": "uint256[2]",
          "name": "a",
          "type": "uint256[2]"
        },
        {
          "internalType": "uint256[2][2]",
          "name": "b",
          "type": "uint256[2][2]"
        },
        {
          "internalType": "uint256[2]",
          "name": "c",
          "type": "uint256[2]"
        },
        {
          "internalType": "uint256[2]",
          "name": "input",
          "type": "uint256[2]"
        }
      ],
      "name": "mintNFT",
      "outputs": [
        {
          "internalType": "bool",
          "name": "",
          "type": "bool"
        }
      ],
      "stateMutability": "nonpayable",
      "type": "function"
    }
  ],
  "bytecode": "0x60806040523480156200001157600080fd5b50604051620049ab380380620049ab833981810160405281019062000037919062000481565b6040518060400160405280601981526020017f5468756e6465724d697261636c652d5265616c457374617465000000000000008152506040518060400160405280600581526020017f544d2d52450000000000000000000000000000000000000000000000000000008152506040518060600160405280603f81526020016200496c603f9139336000806101000a81548173ffffffffffffffffffffffffffffffffffffffff021916908373ffffffffffffffffffffffffffffffffffffffff1602179055507fb532073b38c83145e3e5135377a08bf9aab55bc0fd7c1179cd4fb995d2a5159c60008060009054906101000a900473ffffffffffffffffffffffffffffffffffffffff1660405162000152929190620004be565b60405180910390a160008060146101000a81548160ff021916908315150217905550620001b16301ffc9a77c010000000000000000000000000000000000000000000000000000000002620002fe640100000000026401000000009004565b620001ee6380ac58cd7c010000000000000000000000000000000000000000000000000000000002620002fe640100000000026401000000009004565b6200022b63780e9d637c010000000000000000000000000000000000000000000000000000000002620002fe640100000000026401000000009004565b82600f908051906020019062000243929190620003ba565b5081601090805190602001906200025c929190620003ba565b50806011908051906020019062000275929190620003ba565b50620002b3635b5e139f7c010000000000000000000000000000000000000000000000000000000002620002fe640100000000026401000000009004565b50505080601360006101000a81548173ffffffffffffffffffffffffffffffffffffffff021916908373ffffffffffffffffffffffffffffffffffffffff160217905550506200059e565b63ffffffff7c010000000000000000000000000000000000000000000000000000000002817bffffffffffffffffffffffffffffffffffffffffffffffffffffffff191614156200034e57600080fd5b6001806000837bffffffffffffffffffffffffffffffffffffffffffffffffffffffff19167bffffffffffffffffffffffffffffffffffffffffffffffffffffffff1916815260200190815260200160002060006101000a81548160ff02191690831515021790555050565b828054620003c8906200051f565b90600052602060002090601f016020900481019282620003ec576000855562000438565b82601f106200040757805160ff191683800117855562000438565b8280016001018555821562000438579182015b82811115620004375782518255916020019190600101906200041a565b5b5090506200044791906200044b565b5090565b5b80821115620004665760008160009055506001016200044c565b5090565b6000815190506200047b8162000584565b92915050565b6000602082840312156200049457600080fd5b6000620004a4848285016200046a565b91505092915050565b620004b881620004eb565b82525050565b6000604082019050620004d56000830185620004ad565b620004e46020830184620004ad565b9392505050565b6000620004f882620004ff565b9050919050565b600073ffffffffffffffffffffffffffffffffffffffff82169050919050565b600060028204905060018216806200053857607f821691505b602082108114156200054f576200054e62000555565b5b50919050565b7f4e487b7100000000000000000000000000000000000000000000000000000000600052602260045260246000fd5b6200058f81620004eb565b81146200059b57600080fd5b50565b6143be80620005ae6000396000f3fe608060405234801561001057600080fd5b5060043610610190576000357c0100000000000000000000000000000000000000000000000000000000900480634f6ccce7116100fb578063c38bb537116100b4578063e985e9c51161008e578063e985e9c51461048b578063ee810d48146104bb578063f2fde38b146104eb578063f76b44311461050757610190565b8063c38bb53714610421578063c87b56dd1461043d578063d547cfb71461046d57610190565b80634f6ccce71461033b5780636352211e1461036b57806370a082311461039b57806395d89b41146103cb578063a22cb465146103e9578063b88d4fde1461040557610190565b806327dc297e1161014d57806327dc297e146102695780632f745c591461028557806338bbfa50146102b557806340c10f19146102d157806342842e0e14610301578063442890d51461031d57610190565b806301ffc9a71461019557806306fdde03146101c5578063081812fc146101e3578063095ea7b31461021357806318160ddd1461022f57806323b872dd1461024d575b600080fd5b6101af60048036038101906101aa91906132b6565b610523565b6040516101bc9190613c24565b60405180910390f35b6101cd61058b565b6040516101da9190613c3f565b60405180910390f35b6101fd60048036038101906101f89190613308565b61061d565b60405161020a9190613b24565b60405180910390f35b61022d600480360381019061022891906130f0565b61065a565b005b610237610807565b6040516102449190613e41565b60405180910390f35b61026760048036038101906102629190612fea565b610814565b005b610283600480360381019061027e91906131e3565b61086d565b005b61029f600480360381019061029a91906130f0565b6108ef565b6040516102ac9190613e41565b60405180910390f35b6102cf60048036038101906102ca9190613237565b61098f565b005b6102eb60048036038101906102e691906130f0565b6109b3565b6040516102f89190613c24565b60405180910390f35b61031b60048036038101906103169190612fea565b610a60565b005b610325610a80565b6040516103329190613b24565b60405180910390f35b61035560048036038101906103509190613308565b610aa9565b6040516103629190613e41565b60405180910390f35b61038560048036038101906103809190613308565b610b0a565b6040516103929190613b24565b60405180910390f35b6103b560048036038101906103b09190612f85565b610b47565b6040516103c29190613e41565b60405180910390f35b6103d3610b97565b6040516103e09190613c3f565b60405180910390f35b61040360048036038101906103fe91906130b4565b610c29565b005b61041f600480360381019061041a9190613039565b610d5f565b005b61043b60048036038101906104369190613191565b610d85565b005b61045760048036038101906104529190613308565b610eaa565b6040516104649190613c3f565b60405180910390f35b610475610f97565b6040516104829190613c3f565b60405180910390f35b6104a560048036038101906104a09190612fae565b611029565b6040516104b29190613c24565b60405180910390f35b6104d560048036038101906104d0919061312c565b6110bd565b6040516104e29190613c24565b60405180910390f35b61050560048036038101906105009190612f85565b611243565b005b610521600480360381019061051c919061312c565b6113e6565b005b600060016000837bffffffffffffffffffffffffffffffffffffffffffffffffffffffff19167bffffffffffffffffffffffffffffffffffffffffffffffffffffffff1916815260200190815260200160002060009054906101000a900460ff169050919050565b6060600f805461059a9061419c565b80601f01602080910402602001604051908101604052809291908181526020018280546105c69061419c565b80156106135780601f106105e857610100808354040283529160200191610613565b820191906000526020600020905b8154815290600101906020018083116105f657829003601f168201915b5050505050905090565b60006003600083815260200190815260200160002060009054906101000a900473ffffffffffffffffffffffffffffffffffffffff169050919050565b600061066582610b0a565b90508273ffffffffffffffffffffffffffffffffffffffff168173ffffffffffffffffffffffffffffffffffffffff1614156106d6576040517f08c379a00000000000000000000000000000000000000000000000000000000081526004016106cd90613d41565b60405180910390fd5b8073ffffffffffffffffffffffffffffffffffffffff163373ffffffffffffffffffffffffffffffffffffffff16148061071657506107158133611029565b5b610755576040517f08c379a000000000000000000000000000000000000000000000000000000000815260040161074c90613cc1565b60405180910390fd5b826003600084815260200190815260200160002060006101000a81548173ffffffffffffffffffffffffffffffffffffffff021916908373ffffffffffffffffffffffffffffffffffffffff160217905550818373ffffffffffffffffffffffffffffffffffffffff168273ffffffffffffffffffffffffffffffffffffffff167f8c5be1e5ebec7d5bd14f71427d1e84f3dd0314c0f7b2291e5b200ac8c7c3b92560405160405180910390a4505050565b6000600880549050905090565b61081e338261173c565b61085d576040517f08c379a000000000000000000000000000000000000000000000000000000000815260040161085490613c61565b60405180910390fd5b6108688383836117d1565b505050565b6108eb8282600067ffffffffffffffff8111156108b3577f4e487b7100000000000000000000000000000000000000000000000000000000600052604160045260246000fd5b6040519080825280601f01601f1916602001820160405280156108e55781602001600182028036833780820191505090505b5061098f565b5050565b60006108fa83610b47565b821061090557600080fd5b600660008473ffffffffffffffffffffffffffffffffffffffff1673ffffffffffffffffffffffffffffffffffffffff168152602001908152602001600020828154811061097c577f4e487b7100000000000000000000000000000000000000000000000000000000600052603260045260246000fd5b9060005260206000200154905092915050565b6000600102600d600080600102815260200190815260200160002081905550505050565b60003373ffffffffffffffffffffffffffffffffffffffff1660008054906101000a900473ffffffffffffffffffffffffffffffffffffffff1673ffffffffffffffffffffffffffffffffffffffff1614610a43576040517f08c379a0000000000000000000000000000000000000000000000000000000008152600401610a3a90613d61565b60405180910390fd5b610a4d83836117f5565b610a5682611816565b6001905092915050565b610a7b83838360405180602001604052806000815250610d5f565b505050565b60008060009054906101000a900473ffffffffffffffffffffffffffffffffffffffff16905090565b6000610ab3610807565b8210610abe57600080fd5b60088281548110610af8577f4e487b7100000000000000000000000000000000000000000000000000000000600052603260045260246000fd5b90600052602060002001549050919050565b60006002600083815260200190815260200160002060009054906101000a900473ffffffffffffffffffffffffffffffffffffffff169050919050565b6000610b90600460008473ffffffffffffffffffffffffffffffffffffffff1673ffffffffffffffffffffffffffffffffffffffff168152602001908152602001600020611924565b9050919050565b606060108054610ba69061419c565b80601f0160208091040260200160405190810160405280929190818152602001828054610bd29061419c565b8015610c1f5780601f10610bf457610100808354040283529160200191610c1f565b820191906000526020600020905b815481529060010190602001808311610c0257829003601f168201915b5050505050905090565b3373ffffffffffffffffffffffffffffffffffffffff168273ffffffffffffffffffffffffffffffffffffffff161415610c6257600080fd5b80600560003373ffffffffffffffffffffffffffffffffffffffff1673ffffffffffffffffffffffffffffffffffffffff16815260200190815260200160002060008473ffffffffffffffffffffffffffffffffffffffff1673ffffffffffffffffffffffffffffffffffffffff16815260200190815260200160002060006101000a81548160ff0219169083151502179055508173ffffffffffffffffffffffffffffffffffffffff163373ffffffffffffffffffffffffffffffffffffffff167f17307eab39ab6107e8899845ad3d59bd9653f200f220920489ca2b5937696c3183604051610d539190613c24565b60405180910390a35050565b610d6a848484610814565b610d7684848484611932565b610d7f57600080fd5b50505050565b3373ffffffffffffffffffffffffffffffffffffffff1660008054906101000a900473ffffffffffffffffffffffffffffffffffffffff1673ffffffffffffffffffffffffffffffffffffffff1614610e13576040517f08c379a0000000000000000000000000000000000000000000000000000000008152600401610e0a90613d61565b60405180910390fd5b80600060146101000a81548160ff0219169083151502179055508015610e6f577f62e78cea01bee320cd4e420270b5ea74000d11b0c9f74754ebdbfc544b05a25833604051610e629190613b24565b60405180910390a1610ea7565b7f5db9ee0a495bf2e6ff9c91a7834c1ba4fdd244a5e8aa4e537bd38aeae4b073aa33604051610e9e9190613b24565b60405180910390a15b50565b6060610eb582611a81565b610ef4576040517f08c379a0000000000000000000000000000000000000000000000000000000008152600401610eeb90613d21565b60405180910390fd5b601260008381526020019081526020016000208054610f129061419c565b80601f0160208091040260200160405190810160405280929190818152602001828054610f3e9061419c565b8015610f8b5780601f10610f6057610100808354040283529160200191610f8b565b820191906000526020600020905b815481529060010190602001808311610f6e57829003601f168201915b50505050509050919050565b606060118054610fa69061419c565b80601f0160208091040260200160405190810160405280929190818152602001828054610fd29061419c565b801561101f5780601f10610ff45761010080835404028352916020019161101f565b820191906000526020600020905b81548152906001019060200180831161100257829003601f168201915b5050505050905090565b6000600560008473ffffffffffffffffffffffffffffffffffffffff1673ffffffffffffffffffffffffffffffffffffffff16815260200190815260200160002060008373ffffffffffffffffffffffffffffffffffffffff1673ffffffffffffffffffffffffffffffffffffffff16815260200190815260200160002060009054906101000a900460ff16905092915050565b6000806110cc86868686611af3565b9050600060156000838152602001908152602001600020604051806080016040529081600082015481526020016001820160009054906101000a900473ffffffffffffffffffffffffffffffffffffffff1673ffffffffffffffffffffffffffffffffffffffff1673ffffffffffffffffffffffffffffffffffffffff1681526020016001820160149054906101000a900460ff161515151581526020016001820160159054906101000a900460ff161515151581525050905080604001516111ca576040517f08c379a00000000000000000000000000000000000000000000000000000000081526004016111c190613e01565b60405180910390fd5b80606001511561120f576040517f08c379a000000000000000000000000000000000000000000000000000000000815260040161120690613d81565b60405180910390fd5b6000611223826020015183600001516109b3565b905080826060019015159081151581525050809350505050949350505050565b3373ffffffffffffffffffffffffffffffffffffffff1660008054906101000a900473ffffffffffffffffffffffffffffffffffffffff1673ffffffffffffffffffffffffffffffffffffffff16146112d1576040517f08c379a00000000000000000000000000000000000000000000000000000000081526004016112c890613d61565b60405180910390fd5b80600073ffffffffffffffffffffffffffffffffffffffff168173ffffffffffffffffffffffffffffffffffffffff161415611342576040517f08c379a000000000000000000000000000000000000000000000000000000000815260040161133990613d01565b60405180910390fd5b60008060009054906101000a900473ffffffffffffffffffffffffffffffffffffffff169050826000806101000a81548173ffffffffffffffffffffffffffffffffffffffff021916908373ffffffffffffffffffffffffffffffffffffffff1602179055507fb532073b38c83145e3e5135377a08bf9aab55bc0fd7c1179cd4fb995d2a5159c81846040516113d9929190613b3f565b60405180910390a1505050565b600060149054906101000a900460ff1615611436576040517f08c379a000000000000000000000000000000000000000000000000000000000815260040161142d90613e21565b60405180910390fd5b600061144485858585611af3565b9050600073ffffffffffffffffffffffffffffffffffffffff166015600083815260200190815260200160002060010160009054906101000a900473ffffffffffffffffffffffffffffffffffffffff1673ffffffffffffffffffffffffffffffffffffffff16146114eb576040517f08c379a00000000000000000000000000000000000000000000000000000000081526004016114e290613de1565b60405180910390fd5b601360009054906101000a900473ffffffffffffffffffffffffffffffffffffffff1673ffffffffffffffffffffffffffffffffffffffff1663621e9ec0868686866040518563ffffffff167c01000000000000000000000000000000000000000000000000000000000281526004016115689493929190613bdd565b60206040518083038186803b15801561158057600080fd5b505afa158015611594573d6000803e3d6000fd5b505050506040513d601f19601f820116820180604052508101906115b891906131ba565b6115f7576040517f08c379a00000000000000000000000000000000000000000000000000000000081526004016115ee90613ce1565b60405180910390fd5b6000604051806080016040528061160e6014611924565b81526020013373ffffffffffffffffffffffffffffffffffffffff16815260200160011515815260200160001515815250905061164b6014611b2c565b80601560008481526020019081526020016000206000820151816000015560208201518160010160006101000a81548173ffffffffffffffffffffffffffffffffffffffff021916908373ffffffffffffffffffffffffffffffffffffffff16021790555060408201518160010160146101000a81548160ff02191690831515021790555060608201518160010160156101000a81548160ff0219169083151502179055509050507f3a01cc868bdb36c1d9b8a262a8ad25064b23ac175b3f8e4453f1daf8ff6bac0d8160200151826000015160405161172c929190613bb4565b60405180910390a1505050505050565b60008061174883610b0a565b90508073ffffffffffffffffffffffffffffffffffffffff168473ffffffffffffffffffffffffffffffffffffffff1614806117b757508373ffffffffffffffffffffffffffffffffffffffff1661179f8461061d565b73ffffffffffffffffffffffffffffffffffffffff16145b806117c857506117c78185611029565b5b91505092915050565b6117dc838383611b42565b6117e68382611d73565b6117f08282611fa3565b505050565b6117ff8282612067565b6118098282611fa3565b61181281612274565b5050565b61181f81611a81565b61185e576040517f08c379a000000000000000000000000000000000000000000000000000000000815260040161185590613dc1565b60405180910390fd5b6118fa6011805461186e9061419c565b80601f016020809104026020016040519081016040528092919081815260200182805461189a9061419c565b80156118e75780601f106118bc576101008083540402835291602001916118e7565b820191906000526020600020905b8154815290600101906020018083116118ca57829003601f168201915b50505050506118f5836122bd565b61248c565b601260008381526020019081526020016000209080519060200190611920929190612c6b565b5050565b600081600001549050919050565b60006119538473ffffffffffffffffffffffffffffffffffffffff166124d0565b6119605760019050611a79565b60008473ffffffffffffffffffffffffffffffffffffffff1663150b7a02338887876040518563ffffffff167c01000000000000000000000000000000000000000000000000000000000281526004016119bd9493929190613b68565b602060405180830381600087803b1580156119d757600080fd5b505af11580156119eb573d6000803e3d6000fd5b505050506040513d601f19601f82011682018060405250810190611a0f91906132df565b905063150b7a027c0100000000000000000000000000000000000000000000000000000000027bffffffffffffffffffffffffffffffffffffffffffffffffffffffff1916817bffffffffffffffffffffffffffffffffffffffffffffffffffffffff1916149150505b949350505050565b6000806002600084815260200190815260200160002060009054906101000a900473ffffffffffffffffffffffffffffffffffffffff169050600073ffffffffffffffffffffffffffffffffffffffff168173ffffffffffffffffffffffffffffffffffffffff161415915050919050565b600084848484604051602001611b0c9493929190613ad6565b604051602081830303815290604052805190602001209050949350505050565b6001816000016000828254019250508190555050565b81600073ffffffffffffffffffffffffffffffffffffffff168173ffffffffffffffffffffffffffffffffffffffff161415611bb3576040517f08c379a0000000000000000000000000000000000000000000000000000000008152600401611baa90613d01565b60405180910390fd5b611bbc82610b0a565b73ffffffffffffffffffffffffffffffffffffffff168473ffffffffffffffffffffffffffffffffffffffff1614611c29576040517f08c379a0000000000000000000000000000000000000000000000000000000008152600401611c2090613c81565b60405180910390fd5b611c32826124e3565b611c79600460008673ffffffffffffffffffffffffffffffffffffffff1673ffffffffffffffffffffffffffffffffffffffff1681526020019081526020016000206125a1565b611cc0600460008573ffffffffffffffffffffffffffffffffffffffff1673ffffffffffffffffffffffffffffffffffffffff168152602001908152602001600020611b2c565b826002600084815260200190815260200160002060006101000a81548173ffffffffffffffffffffffffffffffffffffffff021916908373ffffffffffffffffffffffffffffffffffffffff160217905550818373ffffffffffffffffffffffffffffffffffffffff168573ffffffffffffffffffffffffffffffffffffffff167fddf252ad1be2c89b69c2b068fc378daa952ba7f163c4a11628f55a4df523b3ef60405160405180910390a450505050565b6000611dcb6001600660008673ffffffffffffffffffffffffffffffffffffffff1673ffffffffffffffffffffffffffffffffffffffff168152602001908152602001600020805490506125fd90919063ffffffff16565b9050600060076000848152602001908152602001600020549050818114611f12576000600660008673ffffffffffffffffffffffffffffffffffffffff1673ffffffffffffffffffffffffffffffffffffffff1681526020019081526020016000208381548110611e65577f4e487b7100000000000000000000000000000000000000000000000000000000600052603260045260246000fd5b9060005260206000200154905080600660008773ffffffffffffffffffffffffffffffffffffffff1673ffffffffffffffffffffffffffffffffffffffff1681526020019081526020016000208381548110611eea577f4e487b7100000000000000000000000000000000000000000000000000000000600052603260045260246000fd5b9060005260206000200181905550816007600083815260200190815260200160002081905550505b600660008573ffffffffffffffffffffffffffffffffffffffff1673ffffffffffffffffffffffffffffffffffffffff168152602001908152602001600020805480611f87577f4e487b7100000000000000000000000000000000000000000000000000000000600052603160045260246000fd5b6001900381819060005260206000200160009055905550505050565b600660008373ffffffffffffffffffffffffffffffffffffffff1673ffffffffffffffffffffffffffffffffffffffff168152602001908152602001600020805490506007600083815260200190815260200160002081905550600660008373ffffffffffffffffffffffffffffffffffffffff1673ffffffffffffffffffffffffffffffffffffffff1681526020019081526020016000208190806001815401808255809150506001900390600052602060002001600090919091909150555050565b81600073ffffffffffffffffffffffffffffffffffffffff168173ffffffffffffffffffffffffffffffffffffffff1614156120d8576040517f08c379a00000000000000000000000000000000000000000000000000000000081526004016120cf90613d01565b60405180910390fd5b600073ffffffffffffffffffffffffffffffffffffffff166002600084815260200190815260200160002060009054906101000a900473ffffffffffffffffffffffffffffffffffffffff1673ffffffffffffffffffffffffffffffffffffffff161461217a576040517f08c379a000000000000000000000000000000000000000000000000000000000815260040161217190613da1565b60405180910390fd5b826002600084815260200190815260200160002060006101000a81548173ffffffffffffffffffffffffffffffffffffffff021916908373ffffffffffffffffffffffffffffffffffffffff160217905550612213600460008573ffffffffffffffffffffffffffffffffffffffff1673ffffffffffffffffffffffffffffffffffffffff168152602001908152602001600020611b2c565b818373ffffffffffffffffffffffffffffffffffffffff16600073ffffffffffffffffffffffffffffffffffffffff167fddf252ad1be2c89b69c2b068fc378daa952ba7f163c4a11628f55a4df523b3ef60405160405180910390a4505050565b6008805490506009600083815260200190815260200160002081905550600881908060018154018082558091505060019003906000526020600020016000909190919091505550565b60606000821415612305576040518060400160405280600181526020017f30000000000000000000000000000000000000000000000000000000000000008152509050612487565b600082905060005b60008214612337578080612320906141ce565b915050600a82612330919061404d565b915061230d565b60008167ffffffffffffffff811115612379577f4e487b7100000000000000000000000000000000000000000000000000000000600052604160045260246000fd5b6040519080825280601f01601f1916602001820160405280156123ab5781602001600182028036833780820191505090505b50905060008290505b6000861461247f57600a866123c99190614217565b60306123d59190613ff7565b7f010000000000000000000000000000000000000000000000000000000000000002828261240290614172565b9250828151811061243c577f4e487b7100000000000000000000000000000000000000000000000000000000600052603260045260246000fd5b60200101907effffffffffffffffffffffffffffffffffffffffffffffffffffffffffffff1916908160001a905350600a86612478919061404d565b95506123b4565b819450505050505b919050565b60606124c88383604051806020016040528060008152506040518060200160405280600081525060405180602001604052806000815250612613565b905092915050565b600080823b905060008111915050919050565b600073ffffffffffffffffffffffffffffffffffffffff166003600083815260200190815260200160002060009054906101000a900473ffffffffffffffffffffffffffffffffffffffff1673ffffffffffffffffffffffffffffffffffffffff161461259e5760006003600083815260200190815260200160002060006101000a81548173ffffffffffffffffffffffffffffffffffffffff021916908373ffffffffffffffffffffffffffffffffffffffff1602179055505b50565b600081600001549050600081116125ed576040517f08c379a00000000000000000000000000000000000000000000000000000000081526004016125e490613ca1565b60405180910390fd5b6001810382600001819055505050565b6000818361260b919061407e565b905092915050565b6060600086905060008690506000869050600086905060008690506000815183518551875189516126449190613ff7565b61264e9190613ff7565b6126589190613ff7565b6126629190613ff7565b67ffffffffffffffff8111156126a1577f4e487b7100000000000000000000000000000000000000000000000000000000600052604160045260246000fd5b6040519080825280601f01601f1916602001820160405280156126d35781602001600182028036833780820191505090505b5090506000819050600080600090505b88518110156127f657888181518110612725577f4e487b7100000000000000000000000000000000000000000000000000000000600052603260045260246000fd5b60200101517f010000000000000000000000000000000000000000000000000000000000000090047f01000000000000000000000000000000000000000000000000000000000000000283838061277b906141ce565b9450815181106127b4577f4e487b7100000000000000000000000000000000000000000000000000000000600052603260045260246000fd5b60200101907effffffffffffffffffffffffffffffffffffffffffffffffffffffffffffff1916908160001a90535080806127ee906141ce565b9150506126e3565b600090505b875181101561290e5787818151811061283d577f4e487b7100000000000000000000000000000000000000000000000000000000600052603260045260246000fd5b60200101517f010000000000000000000000000000000000000000000000000000000000000090047f010000000000000000000000000000000000000000000000000000000000000002838380612893906141ce565b9450815181106128cc577f4e487b7100000000000000000000000000000000000000000000000000000000600052603260045260246000fd5b60200101907effffffffffffffffffffffffffffffffffffffffffffffffffffffffffffff1916908160001a9053508080612906906141ce565b9150506127fb565b600090505b8651811015612a2657868181518110612955577f4e487b7100000000000000000000000000000000000000000000000000000000600052603260045260246000fd5b60200101517f010000000000000000000000000000000000000000000000000000000000000090047f0100000000000000000000000000000000000000000000000000000000000000028383806129ab906141ce565b9450815181106129e4577f4e487b7100000000000000000000000000000000000000000000000000000000600052603260045260246000fd5b60200101907effffffffffffffffffffffffffffffffffffffffffffffffffffffffffffff1916908160001a9053508080612a1e906141ce565b915050612913565b600090505b8551811015612b3e57858181518110612a6d577f4e487b7100000000000000000000000000000000000000000000000000000000600052603260045260246000fd5b60200101517f010000000000000000000000000000000000000000000000000000000000000090047f010000000000000000000000000000000000000000000000000000000000000002838380612ac3906141ce565b945081518110612afc577f4e487b7100000000000000000000000000000000000000000000000000000000600052603260045260246000fd5b60200101907effffffffffffffffffffffffffffffffffffffffffffffffffffffffffffff1916908160001a9053508080612b36906141ce565b915050612a2b565b600090505b8451811015612c5657848181518110612b85577f4e487b7100000000000000000000000000000000000000000000000000000000600052603260045260246000fd5b60200101517f010000000000000000000000000000000000000000000000000000000000000090047f010000000000000000000000000000000000000000000000000000000000000002838380612bdb906141ce565b945081518110612c14577f4e487b7100000000000000000000000000000000000000000000000000000000600052603260045260246000fd5b60200101907effffffffffffffffffffffffffffffffffffffffffffffffffffffffffffff1916908160001a9053508080612c4e906141ce565b915050612b43565b82995050505050505050505095945050505050565b828054612c779061419c565b90600052602060002090601f016020900481019282612c995760008555612ce0565b82601f10612cb257805160ff1916838001178555612ce0565b82800160010185558215612ce0579182015b82811115612cdf578251825591602001919060010190612cc4565b5b509050612ced9190612cf1565b5090565b5b80821115612d0a576000816000905550600101612cf2565b5090565b6000612d21612d1c84613e8d565b613e5c565b90508082856040860282011115612d3757600080fd5b60005b85811015612d675781612d4d8882612e8c565b845260208401935060408301925050600181019050612d3a565b5050509392505050565b6000612d84612d7f84613eb3565b613e5c565b90508082856020860282011115612d9a57600080fd5b60005b85811015612dca5781612db08882612f70565b845260208401935060208301925050600181019050612d9d565b5050509392505050565b6000612de7612de284613ed9565b613e5c565b905082815260208101848484011115612dff57600080fd5b612e0a848285614130565b509392505050565b6000612e25612e2084613f09565b613e5c565b905082815260208101848484011115612e3d57600080fd5b612e48848285614130565b509392505050565b600081359050612e5f81614315565b92915050565b600082601f830112612e7657600080fd5b6002612e83848285612d0e565b91505092915050565b600082601f830112612e9d57600080fd5b6002612eaa848285612d71565b91505092915050565b600081359050612ec28161432c565b92915050565b600081519050612ed78161432c565b92915050565b600081359050612eec81614343565b92915050565b600081359050612f018161435a565b92915050565b600081519050612f168161435a565b92915050565b600082601f830112612f2d57600080fd5b8135612f3d848260208601612dd4565b91505092915050565b600082601f830112612f5757600080fd5b8135612f67848260208601612e12565b91505092915050565b600081359050612f7f81614371565b92915050565b600060208284031215612f9757600080fd5b6000612fa584828501612e50565b91505092915050565b60008060408385031215612fc157600080fd5b6000612fcf85828601612e50565b9250506020612fe085828601612e50565b9150509250929050565b600080600060608486031215612fff57600080fd5b600061300d86828701612e50565b935050602061301e86828701612e50565b925050604061302f86828701612f70565b9150509250925092565b6000806000806080858703121561304f57600080fd5b600061305d87828801612e50565b945050602061306e87828801612e50565b935050604061307f87828801612f70565b925050606085013567ffffffffffffffff81111561309c57600080fd5b6130a887828801612f1c565b91505092959194509250565b600080604083850312156130c757600080fd5b60006130d585828601612e50565b92505060206130e685828601612eb3565b9150509250929050565b6000806040838503121561310357600080fd5b600061311185828601612e50565b925050602061312285828601612f70565b9150509250929050565b600080600080610140858703121561314357600080fd5b600061315187828801612e8c565b945050604061316287828801612e65565b93505060c061317387828801612e8c565b92505061010061318587828801612e8c565b91505092959194509250565b6000602082840312156131a357600080fd5b60006131b184828501612eb3565b91505092915050565b6000602082840312156131cc57600080fd5b60006131da84828501612ec8565b91505092915050565b600080604083850312156131f657600080fd5b600061320485828601612edd565b925050602083013567ffffffffffffffff81111561322157600080fd5b61322d85828601612f46565b9150509250929050565b60008060006060848603121561324c57600080fd5b600061325a86828701612edd565b935050602084013567ffffffffffffffff81111561327757600080fd5b61328386828701612f46565b925050604084013567ffffffffffffffff8111156132a057600080fd5b6132ac86828701612f1c565b9150509250925092565b6000602082840312156132c857600080fd5b60006132d684828501612ef2565b91505092915050565b6000602082840312156132f157600080fd5b60006132ff84828501612f07565b91505092915050565b60006020828403121561331a57600080fd5b600061332884828501612f70565b91505092915050565b600061333d838361344e565b60408301905092915050565b600061335583836134fc565b60408301905092915050565b600061336d8383613aa9565b60208301905092915050565b60006133858383613ac7565b60208301905092915050565b61339a816140b2565b82525050565b6133a981613f4d565b6133b38184613f93565b92506133be82613f39565b8060005b838110156133ef5781516133d68782613331565b96506133e183613f79565b9250506001810190506133c2565b505050505050565b61340081613f4d565b61340a8184613f9e565b925061341582613f39565b8060005b8381101561344657815161342d8782613349565b965061343883613f79565b925050600181019050613419565b505050505050565b61345781613f58565b6134618184613fa9565b925061346c82613f43565b8060005b8381101561349d5781516134848782613361565b965061348f83613f86565b925050600181019050613470565b505050505050565b6134ae81613f58565b6134b88184613fb4565b92506134c382613f43565b8060005b838110156134f45781516134db8782613361565b96506134e683613f86565b9250506001810190506134c7565b505050505050565b61350581613f58565b61350f8184613fbf565b925061351a82613f43565b8060005b8381101561354b5781516135328782613379565b965061353d83613f86565b92505060018101905061351e565b505050505050565b61355c81613f58565b6135668184613fca565b925061357182613f43565b8060005b838110156135a25781516135898782613379565b965061359483613f86565b925050600181019050613575565b505050505050565b6135b3816140c4565b82525050565b60006135c482613f63565b6135ce8185613fd5565b93506135de81856020860161413f565b6135e781614304565b840191505092915050565b60006135fd82613f6e565b6136078185613fe6565b935061361781856020860161413f565b61362081614304565b840191505092915050565b6000613638602a83613fe6565b91507f7065726d697373696f6e20697320726571756972656420746f207472616e736660008301527f657220746f6b656e4964000000000000000000000000000000000000000000006020830152604082019050919050565b600061369e603083613fe6565b91507f46726f6d2061646472657373206973206e6f7420746865206f776e6572206f6660008301527f2074686520676976656e20746f6b656e000000000000000000000000000000006020830152604082019050919050565b6000613704601b83613fe6565b91507f436f756e7465723a2064656372656d656e74206f766572666c6f7700000000006000830152602082019050919050565b6000613744604483613fe6565b91507f4d6573736167652073656e646572206d75737420626520746865206f776e657260008301527f206f7220686173206265656e20617070726f76656420627920746f6b656e206f60208301527f776e6572000000000000000000000000000000000000000000000000000000006040830152606082019050919050565b60006137d0601b83613fe6565b91507f536f6c7574696f6e2063616e6e6f7420626520766572696669656400000000006000830152602082019050919050565b6000613810601783613fe6565b91507f4d75737420626520612076616c696420616464726573730000000000000000006000830152602082019050919050565b6000613850601283613fe6565b91507f746f6b656e206973206e6f7420657869737400000000000000000000000000006000830152602082019050919050565b6000613890603283613fe6565b91507f476976656e20616464726573732073686f756c64206e6f74206265207468652060008301527f6f776e6572206f662074686520746f6b656e00000000000000000000000000006020830152604082019050919050565b60006138f6601583613fe6565b91507f4f6e6c79206f776e657220697320616c6c6f77656400000000000000000000006000830152602082019050919050565b6000613936601b83613fe6565b91507f546f6b652068617320616c72656179206265656e206d696e74656400000000006000830152602082019050919050565b6000613976601683613fe6565b91507f746f6b656e20697320616c7265616479206578697374000000000000000000006000830152602082019050919050565b60006139b6601483613fe6565b91507f746f6b656e4964206973206e6f742065786973740000000000000000000000006000830152602082019050919050565b60006139f6601983613fe6565b91507f536f6c7574696f6e20697320616c7265616479206578697374000000000000006000830152602082019050919050565b6000613a36601583613fe6565b91507f546f6b656e206973206e6f7420766572696669656400000000000000000000006000830152602082019050919050565b6000613a76601d83613fe6565b91507f436f6e7472616374206973206e6f7420617661696c61626c65206e6f770000006000830152602082019050919050565b613ab281614126565b82525050565b613ac181614126565b82525050565b613ad081614126565b82525050565b6000613ae28287613553565b604082019150613af282866133f7565b608082019150613b028285613553565b604082019150613b128284613553565b60408201915081905095945050505050565b6000602082019050613b396000830184613391565b92915050565b6000604082019050613b546000830185613391565b613b616020830184613391565b9392505050565b6000608082019050613b7d6000830187613391565b613b8a6020830186613391565b613b976040830185613ab8565b8181036060830152613ba981846135b9565b905095945050505050565b6000604082019050613bc96000830185613391565b613bd66020830184613ab8565b9392505050565b600061014082019050613bf360008301876134a5565b613c0060408301866133a0565b613c0d60c08301856134a5565b613c1b6101008301846134a5565b95945050505050565b6000602082019050613c3960008301846135aa565b92915050565b60006020820190508181036000830152613c5981846135f2565b905092915050565b60006020820190508181036000830152613c7a8161362b565b9050919050565b60006020820190508181036000830152613c9a81613691565b9050919050565b60006020820190508181036000830152613cba816136f7565b9050919050565b60006020820190508181036000830152613cda81613737565b9050919050565b60006020820190508181036000830152613cfa816137c3565b9050919050565b60006020820190508181036000830152613d1a81613803565b9050919050565b60006020820190508181036000830152613d3a81613843565b9050919050565b60006020820190508181036000830152613d5a81613883565b9050919050565b60006020820190508181036000830152613d7a816138e9565b9050919050565b60006020820190508181036000830152613d9a81613929565b9050919050565b60006020820190508181036000830152613dba81613969565b9050919050565b60006020820190508181036000830152613dda816139a9565b9050919050565b60006020820190508181036000830152613dfa816139e9565b9050919050565b60006020820190508181036000830152613e1a81613a29565b9050919050565b60006020820190508181036000830152613e3a81613a69565b9050919050565b6000602082019050613e566000830184613ab8565b92915050565b6000604051905081810181811067ffffffffffffffff82111715613e8357613e826142d5565b5b8060405250919050565b600067ffffffffffffffff821115613ea857613ea76142d5565b5b602082029050919050565b600067ffffffffffffffff821115613ece57613ecd6142d5565b5b602082029050919050565b600067ffffffffffffffff821115613ef457613ef36142d5565b5b601f19601f8301169050602081019050919050565b600067ffffffffffffffff821115613f2457613f236142d5565b5b601f19601f8301169050602081019050919050565b6000819050919050565b6000819050919050565b600060029050919050565b600060029050919050565b600081519050919050565b600081519050919050565b6000602082019050919050565b6000602082019050919050565b600081905092915050565b600081905092915050565b600081905092915050565b600081905092915050565b600081905092915050565b600081905092915050565b600082825260208201905092915050565b600082825260208201905092915050565b600061400282614126565b915061400d83614126565b9250827fffffffffffffffffffffffffffffffffffffffffffffffffffffffffffffffff0382111561404257614041614248565b5b828201905092915050565b600061405882614126565b915061406383614126565b92508261407357614072614277565b5b828204905092915050565b600061408982614126565b915061409483614126565b9250828210156140a7576140a6614248565b5b828203905092915050565b60006140bd82614106565b9050919050565b60008115159050919050565b6000819050919050565b60007fffffffff0000000000000000000000000000000000000000000000000000000082169050919050565b600073ffffffffffffffffffffffffffffffffffffffff82169050919050565b6000819050919050565b82818337600083830152505050565b60005b8381101561415d578082015181840152602081019050614142565b8381111561416c576000848401525b50505050565b600061417d82614126565b9150600082141561419157614190614248565b5b600182039050919050565b600060028204905060018216806141b457607f821691505b602082108114156141c8576141c76142a6565b5b50919050565b60006141d982614126565b91507fffffffffffffffffffffffffffffffffffffffffffffffffffffffffffffffff82141561420c5761420b614248565b5b600182019050919050565b600061422282614126565b915061422d83614126565b92508261423d5761423c614277565b5b828206905092915050565b7f4e487b7100000000000000000000000000000000000000000000000000000000600052601160045260246000fd5b7f4e487b7100000000000000000000000000000000000000000000000000000000600052601260045260246000fd5b7f4e487b7100000000000000000000000000000000000000000000000000000000600052602260045260246000fd5b7f4e487b7100000000000000000000000000000000000000000000000000000000600052604160045260246000fd5b6000601f19601f8301169050919050565b61431e816140b2565b811461432957600080fd5b50565b614335816140c4565b811461434057600080fd5b50565b61434c816140d0565b811461435757600080fd5b50565b614363816140da565b811461436e57600080fd5b50565b61437a81614126565b811461438557600080fd5b5056fea26469706673582212202a10425f055f81b7ac512894c1d35ff2c49cdc193367cd521e9a1e754473627764736f6c6343000800003368747470733a2f2f73332d75732d776573742d322e616d617a6f6e6177732e636f6d2f756461636974792d626c6f636b636861696e2f63617073746f6e652f",
  "immutableReferences": {},
  "source": "// SPDX-License-Identifier: MIT\npragma solidity ^0.8.0;\n\n// TODO define a contract call to the zokrates generated solidity contract <Verifier> or <renamedVerifier>\nimport \"@openzeppelin/contracts/utils/Counters.sol\";\nimport \"./ERC721Mintable.sol\";\nimport \"./SquareVerifier.sol\";\n\n// TODO define another contract named SolnSquareVerifier that inherits from your ERC721Mintable class\ncontract SolnSquareVerifier is ERC721TokenRealEstate {\n  using Counters for Counters.Counter;\n\n  // TODO define a solutions struct that can hold an index & an address\n  struct Solution {\n    uint256 tokenId;\n    address to;\n    bool isVerified;\n    bool isMinted;\n  }\n\n  SquareVerifier private verifier;\n\n  // TODO define an array of the above struct\n  Counters.Counter private solutionIndex;\n\n  // TODO define a mapping to store unique solutions submitted\n  mapping(bytes32 => Solution) private solutions;\n\n  constructor(address _verifierAddress) ERC721TokenRealEstate() {\n    verifier = SquareVerifier(_verifierAddress);\n  }\n\n  // TODO Create an event to emit when a solution is added\n  event SolutionAdded(address to, uint256 tokenId);\n\n  function getSolutionKey(\n    uint256[2] memory a,\n    uint256[2][2] memory b,\n    uint256[2] memory c,\n    uint256[2] memory input\n  ) internal pure returns (bytes32) {\n    return keccak256(abi.encodePacked(a, b, c, input));\n  }\n\n  // TODO Create a function to add the solutions to the array and emit the event\n  function addSolution(\n    uint256[2] memory a,\n    uint256[2][2] memory b,\n    uint256[2] memory c,\n    uint256[2] memory input\n  ) public withNotPaused {\n    bytes32 solutionKey = getSolutionKey(a, b, c, input);\n    require(solutions[solutionKey].to == address(0), \"Solution is already exist\");\n\n    // verify input\n    require(verifier.verifyTx(a, b, c, input), \"Solution cannot be verified\");\n\n    // add to solutions\n    Solution memory solution = Solution({\n      tokenId: solutionIndex.current(),\n      to: msg.sender,\n      isVerified: true,\n      isMinted: false\n    });\n    solutionIndex.increment();\n    solutions[solutionKey] = solution;\n\n    emit SolutionAdded(solution.to, solution.tokenId);\n  }\n\n  // TODO Create a function to mint new NFT only after the solution has been verified\n  //  - make sure the solution is unique (has not been used before)\n  //  - make sure you handle metadata as well as tokenSuplly\n  function mintNFT(\n    uint256[2] memory a,\n    uint256[2][2] memory b,\n    uint256[2] memory c,\n    uint256[2] memory input\n  ) public returns (bool) {\n    bytes32 solutionKey = getSolutionKey(a, b, c, input);\n    Solution memory solution = solutions[solutionKey];\n    require(solution.isVerified, \"Token is not verified\");\n    require(!solution.isMinted, \"Toke has alreay been minted\");\n\n    bool isMinted = mint(solution.to, solution.tokenId);\n    solution.isMinted = isMinted;\n\n    return isMinted;\n  }\n}\n",
  "sourcePath": "/Users/liufeng/Study/nd1309/5_capstone/eth-contracts/contracts/SolnSquareVerifier.sol",
  "compiler": {
    "name": "solc",
    "version": "0.8.0+commit.c7dfd78e.Emscripten.clang"
  },
  "schemaVersion": "3.4.3",
  "updatedAt": "2021-10-11T12:55:44.873Z",
  "networkType": "ethereum",
  "devdoc": {
    "kind": "dev",
    "methods": {
      "__callback(bytes32,string)": {
        "details": "The following `__callback` functions are just placeholders ideally      meant to be defined in child contract when proofs are used.      The function bodies simply silence compiler warnings."
      },
      "isApprovedForAll(address,address)": {
        "details": "Tells whether an operator is approved by a given owner",
        "params": {
          "operator": "operator address which you want to query the approval of",
          "owner": "owner address which you want to query the approval of"
        },
        "returns": {
          "_0": "bool whether the given operator is approved by the given owner"
        }
      },
      "setApprovalForAll(address,bool)": {
        "details": "Sets or unsets the approval of a given operator An operator is allowed to transfer all tokens of the sender on their behalf",
        "params": {
          "approved": "representing the status of the approval to be set",
          "to": "operator address to set the approval"
        }
      },
      "supportsInterface(bytes4)": {
        "details": "implement supportsInterface(bytes4) using a lookup table"
      },
      "tokenByIndex(uint256)": {
        "details": "Gets the token ID at a given index of all the tokens in this contract Reverts if the index is greater or equal to the total number of tokens",
        "params": {
          "index": "uint256 representing the index to be accessed of the tokens list"
        },
        "returns": {
          "_0": "uint256 token ID at the given index of the tokens list"
        }
      },
      "tokenOfOwnerByIndex(address,uint256)": {
        "details": "Gets the token ID at a given index of the tokens list of the requested owner",
        "params": {
          "index": "uint256 representing the index to be accessed of the requested tokens list",
          "owner": "address owning the tokens list to be accessed"
        },
        "returns": {
          "_0": "uint256 token ID at the given index of the tokens list owned by the requested address"
        }
      },
      "totalSupply()": {
        "details": "Gets the total amount of tokens stored by the contract",
        "returns": {
          "_0": "uint256 representing the total amount of tokens"
        }
      }
    },
    "version": 1
  },
  "userdoc": {
    "kind": "user",
    "methods": {},
    "version": 1
  }
}