{
  "contractName": "SolnSquareVerifier",
  "abi": [
    {
      "inputs": [
        {
          "internalType": "address",
          "name": "_verifierAddress",
          "type": "address"
        }
      ],
      "stateMutability": "nonpayable",
      "type": "constructor"
    },
    {
      "anonymous": false,
      "inputs": [
        {
          "indexed": true,
          "internalType": "address",
          "name": "owner",
          "type": "address"
        },
        {
          "indexed": true,
          "internalType": "address",
          "name": "approved",
          "type": "address"
        },
        {
          "indexed": true,
          "internalType": "uint256",
          "name": "tokenId",
          "type": "uint256"
        }
      ],
      "name": "Approval",
      "type": "event"
    },
    {
      "anonymous": false,
      "inputs": [
        {
          "indexed": true,
          "internalType": "address",
          "name": "owner",
          "type": "address"
        },
        {
          "indexed": true,
          "internalType": "address",
          "name": "operator",
          "type": "address"
        },
        {
          "indexed": false,
          "internalType": "bool",
          "name": "approved",
          "type": "bool"
        }
      ],
      "name": "ApprovalForAll",
      "type": "event"
    },
    {
      "anonymous": false,
      "inputs": [
        {
          "indexed": false,
          "internalType": "address",
          "name": "from",
          "type": "address"
        },
        {
          "indexed": false,
          "internalType": "address",
          "name": "to",
          "type": "address"
        }
      ],
      "name": "OwnerChanged",
      "type": "event"
    },
    {
      "anonymous": false,
      "inputs": [
        {
          "indexed": false,
          "internalType": "address",
          "name": "addr",
          "type": "address"
        }
      ],
      "name": "Paused",
      "type": "event"
    },
    {
      "anonymous": false,
      "inputs": [
        {
          "indexed": false,
          "internalType": "address",
          "name": "to",
          "type": "address"
        },
        {
          "indexed": false,
          "internalType": "uint256",
          "name": "tokenId",
          "type": "uint256"
        }
      ],
      "name": "SolutionAdded",
      "type": "event"
    },
    {
      "anonymous": false,
      "inputs": [
        {
          "indexed": true,
          "internalType": "address",
          "name": "from",
          "type": "address"
        },
        {
          "indexed": true,
          "internalType": "address",
          "name": "to",
          "type": "address"
        },
        {
          "indexed": true,
          "internalType": "uint256",
          "name": "tokenId",
          "type": "uint256"
        }
      ],
      "name": "Transfer",
      "type": "event"
    },
    {
      "anonymous": false,
      "inputs": [
        {
          "indexed": false,
          "internalType": "address",
          "name": "addr",
          "type": "address"
        }
      ],
      "name": "Unpaused",
      "type": "event"
    },
    {
      "inputs": [
        {
          "internalType": "bytes32",
          "name": "_myid",
          "type": "bytes32"
        },
        {
          "internalType": "string",
          "name": "_result",
          "type": "string"
        }
      ],
      "name": "__callback",
      "outputs": [],
      "stateMutability": "nonpayable",
      "type": "function"
    },
    {
      "inputs": [
        {
          "internalType": "bytes32",
          "name": "_myid",
          "type": "bytes32"
        },
        {
          "internalType": "string",
          "name": "_result",
          "type": "string"
        },
        {
          "internalType": "bytes",
          "name": "_proof",
          "type": "bytes"
        }
      ],
      "name": "__callback",
      "outputs": [],
      "stateMutability": "nonpayable",
      "type": "function"
    },
    {
      "inputs": [
        {
          "internalType": "address",
          "name": "to",
          "type": "address"
        },
        {
          "internalType": "uint256",
          "name": "tokenId",
          "type": "uint256"
        }
      ],
      "name": "approve",
      "outputs": [],
      "stateMutability": "nonpayable",
      "type": "function"
    },
    {
      "inputs": [
        {
          "internalType": "address",
          "name": "owner",
          "type": "address"
        }
      ],
      "name": "balanceOf",
      "outputs": [
        {
          "internalType": "uint256",
          "name": "",
          "type": "uint256"
        }
      ],
      "stateMutability": "view",
      "type": "function",
      "constant": true
    },
    {
      "inputs": [],
      "name": "baseTokenURI",
      "outputs": [
        {
          "internalType": "string",
          "name": "",
          "type": "string"
        }
      ],
      "stateMutability": "view",
      "type": "function",
      "constant": true
    },
    {
      "inputs": [
        {
          "internalType": "uint256",
          "name": "tokenId",
          "type": "uint256"
        }
      ],
      "name": "getApproved",
      "outputs": [
        {
          "internalType": "address",
          "name": "",
          "type": "address"
        }
      ],
      "stateMutability": "view",
      "type": "function",
      "constant": true
    },
    {
      "inputs": [],
      "name": "getContractOwner",
      "outputs": [
        {
          "internalType": "address",
          "name": "",
          "type": "address"
        }
      ],
      "stateMutability": "view",
      "type": "function",
      "constant": true
    },
    {
      "inputs": [
        {
          "internalType": "address",
          "name": "owner",
          "type": "address"
        },
        {
          "internalType": "address",
          "name": "operator",
          "type": "address"
        }
      ],
      "name": "isApprovedForAll",
      "outputs": [
        {
          "internalType": "bool",
          "name": "",
          "type": "bool"
        }
      ],
      "stateMutability": "view",
      "type": "function",
      "constant": true
    },
    {
      "inputs": [
        {
          "internalType": "address",
          "name": "to",
          "type": "address"
        },
        {
          "internalType": "uint256",
          "name": "tokenId",
          "type": "uint256"
        }
      ],
      "name": "mint",
      "outputs": [
        {
          "internalType": "bool",
          "name": "",
          "type": "bool"
        }
      ],
      "stateMutability": "nonpayable",
      "type": "function"
    },
    {
      "inputs": [],
      "name": "name",
      "outputs": [
        {
          "internalType": "string",
          "name": "",
          "type": "string"
        }
      ],
      "stateMutability": "view",
      "type": "function",
      "constant": true
    },
    {
      "inputs": [
        {
          "internalType": "uint256",
          "name": "tokenId",
          "type": "uint256"
        }
      ],
      "name": "ownerOf",
      "outputs": [
        {
          "internalType": "address",
          "name": "",
          "type": "address"
        }
      ],
      "stateMutability": "view",
      "type": "function",
      "constant": true
    },
    {
      "inputs": [
        {
          "internalType": "address",
          "name": "from",
          "type": "address"
        },
        {
          "internalType": "address",
          "name": "to",
          "type": "address"
        },
        {
          "internalType": "uint256",
          "name": "tokenId",
          "type": "uint256"
        }
      ],
      "name": "safeTransferFrom",
      "outputs": [],
      "stateMutability": "nonpayable",
      "type": "function"
    },
    {
      "inputs": [
        {
          "internalType": "address",
          "name": "from",
          "type": "address"
        },
        {
          "internalType": "address",
          "name": "to",
          "type": "address"
        },
        {
          "internalType": "uint256",
          "name": "tokenId",
          "type": "uint256"
        },
        {
          "internalType": "bytes",
          "name": "_data",
          "type": "bytes"
        }
      ],
      "name": "safeTransferFrom",
      "outputs": [],
      "stateMutability": "nonpayable",
      "type": "function"
    },
    {
      "inputs": [
        {
          "internalType": "address",
          "name": "to",
          "type": "address"
        },
        {
          "internalType": "bool",
          "name": "approved",
          "type": "bool"
        }
      ],
      "name": "setApprovalForAll",
      "outputs": [],
      "stateMutability": "nonpayable",
      "type": "function"
    },
    {
      "inputs": [
        {
          "internalType": "bool",
          "name": "status",
          "type": "bool"
        }
      ],
      "name": "setPauseStatus",
      "outputs": [],
      "stateMutability": "nonpayable",
      "type": "function"
    },
    {
      "inputs": [
        {
          "internalType": "bytes4",
          "name": "interfaceId",
          "type": "bytes4"
        }
      ],
      "name": "supportsInterface",
      "outputs": [
        {
          "internalType": "bool",
          "name": "",
          "type": "bool"
        }
      ],
      "stateMutability": "view",
      "type": "function",
      "constant": true
    },
    {
      "inputs": [],
      "name": "symbol",
      "outputs": [
        {
          "internalType": "string",
          "name": "",
          "type": "string"
        }
      ],
      "stateMutability": "view",
      "type": "function",
      "constant": true
    },
    {
      "inputs": [
        {
          "internalType": "uint256",
          "name": "index",
          "type": "uint256"
        }
      ],
      "name": "tokenByIndex",
      "outputs": [
        {
          "internalType": "uint256",
          "name": "",
          "type": "uint256"
        }
      ],
      "stateMutability": "view",
      "type": "function",
      "constant": true
    },
    {
      "inputs": [
        {
          "internalType": "address",
          "name": "owner",
          "type": "address"
        },
        {
          "internalType": "uint256",
          "name": "index",
          "type": "uint256"
        }
      ],
      "name": "tokenOfOwnerByIndex",
      "outputs": [
        {
          "internalType": "uint256",
          "name": "",
          "type": "uint256"
        }
      ],
      "stateMutability": "view",
      "type": "function",
      "constant": true
    },
    {
      "inputs": [
        {
          "internalType": "uint256",
          "name": "tokenId",
          "type": "uint256"
        }
      ],
      "name": "tokenURI",
      "outputs": [
        {
          "internalType": "string",
          "name": "",
          "type": "string"
        }
      ],
      "stateMutability": "view",
      "type": "function",
      "constant": true
    },
    {
      "inputs": [],
      "name": "totalSupply",
      "outputs": [
        {
          "internalType": "uint256",
          "name": "",
          "type": "uint256"
        }
      ],
      "stateMutability": "view",
      "type": "function",
      "constant": true
    },
    {
      "inputs": [
        {
          "internalType": "address",
          "name": "from",
          "type": "address"
        },
        {
          "internalType": "address",
          "name": "to",
          "type": "address"
        },
        {
          "internalType": "uint256",
          "name": "tokenId",
          "type": "uint256"
        }
      ],
      "name": "transferFrom",
      "outputs": [],
      "stateMutability": "nonpayable",
      "type": "function"
    },
    {
      "inputs": [
        {
          "internalType": "address",
          "name": "newOwner",
          "type": "address"
        }
      ],
      "name": "transferOwnership",
      "outputs": [],
      "stateMutability": "nonpayable",
      "type": "function"
    },
    {
      "inputs": [
        {
          "internalType": "uint256[2]",
          "name": "a",
          "type": "uint256[2]"
        },
        {
          "internalType": "uint256[2][2]",
          "name": "b",
          "type": "uint256[2][2]"
        },
        {
          "internalType": "uint256[2]",
          "name": "c",
          "type": "uint256[2]"
        },
        {
          "internalType": "uint256[2]",
          "name": "input",
          "type": "uint256[2]"
        }
      ],
      "name": "addSolution",
      "outputs": [],
      "stateMutability": "nonpayable",
      "type": "function"
    },
    {
      "inputs": [
        {
          "internalType": "uint256[2]",
          "name": "a",
          "type": "uint256[2]"
        },
        {
          "internalType": "uint256[2][2]",
          "name": "b",
          "type": "uint256[2][2]"
        },
        {
          "internalType": "uint256[2]",
          "name": "c",
          "type": "uint256[2]"
        },
        {
          "internalType": "uint256[2]",
          "name": "input",
          "type": "uint256[2]"
        }
      ],
      "name": "mintNFT",
      "outputs": [
        {
          "internalType": "bool",
          "name": "",
          "type": "bool"
        }
      ],
      "stateMutability": "nonpayable",
      "type": "function"
    }
  ],
  "bytecode": "0x60806040523480156200001157600080fd5b50604051620048f0380380620048f0833981810160405281019062000037919062000481565b6040518060400160405280601981526020017f5468756e6465724d697261636c652d5265616c457374617465000000000000008152506040518060400160405280600581526020017f544d2d52450000000000000000000000000000000000000000000000000000008152506040518060600160405280603f8152602001620048b1603f9139336000806101000a81548173ffffffffffffffffffffffffffffffffffffffff021916908373ffffffffffffffffffffffffffffffffffffffff1602179055507fb532073b38c83145e3e5135377a08bf9aab55bc0fd7c1179cd4fb995d2a5159c60008060009054906101000a900473ffffffffffffffffffffffffffffffffffffffff1660405162000152929190620004be565b60405180910390a160008060146101000a81548160ff021916908315150217905550620001b16301ffc9a77c010000000000000000000000000000000000000000000000000000000002620002fe640100000000026401000000009004565b620001ee6380ac58cd7c010000000000000000000000000000000000000000000000000000000002620002fe640100000000026401000000009004565b6200022b63780e9d637c010000000000000000000000000000000000000000000000000000000002620002fe640100000000026401000000009004565b82600f908051906020019062000243929190620003ba565b5081601090805190602001906200025c929190620003ba565b50806011908051906020019062000275929190620003ba565b50620002b3635b5e139f7c010000000000000000000000000000000000000000000000000000000002620002fe640100000000026401000000009004565b50505080601360006101000a81548173ffffffffffffffffffffffffffffffffffffffff021916908373ffffffffffffffffffffffffffffffffffffffff160217905550506200059e565b63ffffffff7c010000000000000000000000000000000000000000000000000000000002817bffffffffffffffffffffffffffffffffffffffffffffffffffffffff191614156200034e57600080fd5b6001806000837bffffffffffffffffffffffffffffffffffffffffffffffffffffffff19167bffffffffffffffffffffffffffffffffffffffffffffffffffffffff1916815260200190815260200160002060006101000a81548160ff02191690831515021790555050565b828054620003c8906200051f565b90600052602060002090601f016020900481019282620003ec576000855562000438565b82601f106200040757805160ff191683800117855562000438565b8280016001018555821562000438579182015b82811115620004375782518255916020019190600101906200041a565b5b5090506200044791906200044b565b5090565b5b80821115620004665760008160009055506001016200044c565b5090565b6000815190506200047b8162000584565b92915050565b6000602082840312156200049457600080fd5b6000620004a4848285016200046a565b91505092915050565b620004b881620004eb565b82525050565b6000604082019050620004d56000830185620004ad565b620004e46020830184620004ad565b9392505050565b6000620004f882620004ff565b9050919050565b600073ffffffffffffffffffffffffffffffffffffffff82169050919050565b600060028204905060018216806200053857607f821691505b602082108114156200054f576200054e62000555565b5b50919050565b7f4e487b7100000000000000000000000000000000000000000000000000000000600052602260045260246000fd5b6200058f81620004eb565b81146200059b57600080fd5b50565b61430380620005ae6000396000f3fe608060405234801561001057600080fd5b5060043610610190576000357c0100000000000000000000000000000000000000000000000000000000900480634f6ccce7116100fb578063c38bb537116100b4578063e985e9c51161008e578063e985e9c51461048b578063ee810d48146104bb578063f2fde38b146104eb578063f76b44311461050757610190565b8063c38bb53714610421578063c87b56dd1461043d578063d547cfb71461046d57610190565b80634f6ccce71461033b5780636352211e1461036b57806370a082311461039b57806395d89b41146103cb578063a22cb465146103e9578063b88d4fde1461040557610190565b806327dc297e1161014d57806327dc297e146102695780632f745c591461028557806338bbfa50146102b557806340c10f19146102d157806342842e0e14610301578063442890d51461031d57610190565b806301ffc9a71461019557806306fdde03146101c5578063081812fc146101e3578063095ea7b31461021357806318160ddd1461022f57806323b872dd1461024d575b600080fd5b6101af60048036038101906101aa919061325b565b610523565b6040516101bc9190613b89565b60405180910390f35b6101cd61058b565b6040516101da9190613ba4565b60405180910390f35b6101fd60048036038101906101f891906132ad565b61061d565b60405161020a9190613a89565b60405180910390f35b61022d60048036038101906102289190613095565b61065a565b005b610237610807565b6040516102449190613d86565b60405180910390f35b61026760048036038101906102629190612f8f565b610814565b005b610283600480360381019061027e9190613188565b61086d565b005b61029f600480360381019061029a9190613095565b6108ef565b6040516102ac9190613d86565b60405180910390f35b6102cf60048036038101906102ca91906131dc565b61098f565b005b6102eb60048036038101906102e69190613095565b6109b3565b6040516102f89190613b89565b60405180910390f35b61031b60048036038101906103169190612f8f565b610a60565b005b610325610a80565b6040516103329190613a89565b60405180910390f35b610355600480360381019061035091906132ad565b610aa9565b6040516103629190613d86565b60405180910390f35b610385600480360381019061038091906132ad565b610b0a565b6040516103929190613a89565b60405180910390f35b6103b560048036038101906103b09190612f2a565b610b47565b6040516103c29190613d86565b60405180910390f35b6103d3610b97565b6040516103e09190613ba4565b60405180910390f35b61040360048036038101906103fe9190613059565b610c29565b005b61041f600480360381019061041a9190612fde565b610d5f565b005b61043b60048036038101906104369190613136565b610d85565b005b610457600480360381019061045291906132ad565b610eaa565b6040516104649190613ba4565b60405180910390f35b610475610f97565b6040516104829190613ba4565b60405180910390f35b6104a560048036038101906104a09190612f53565b611029565b6040516104b29190613b89565b60405180910390f35b6104d560048036038101906104d091906130d1565b6110bd565b6040516104e29190613b89565b60405180910390f35b61050560048036038101906105009190612f2a565b6111e8565b005b610521600480360381019061051c91906130d1565b61138b565b005b600060016000837bffffffffffffffffffffffffffffffffffffffffffffffffffffffff19167bffffffffffffffffffffffffffffffffffffffffffffffffffffffff1916815260200190815260200160002060009054906101000a900460ff169050919050565b6060600f805461059a906140e1565b80601f01602080910402602001604051908101604052809291908181526020018280546105c6906140e1565b80156106135780601f106105e857610100808354040283529160200191610613565b820191906000526020600020905b8154815290600101906020018083116105f657829003601f168201915b5050505050905090565b60006003600083815260200190815260200160002060009054906101000a900473ffffffffffffffffffffffffffffffffffffffff169050919050565b600061066582610b0a565b90508273ffffffffffffffffffffffffffffffffffffffff168173ffffffffffffffffffffffffffffffffffffffff1614156106d6576040517f08c379a00000000000000000000000000000000000000000000000000000000081526004016106cd90613ca6565b60405180910390fd5b8073ffffffffffffffffffffffffffffffffffffffff163373ffffffffffffffffffffffffffffffffffffffff16148061071657506107158133611029565b5b610755576040517f08c379a000000000000000000000000000000000000000000000000000000000815260040161074c90613c26565b60405180910390fd5b826003600084815260200190815260200160002060006101000a81548173ffffffffffffffffffffffffffffffffffffffff021916908373ffffffffffffffffffffffffffffffffffffffff160217905550818373ffffffffffffffffffffffffffffffffffffffff168273ffffffffffffffffffffffffffffffffffffffff167f8c5be1e5ebec7d5bd14f71427d1e84f3dd0314c0f7b2291e5b200ac8c7c3b92560405160405180910390a4505050565b6000600880549050905090565b61081e33826116e1565b61085d576040517f08c379a000000000000000000000000000000000000000000000000000000000815260040161085490613bc6565b60405180910390fd5b610868838383611776565b505050565b6108eb8282600067ffffffffffffffff8111156108b3577f4e487b7100000000000000000000000000000000000000000000000000000000600052604160045260246000fd5b6040519080825280601f01601f1916602001820160405280156108e55781602001600182028036833780820191505090505b5061098f565b5050565b60006108fa83610b47565b821061090557600080fd5b600660008473ffffffffffffffffffffffffffffffffffffffff1673ffffffffffffffffffffffffffffffffffffffff168152602001908152602001600020828154811061097c577f4e487b7100000000000000000000000000000000000000000000000000000000600052603260045260246000fd5b9060005260206000200154905092915050565b6000600102600d600080600102815260200190815260200160002081905550505050565b60003373ffffffffffffffffffffffffffffffffffffffff1660008054906101000a900473ffffffffffffffffffffffffffffffffffffffff1673ffffffffffffffffffffffffffffffffffffffff1614610a43576040517f08c379a0000000000000000000000000000000000000000000000000000000008152600401610a3a90613cc6565b60405180910390fd5b610a4d838361179a565b610a56826117bb565b6001905092915050565b610a7b83838360405180602001604052806000815250610d5f565b505050565b60008060009054906101000a900473ffffffffffffffffffffffffffffffffffffffff16905090565b6000610ab3610807565b8210610abe57600080fd5b60088281548110610af8577f4e487b7100000000000000000000000000000000000000000000000000000000600052603260045260246000fd5b90600052602060002001549050919050565b60006002600083815260200190815260200160002060009054906101000a900473ffffffffffffffffffffffffffffffffffffffff169050919050565b6000610b90600460008473ffffffffffffffffffffffffffffffffffffffff1673ffffffffffffffffffffffffffffffffffffffff1681526020019081526020016000206118c9565b9050919050565b606060108054610ba6906140e1565b80601f0160208091040260200160405190810160405280929190818152602001828054610bd2906140e1565b8015610c1f5780601f10610bf457610100808354040283529160200191610c1f565b820191906000526020600020905b815481529060010190602001808311610c0257829003601f168201915b5050505050905090565b3373ffffffffffffffffffffffffffffffffffffffff168273ffffffffffffffffffffffffffffffffffffffff161415610c6257600080fd5b80600560003373ffffffffffffffffffffffffffffffffffffffff1673ffffffffffffffffffffffffffffffffffffffff16815260200190815260200160002060008473ffffffffffffffffffffffffffffffffffffffff1673ffffffffffffffffffffffffffffffffffffffff16815260200190815260200160002060006101000a81548160ff0219169083151502179055508173ffffffffffffffffffffffffffffffffffffffff163373ffffffffffffffffffffffffffffffffffffffff167f17307eab39ab6107e8899845ad3d59bd9653f200f220920489ca2b5937696c3183604051610d539190613b89565b60405180910390a35050565b610d6a848484610814565b610d76848484846118d7565b610d7f57600080fd5b50505050565b3373ffffffffffffffffffffffffffffffffffffffff1660008054906101000a900473ffffffffffffffffffffffffffffffffffffffff1673ffffffffffffffffffffffffffffffffffffffff1614610e13576040517f08c379a0000000000000000000000000000000000000000000000000000000008152600401610e0a90613cc6565b60405180910390fd5b80600060146101000a81548160ff0219169083151502179055508015610e6f577f62e78cea01bee320cd4e420270b5ea74000d11b0c9f74754ebdbfc544b05a25833604051610e629190613a89565b60405180910390a1610ea7565b7f5db9ee0a495bf2e6ff9c91a7834c1ba4fdd244a5e8aa4e537bd38aeae4b073aa33604051610e9e9190613a89565b60405180910390a15b50565b6060610eb582611a26565b610ef4576040517f08c379a0000000000000000000000000000000000000000000000000000000008152600401610eeb90613c86565b60405180910390fd5b601260008381526020019081526020016000208054610f12906140e1565b80601f0160208091040260200160405190810160405280929190818152602001828054610f3e906140e1565b8015610f8b5780601f10610f6057610100808354040283529160200191610f8b565b820191906000526020600020905b815481529060010190602001808311610f6e57829003601f168201915b50505050509050919050565b606060118054610fa6906140e1565b80601f0160208091040260200160405190810160405280929190818152602001828054610fd2906140e1565b801561101f5780601f10610ff45761010080835404028352916020019161101f565b820191906000526020600020905b81548152906001019060200180831161100257829003601f168201915b5050505050905090565b6000600560008473ffffffffffffffffffffffffffffffffffffffff1673ffffffffffffffffffffffffffffffffffffffff16815260200190815260200160002060008373ffffffffffffffffffffffffffffffffffffffff1673ffffffffffffffffffffffffffffffffffffffff16815260200190815260200160002060009054906101000a900460ff16905092915050565b6000806110cc86868686611a98565b9050600060156000838152602001908152602001600020604051806080016040529081600082015481526020016001820160009054906101000a900473ffffffffffffffffffffffffffffffffffffffff1673ffffffffffffffffffffffffffffffffffffffff1673ffffffffffffffffffffffffffffffffffffffff1681526020016001820160149054906101000a900460ff161515151581526020016001820160159054906101000a900460ff161515151581525050905080604001516111ca576040517f08c379a00000000000000000000000000000000000000000000000000000000081526004016111c190613d46565b60405180910390fd5b6111dc816020015182600001516109b3565b92505050949350505050565b3373ffffffffffffffffffffffffffffffffffffffff1660008054906101000a900473ffffffffffffffffffffffffffffffffffffffff1673ffffffffffffffffffffffffffffffffffffffff1614611276576040517f08c379a000000000000000000000000000000000000000000000000000000000815260040161126d90613cc6565b60405180910390fd5b80600073ffffffffffffffffffffffffffffffffffffffff168173ffffffffffffffffffffffffffffffffffffffff1614156112e7576040517f08c379a00000000000000000000000000000000000000000000000000000000081526004016112de90613c66565b60405180910390fd5b60008060009054906101000a900473ffffffffffffffffffffffffffffffffffffffff169050826000806101000a81548173ffffffffffffffffffffffffffffffffffffffff021916908373ffffffffffffffffffffffffffffffffffffffff1602179055507fb532073b38c83145e3e5135377a08bf9aab55bc0fd7c1179cd4fb995d2a5159c818460405161137e929190613aa4565b60405180910390a1505050565b600060149054906101000a900460ff16156113db576040517f08c379a00000000000000000000000000000000000000000000000000000000081526004016113d290613d66565b60405180910390fd5b60006113e985858585611a98565b9050600073ffffffffffffffffffffffffffffffffffffffff166015600083815260200190815260200160002060010160009054906101000a900473ffffffffffffffffffffffffffffffffffffffff1673ffffffffffffffffffffffffffffffffffffffff1614611490576040517f08c379a000000000000000000000000000000000000000000000000000000000815260040161148790613d26565b60405180910390fd5b601360009054906101000a900473ffffffffffffffffffffffffffffffffffffffff1673ffffffffffffffffffffffffffffffffffffffff1663621e9ec0868686866040518563ffffffff167c010000000000000000000000000000000000000000000000000000000002815260040161150d9493929190613b42565b60206040518083038186803b15801561152557600080fd5b505afa158015611539573d6000803e3d6000fd5b505050506040513d601f19601f8201168201806040525081019061155d919061315f565b61159c576040517f08c379a000000000000000000000000000000000000000000000000000000000815260040161159390613c46565b60405180910390fd5b600060405180608001604052806115b360146118c9565b81526020013373ffffffffffffffffffffffffffffffffffffffff1681526020016001151581526020016000151581525090506115f06014611ad1565b80601560008481526020019081526020016000206000820151816000015560208201518160010160006101000a81548173ffffffffffffffffffffffffffffffffffffffff021916908373ffffffffffffffffffffffffffffffffffffffff16021790555060408201518160010160146101000a81548160ff02191690831515021790555060608201518160010160156101000a81548160ff0219169083151502179055509050507f3a01cc868bdb36c1d9b8a262a8ad25064b23ac175b3f8e4453f1daf8ff6bac0d816020015182600001516040516116d1929190613b19565b60405180910390a1505050505050565b6000806116ed83610b0a565b90508073ffffffffffffffffffffffffffffffffffffffff168473ffffffffffffffffffffffffffffffffffffffff16148061175c57508373ffffffffffffffffffffffffffffffffffffffff166117448461061d565b73ffffffffffffffffffffffffffffffffffffffff16145b8061176d575061176c8185611029565b5b91505092915050565b611781838383611ae7565b61178b8382611d18565b6117958282611f48565b505050565b6117a4828261200c565b6117ae8282611f48565b6117b781612219565b5050565b6117c481611a26565b611803576040517f08c379a00000000000000000000000000000000000000000000000000000000081526004016117fa90613d06565b60405180910390fd5b61189f60118054611813906140e1565b80601f016020809104026020016040519081016040528092919081815260200182805461183f906140e1565b801561188c5780601f106118615761010080835404028352916020019161188c565b820191906000526020600020905b81548152906001019060200180831161186f57829003601f168201915b505050505061189a83612262565b612431565b6012600083815260200190815260200160002090805190602001906118c5929190612c10565b5050565b600081600001549050919050565b60006118f88473ffffffffffffffffffffffffffffffffffffffff16612475565b6119055760019050611a1e565b60008473ffffffffffffffffffffffffffffffffffffffff1663150b7a02338887876040518563ffffffff167c01000000000000000000000000000000000000000000000000000000000281526004016119629493929190613acd565b602060405180830381600087803b15801561197c57600080fd5b505af1158015611990573d6000803e3d6000fd5b505050506040513d601f19601f820116820180604052508101906119b49190613284565b905063150b7a027c0100000000000000000000000000000000000000000000000000000000027bffffffffffffffffffffffffffffffffffffffffffffffffffffffff1916817bffffffffffffffffffffffffffffffffffffffffffffffffffffffff1916149150505b949350505050565b6000806002600084815260200190815260200160002060009054906101000a900473ffffffffffffffffffffffffffffffffffffffff169050600073ffffffffffffffffffffffffffffffffffffffff168173ffffffffffffffffffffffffffffffffffffffff161415915050919050565b600084848484604051602001611ab19493929190613a3b565b604051602081830303815290604052805190602001209050949350505050565b6001816000016000828254019250508190555050565b81600073ffffffffffffffffffffffffffffffffffffffff168173ffffffffffffffffffffffffffffffffffffffff161415611b58576040517f08c379a0000000000000000000000000000000000000000000000000000000008152600401611b4f90613c66565b60405180910390fd5b611b6182610b0a565b73ffffffffffffffffffffffffffffffffffffffff168473ffffffffffffffffffffffffffffffffffffffff1614611bce576040517f08c379a0000000000000000000000000000000000000000000000000000000008152600401611bc590613be6565b60405180910390fd5b611bd782612488565b611c1e600460008673ffffffffffffffffffffffffffffffffffffffff1673ffffffffffffffffffffffffffffffffffffffff168152602001908152602001600020612546565b611c65600460008573ffffffffffffffffffffffffffffffffffffffff1673ffffffffffffffffffffffffffffffffffffffff168152602001908152602001600020611ad1565b826002600084815260200190815260200160002060006101000a81548173ffffffffffffffffffffffffffffffffffffffff021916908373ffffffffffffffffffffffffffffffffffffffff160217905550818373ffffffffffffffffffffffffffffffffffffffff168573ffffffffffffffffffffffffffffffffffffffff167fddf252ad1be2c89b69c2b068fc378daa952ba7f163c4a11628f55a4df523b3ef60405160405180910390a450505050565b6000611d706001600660008673ffffffffffffffffffffffffffffffffffffffff1673ffffffffffffffffffffffffffffffffffffffff168152602001908152602001600020805490506125a290919063ffffffff16565b9050600060076000848152602001908152602001600020549050818114611eb7576000600660008673ffffffffffffffffffffffffffffffffffffffff1673ffffffffffffffffffffffffffffffffffffffff1681526020019081526020016000208381548110611e0a577f4e487b7100000000000000000000000000000000000000000000000000000000600052603260045260246000fd5b9060005260206000200154905080600660008773ffffffffffffffffffffffffffffffffffffffff1673ffffffffffffffffffffffffffffffffffffffff1681526020019081526020016000208381548110611e8f577f4e487b7100000000000000000000000000000000000000000000000000000000600052603260045260246000fd5b9060005260206000200181905550816007600083815260200190815260200160002081905550505b600660008573ffffffffffffffffffffffffffffffffffffffff1673ffffffffffffffffffffffffffffffffffffffff168152602001908152602001600020805480611f2c577f4e487b7100000000000000000000000000000000000000000000000000000000600052603160045260246000fd5b6001900381819060005260206000200160009055905550505050565b600660008373ffffffffffffffffffffffffffffffffffffffff1673ffffffffffffffffffffffffffffffffffffffff168152602001908152602001600020805490506007600083815260200190815260200160002081905550600660008373ffffffffffffffffffffffffffffffffffffffff1673ffffffffffffffffffffffffffffffffffffffff1681526020019081526020016000208190806001815401808255809150506001900390600052602060002001600090919091909150555050565b81600073ffffffffffffffffffffffffffffffffffffffff168173ffffffffffffffffffffffffffffffffffffffff16141561207d576040517f08c379a000000000000000000000000000000000000000000000000000000000815260040161207490613c66565b60405180910390fd5b600073ffffffffffffffffffffffffffffffffffffffff166002600084815260200190815260200160002060009054906101000a900473ffffffffffffffffffffffffffffffffffffffff1673ffffffffffffffffffffffffffffffffffffffff161461211f576040517f08c379a000000000000000000000000000000000000000000000000000000000815260040161211690613ce6565b60405180910390fd5b826002600084815260200190815260200160002060006101000a81548173ffffffffffffffffffffffffffffffffffffffff021916908373ffffffffffffffffffffffffffffffffffffffff1602179055506121b8600460008573ffffffffffffffffffffffffffffffffffffffff1673ffffffffffffffffffffffffffffffffffffffff168152602001908152602001600020611ad1565b818373ffffffffffffffffffffffffffffffffffffffff16600073ffffffffffffffffffffffffffffffffffffffff167fddf252ad1be2c89b69c2b068fc378daa952ba7f163c4a11628f55a4df523b3ef60405160405180910390a4505050565b6008805490506009600083815260200190815260200160002081905550600881908060018154018082558091505060019003906000526020600020016000909190919091505550565b606060008214156122aa576040518060400160405280600181526020017f3000000000000000000000000000000000000000000000000000000000000000815250905061242c565b600082905060005b600082146122dc5780806122c590614113565b915050600a826122d59190613f92565b91506122b2565b60008167ffffffffffffffff81111561231e577f4e487b7100000000000000000000000000000000000000000000000000000000600052604160045260246000fd5b6040519080825280601f01601f1916602001820160405280156123505781602001600182028036833780820191505090505b50905060008290505b6000861461242457600a8661236e919061415c565b603061237a9190613f3c565b7f01000000000000000000000000000000000000000000000000000000000000000282826123a7906140b7565b925082815181106123e1577f4e487b7100000000000000000000000000000000000000000000000000000000600052603260045260246000fd5b60200101907effffffffffffffffffffffffffffffffffffffffffffffffffffffffffffff1916908160001a905350600a8661241d9190613f92565b9550612359565b819450505050505b919050565b606061246d83836040518060200160405280600081525060405180602001604052806000815250604051806020016040528060008152506125b8565b905092915050565b600080823b905060008111915050919050565b600073ffffffffffffffffffffffffffffffffffffffff166003600083815260200190815260200160002060009054906101000a900473ffffffffffffffffffffffffffffffffffffffff1673ffffffffffffffffffffffffffffffffffffffff16146125435760006003600083815260200190815260200160002060006101000a81548173ffffffffffffffffffffffffffffffffffffffff021916908373ffffffffffffffffffffffffffffffffffffffff1602179055505b50565b60008160000154905060008111612592576040517f08c379a000000000000000000000000000000000000000000000000000000000815260040161258990613c06565b60405180910390fd5b6001810382600001819055505050565b600081836125b09190613fc3565b905092915050565b6060600086905060008690506000869050600086905060008690506000815183518551875189516125e99190613f3c565b6125f39190613f3c565b6125fd9190613f3c565b6126079190613f3c565b67ffffffffffffffff811115612646577f4e487b7100000000000000000000000000000000000000000000000000000000600052604160045260246000fd5b6040519080825280601f01601f1916602001820160405280156126785781602001600182028036833780820191505090505b5090506000819050600080600090505b885181101561279b578881815181106126ca577f4e487b7100000000000000000000000000000000000000000000000000000000600052603260045260246000fd5b60200101517f010000000000000000000000000000000000000000000000000000000000000090047f01000000000000000000000000000000000000000000000000000000000000000283838061272090614113565b945081518110612759577f4e487b7100000000000000000000000000000000000000000000000000000000600052603260045260246000fd5b60200101907effffffffffffffffffffffffffffffffffffffffffffffffffffffffffffff1916908160001a905350808061279390614113565b915050612688565b600090505b87518110156128b3578781815181106127e2577f4e487b7100000000000000000000000000000000000000000000000000000000600052603260045260246000fd5b60200101517f010000000000000000000000000000000000000000000000000000000000000090047f01000000000000000000000000000000000000000000000000000000000000000283838061283890614113565b945081518110612871577f4e487b7100000000000000000000000000000000000000000000000000000000600052603260045260246000fd5b60200101907effffffffffffffffffffffffffffffffffffffffffffffffffffffffffffff1916908160001a90535080806128ab90614113565b9150506127a0565b600090505b86518110156129cb578681815181106128fa577f4e487b7100000000000000000000000000000000000000000000000000000000600052603260045260246000fd5b60200101517f010000000000000000000000000000000000000000000000000000000000000090047f01000000000000000000000000000000000000000000000000000000000000000283838061295090614113565b945081518110612989577f4e487b7100000000000000000000000000000000000000000000000000000000600052603260045260246000fd5b60200101907effffffffffffffffffffffffffffffffffffffffffffffffffffffffffffff1916908160001a90535080806129c390614113565b9150506128b8565b600090505b8551811015612ae357858181518110612a12577f4e487b7100000000000000000000000000000000000000000000000000000000600052603260045260246000fd5b60200101517f010000000000000000000000000000000000000000000000000000000000000090047f010000000000000000000000000000000000000000000000000000000000000002838380612a6890614113565b945081518110612aa1577f4e487b7100000000000000000000000000000000000000000000000000000000600052603260045260246000fd5b60200101907effffffffffffffffffffffffffffffffffffffffffffffffffffffffffffff1916908160001a9053508080612adb90614113565b9150506129d0565b600090505b8451811015612bfb57848181518110612b2a577f4e487b7100000000000000000000000000000000000000000000000000000000600052603260045260246000fd5b60200101517f010000000000000000000000000000000000000000000000000000000000000090047f010000000000000000000000000000000000000000000000000000000000000002838380612b8090614113565b945081518110612bb9577f4e487b7100000000000000000000000000000000000000000000000000000000600052603260045260246000fd5b60200101907effffffffffffffffffffffffffffffffffffffffffffffffffffffffffffff1916908160001a9053508080612bf390614113565b915050612ae8565b82995050505050505050505095945050505050565b828054612c1c906140e1565b90600052602060002090601f016020900481019282612c3e5760008555612c85565b82601f10612c5757805160ff1916838001178555612c85565b82800160010185558215612c85579182015b82811115612c84578251825591602001919060010190612c69565b5b509050612c929190612c96565b5090565b5b80821115612caf576000816000905550600101612c97565b5090565b6000612cc6612cc184613dd2565b613da1565b90508082856040860282011115612cdc57600080fd5b60005b85811015612d0c5781612cf28882612e31565b845260208401935060408301925050600181019050612cdf565b5050509392505050565b6000612d29612d2484613df8565b613da1565b90508082856020860282011115612d3f57600080fd5b60005b85811015612d6f5781612d558882612f15565b845260208401935060208301925050600181019050612d42565b5050509392505050565b6000612d8c612d8784613e1e565b613da1565b905082815260208101848484011115612da457600080fd5b612daf848285614075565b509392505050565b6000612dca612dc584613e4e565b613da1565b905082815260208101848484011115612de257600080fd5b612ded848285614075565b509392505050565b600081359050612e048161425a565b92915050565b600082601f830112612e1b57600080fd5b6002612e28848285612cb3565b91505092915050565b600082601f830112612e4257600080fd5b6002612e4f848285612d16565b91505092915050565b600081359050612e6781614271565b92915050565b600081519050612e7c81614271565b92915050565b600081359050612e9181614288565b92915050565b600081359050612ea68161429f565b92915050565b600081519050612ebb8161429f565b92915050565b600082601f830112612ed257600080fd5b8135612ee2848260208601612d79565b91505092915050565b600082601f830112612efc57600080fd5b8135612f0c848260208601612db7565b91505092915050565b600081359050612f24816142b6565b92915050565b600060208284031215612f3c57600080fd5b6000612f4a84828501612df5565b91505092915050565b60008060408385031215612f6657600080fd5b6000612f7485828601612df5565b9250506020612f8585828601612df5565b9150509250929050565b600080600060608486031215612fa457600080fd5b6000612fb286828701612df5565b9350506020612fc386828701612df5565b9250506040612fd486828701612f15565b9150509250925092565b60008060008060808587031215612ff457600080fd5b600061300287828801612df5565b945050602061301387828801612df5565b935050604061302487828801612f15565b925050606085013567ffffffffffffffff81111561304157600080fd5b61304d87828801612ec1565b91505092959194509250565b6000806040838503121561306c57600080fd5b600061307a85828601612df5565b925050602061308b85828601612e58565b9150509250929050565b600080604083850312156130a857600080fd5b60006130b685828601612df5565b92505060206130c785828601612f15565b9150509250929050565b60008060008061014085870312156130e857600080fd5b60006130f687828801612e31565b945050604061310787828801612e0a565b93505060c061311887828801612e31565b92505061010061312a87828801612e31565b91505092959194509250565b60006020828403121561314857600080fd5b600061315684828501612e58565b91505092915050565b60006020828403121561317157600080fd5b600061317f84828501612e6d565b91505092915050565b6000806040838503121561319b57600080fd5b60006131a985828601612e82565b925050602083013567ffffffffffffffff8111156131c657600080fd5b6131d285828601612eeb565b9150509250929050565b6000806000606084860312156131f157600080fd5b60006131ff86828701612e82565b935050602084013567ffffffffffffffff81111561321c57600080fd5b61322886828701612eeb565b925050604084013567ffffffffffffffff81111561324557600080fd5b61325186828701612ec1565b9150509250925092565b60006020828403121561326d57600080fd5b600061327b84828501612e97565b91505092915050565b60006020828403121561329657600080fd5b60006132a484828501612eac565b91505092915050565b6000602082840312156132bf57600080fd5b60006132cd84828501612f15565b91505092915050565b60006132e283836133f3565b60408301905092915050565b60006132fa83836134a1565b60408301905092915050565b60006133128383613a0e565b60208301905092915050565b600061332a8383613a2c565b60208301905092915050565b61333f81613ff7565b82525050565b61334e81613e92565b6133588184613ed8565b925061336382613e7e565b8060005b8381101561339457815161337b87826132d6565b965061338683613ebe565b925050600181019050613367565b505050505050565b6133a581613e92565b6133af8184613ee3565b92506133ba82613e7e565b8060005b838110156133eb5781516133d287826132ee565b96506133dd83613ebe565b9250506001810190506133be565b505050505050565b6133fc81613e9d565b6134068184613eee565b925061341182613e88565b8060005b838110156134425781516134298782613306565b965061343483613ecb565b925050600181019050613415565b505050505050565b61345381613e9d565b61345d8184613ef9565b925061346882613e88565b8060005b838110156134995781516134808782613306565b965061348b83613ecb565b92505060018101905061346c565b505050505050565b6134aa81613e9d565b6134b48184613f04565b92506134bf82613e88565b8060005b838110156134f05781516134d7878261331e565b96506134e283613ecb565b9250506001810190506134c3565b505050505050565b61350181613e9d565b61350b8184613f0f565b925061351682613e88565b8060005b8381101561354757815161352e878261331e565b965061353983613ecb565b92505060018101905061351a565b505050505050565b61355881614009565b82525050565b600061356982613ea8565b6135738185613f1a565b9350613583818560208601614084565b61358c81614249565b840191505092915050565b60006135a282613eb3565b6135ac8185613f2b565b93506135bc818560208601614084565b6135c581614249565b840191505092915050565b60006135dd602a83613f2b565b91507f7065726d697373696f6e20697320726571756972656420746f207472616e736660008301527f657220746f6b656e4964000000000000000000000000000000000000000000006020830152604082019050919050565b6000613643603083613f2b565b91507f46726f6d2061646472657373206973206e6f7420746865206f776e6572206f6660008301527f2074686520676976656e20746f6b656e000000000000000000000000000000006020830152604082019050919050565b60006136a9601b83613f2b565b91507f436f756e7465723a2064656372656d656e74206f766572666c6f7700000000006000830152602082019050919050565b60006136e9604483613f2b565b91507f4d6573736167652073656e646572206d75737420626520746865206f776e657260008301527f206f7220686173206265656e20617070726f76656420627920746f6b656e206f60208301527f776e6572000000000000000000000000000000000000000000000000000000006040830152606082019050919050565b6000613775601b83613f2b565b91507f536f6c7574696f6e2063616e6e6f7420626520766572696669656400000000006000830152602082019050919050565b60006137b5601783613f2b565b91507f4d75737420626520612076616c696420616464726573730000000000000000006000830152602082019050919050565b60006137f5601283613f2b565b91507f746f6b656e206973206e6f7420657869737400000000000000000000000000006000830152602082019050919050565b6000613835603283613f2b565b91507f476976656e20616464726573732073686f756c64206e6f74206265207468652060008301527f6f776e6572206f662074686520746f6b656e00000000000000000000000000006020830152604082019050919050565b600061389b601583613f2b565b91507f4f6e6c79206f776e657220697320616c6c6f77656400000000000000000000006000830152602082019050919050565b60006138db601683613f2b565b91507f746f6b656e20697320616c7265616479206578697374000000000000000000006000830152602082019050919050565b600061391b601483613f2b565b91507f746f6b656e4964206973206e6f742065786973740000000000000000000000006000830152602082019050919050565b600061395b601983613f2b565b91507f536f6c7574696f6e20697320616c7265616479206578697374000000000000006000830152602082019050919050565b600061399b601583613f2b565b91507f546f6b656e206973206e6f7420766572696669656400000000000000000000006000830152602082019050919050565b60006139db601d83613f2b565b91507f436f6e7472616374206973206e6f7420617661696c61626c65206e6f770000006000830152602082019050919050565b613a178161406b565b82525050565b613a268161406b565b82525050565b613a358161406b565b82525050565b6000613a4782876134f8565b604082019150613a57828661339c565b608082019150613a6782856134f8565b604082019150613a7782846134f8565b60408201915081905095945050505050565b6000602082019050613a9e6000830184613336565b92915050565b6000604082019050613ab96000830185613336565b613ac66020830184613336565b9392505050565b6000608082019050613ae26000830187613336565b613aef6020830186613336565b613afc6040830185613a1d565b8181036060830152613b0e818461355e565b905095945050505050565b6000604082019050613b2e6000830185613336565b613b3b6020830184613a1d565b9392505050565b600061014082019050613b58600083018761344a565b613b656040830186613345565b613b7260c083018561344a565b613b8061010083018461344a565b95945050505050565b6000602082019050613b9e600083018461354f565b92915050565b60006020820190508181036000830152613bbe8184613597565b905092915050565b60006020820190508181036000830152613bdf816135d0565b9050919050565b60006020820190508181036000830152613bff81613636565b9050919050565b60006020820190508181036000830152613c1f8161369c565b9050919050565b60006020820190508181036000830152613c3f816136dc565b9050919050565b60006020820190508181036000830152613c5f81613768565b9050919050565b60006020820190508181036000830152613c7f816137a8565b9050919050565b60006020820190508181036000830152613c9f816137e8565b9050919050565b60006020820190508181036000830152613cbf81613828565b9050919050565b60006020820190508181036000830152613cdf8161388e565b9050919050565b60006020820190508181036000830152613cff816138ce565b9050919050565b60006020820190508181036000830152613d1f8161390e565b9050919050565b60006020820190508181036000830152613d3f8161394e565b9050919050565b60006020820190508181036000830152613d5f8161398e565b9050919050565b60006020820190508181036000830152613d7f816139ce565b9050919050565b6000602082019050613d9b6000830184613a1d565b92915050565b6000604051905081810181811067ffffffffffffffff82111715613dc857613dc761421a565b5b8060405250919050565b600067ffffffffffffffff821115613ded57613dec61421a565b5b602082029050919050565b600067ffffffffffffffff821115613e1357613e1261421a565b5b602082029050919050565b600067ffffffffffffffff821115613e3957613e3861421a565b5b601f19601f8301169050602081019050919050565b600067ffffffffffffffff821115613e6957613e6861421a565b5b601f19601f8301169050602081019050919050565b6000819050919050565b6000819050919050565b600060029050919050565b600060029050919050565b600081519050919050565b600081519050919050565b6000602082019050919050565b6000602082019050919050565b600081905092915050565b600081905092915050565b600081905092915050565b600081905092915050565b600081905092915050565b600081905092915050565b600082825260208201905092915050565b600082825260208201905092915050565b6000613f478261406b565b9150613f528361406b565b9250827fffffffffffffffffffffffffffffffffffffffffffffffffffffffffffffffff03821115613f8757613f8661418d565b5b828201905092915050565b6000613f9d8261406b565b9150613fa88361406b565b925082613fb857613fb76141bc565b5b828204905092915050565b6000613fce8261406b565b9150613fd98361406b565b925082821015613fec57613feb61418d565b5b828203905092915050565b60006140028261404b565b9050919050565b60008115159050919050565b6000819050919050565b60007fffffffff0000000000000000000000000000000000000000000000000000000082169050919050565b600073ffffffffffffffffffffffffffffffffffffffff82169050919050565b6000819050919050565b82818337600083830152505050565b60005b838110156140a2578082015181840152602081019050614087565b838111156140b1576000848401525b50505050565b60006140c28261406b565b915060008214156140d6576140d561418d565b5b600182039050919050565b600060028204905060018216806140f957607f821691505b6020821081141561410d5761410c6141eb565b5b50919050565b600061411e8261406b565b91507fffffffffffffffffffffffffffffffffffffffffffffffffffffffffffffffff8214156141515761415061418d565b5b600182019050919050565b60006141678261406b565b91506141728361406b565b925082614182576141816141bc565b5b828206905092915050565b7f4e487b7100000000000000000000000000000000000000000000000000000000600052601160045260246000fd5b7f4e487b7100000000000000000000000000000000000000000000000000000000600052601260045260246000fd5b7f4e487b7100000000000000000000000000000000000000000000000000000000600052602260045260246000fd5b7f4e487b7100000000000000000000000000000000000000000000000000000000600052604160045260246000fd5b6000601f19601f8301169050919050565b61426381613ff7565b811461426e57600080fd5b50565b61427a81614009565b811461428557600080fd5b50565b61429181614015565b811461429c57600080fd5b50565b6142a88161401f565b81146142b357600080fd5b50565b6142bf8161406b565b81146142ca57600080fd5b5056fea2646970667358221220d3192dfbf1d46a2c38b27f63dfef75d8dfa9485959780baf859c3b839d085aa264736f6c6343000800003368747470733a2f2f73332d75732d776573742d322e616d617a6f6e6177732e636f6d2f756461636974792d626c6f636b636861696e2f63617073746f6e652f",
  "immutableReferences": {},
  "source": "// SPDX-License-Identifier: MIT\npragma solidity ^0.8.0;\n\n// TODO define a contract call to the zokrates generated solidity contract <Verifier> or <renamedVerifier>\nimport \"@openzeppelin/contracts/utils/Counters.sol\";\nimport \"./ERC721Mintable.sol\";\nimport \"./SquareVerifier.sol\";\n\n// TODO define another contract named SolnSquareVerifier that inherits from your ERC721Mintable class\ncontract SolnSquareVerifier is ERC721TokenRealEstate {\n  using Counters for Counters.Counter;\n\n  // TODO define a solutions struct that can hold an index & an address\n  struct Solution {\n    uint256 tokenId;\n    address to;\n    bool isVerified;\n    bool isMinted;\n  }\n\n  SquareVerifier private verifier;\n\n  // TODO define an array of the above struct\n  Counters.Counter private solutionIndex;\n\n  // TODO define a mapping to store unique solutions submitted\n  mapping(bytes32 => Solution) private solutions;\n\n  constructor(address _verifierAddress) ERC721TokenRealEstate() {\n    verifier = SquareVerifier(_verifierAddress);\n  }\n\n  // TODO Create an event to emit when a solution is added\n  event SolutionAdded(address to, uint256 tokenId);\n\n  function getSolutionKey(\n    uint256[2] memory a,\n    uint256[2][2] memory b,\n    uint256[2] memory c,\n    uint256[2] memory input\n  ) internal pure returns (bytes32) {\n    return keccak256(abi.encodePacked(a, b, c, input));\n  }\n\n  // TODO Create a function to add the solutions to the array and emit the event\n  function addSolution(\n    uint256[2] memory a,\n    uint256[2][2] memory b,\n    uint256[2] memory c,\n    uint256[2] memory input\n  ) public withNotPaused {\n    bytes32 solutionKey = getSolutionKey(a, b, c, input);\n    require(solutions[solutionKey].to == address(0), \"Solution is already exist\");\n\n    // verify input\n    require(verifier.verifyTx(a, b, c, input), \"Solution cannot be verified\");\n\n    // add to solutions\n    Solution memory solution = Solution({\n      tokenId: solutionIndex.current(),\n      to: msg.sender,\n      isVerified: true,\n      isMinted: false\n    });\n    solutionIndex.increment();\n    solutions[solutionKey] = solution;\n\n    emit SolutionAdded(solution.to, solution.tokenId);\n  }\n\n  // TODO Create a function to mint new NFT only after the solution has been verified\n  //  - make sure the solution is unique (has not been used before)\n  //  - make sure you handle metadata as well as tokenSuplly\n  function mintNFT(\n    uint256[2] memory a,\n    uint256[2][2] memory b,\n    uint256[2] memory c,\n    uint256[2] memory input\n  ) public returns (bool) {\n    bytes32 solutionKey = getSolutionKey(a, b, c, input);\n    Solution memory solution = solutions[solutionKey];\n    require(solution.isVerified, \"Token is not verified\");\n\n    return mint(solution.to, solution.tokenId);\n  }\n}\n",
  "sourcePath": "/Users/liufeng/Study/nd1309/5_capstone/eth-contracts/contracts/SolnSquareVerifier.sol",
  "compiler": {
    "name": "solc",
    "version": "0.8.0+commit.c7dfd78e.Emscripten.clang"
  },
  "schemaVersion": "3.4.3",
  "updatedAt": "2021-10-09T09:30:23.308Z",
  "networkType": "ethereum",
  "devdoc": {
    "kind": "dev",
    "methods": {
      "__callback(bytes32,string)": {
        "details": "The following `__callback` functions are just placeholders ideally      meant to be defined in child contract when proofs are used.      The function bodies simply silence compiler warnings."
      },
      "isApprovedForAll(address,address)": {
        "details": "Tells whether an operator is approved by a given owner",
        "params": {
          "operator": "operator address which you want to query the approval of",
          "owner": "owner address which you want to query the approval of"
        },
        "returns": {
          "_0": "bool whether the given operator is approved by the given owner"
        }
      },
      "setApprovalForAll(address,bool)": {
        "details": "Sets or unsets the approval of a given operator An operator is allowed to transfer all tokens of the sender on their behalf",
        "params": {
          "approved": "representing the status of the approval to be set",
          "to": "operator address to set the approval"
        }
      },
      "supportsInterface(bytes4)": {
        "details": "implement supportsInterface(bytes4) using a lookup table"
      },
      "tokenByIndex(uint256)": {
        "details": "Gets the token ID at a given index of all the tokens in this contract Reverts if the index is greater or equal to the total number of tokens",
        "params": {
          "index": "uint256 representing the index to be accessed of the tokens list"
        },
        "returns": {
          "_0": "uint256 token ID at the given index of the tokens list"
        }
      },
      "tokenOfOwnerByIndex(address,uint256)": {
        "details": "Gets the token ID at a given index of the tokens list of the requested owner",
        "params": {
          "index": "uint256 representing the index to be accessed of the requested tokens list",
          "owner": "address owning the tokens list to be accessed"
        },
        "returns": {
          "_0": "uint256 token ID at the given index of the tokens list owned by the requested address"
        }
      },
      "totalSupply()": {
        "details": "Gets the total amount of tokens stored by the contract",
        "returns": {
          "_0": "uint256 representing the total amount of tokens"
        }
      }
    },
    "version": 1
  },
  "userdoc": {
    "kind": "user",
    "methods": {},
    "version": 1
  }
}